{"contracts/SinDAO.sol":{"SinDAO":{"abi":[{"inputs":[{"internalType":"contract IVotes","name":"_token","type":"address"}],"stateMutability":"nonpayable","type":"constructor"},{"inputs":[],"name":"Empty","type":"error"},{"inputs":[],"name":"InvalidShortString","type":"error"},{"inputs":[{"internalType":"string","name":"str","type":"string"}],"name":"StringTooLong","type":"error"},{"anonymous":false,"inputs":[],"name":"EIP712DomainChanged","type":"event"},{"anonymous":false,"inputs":[{"indexed":false,"internalType":"uint256","name":"proposalId","type":"uint256"}],"name":"ProposalCanceled","type":"event"},{"anonymous":false,"inputs":[{"indexed":false,"internalType":"uint256","name":"proposalId","type":"uint256"},{"indexed":false,"internalType":"address","name":"proposer","type":"address"},{"indexed":false,"internalType":"address[]","name":"targets","type":"address[]"},{"indexed":false,"internalType":"uint256[]","name":"values","type":"uint256[]"},{"indexed":false,"internalType":"string[]","name":"signatures","type":"string[]"},{"indexed":false,"internalType":"bytes[]","name":"calldatas","type":"bytes[]"},{"indexed":false,"internalType":"uint256","name":"voteStart","type":"uint256"},{"indexed":false,"internalType":"uint256","name":"voteEnd","type":"uint256"},{"indexed":false,"internalType":"string","name":"description","type":"string"}],"name":"ProposalCreated","type":"event"},{"anonymous":false,"inputs":[{"indexed":false,"internalType":"uint256","name":"proposalId","type":"uint256"}],"name":"ProposalExecuted","type":"event"},{"anonymous":false,"inputs":[{"indexed":false,"internalType":"uint256","name":"oldProposalThreshold","type":"uint256"},{"indexed":false,"internalType":"uint256","name":"newProposalThreshold","type":"uint256"}],"name":"ProposalThresholdSet","type":"event"},{"anonymous":false,"inputs":[{"indexed":false,"internalType":"uint256","name":"oldQuorumNumerator","type":"uint256"},{"indexed":false,"internalType":"uint256","name":"newQuorumNumerator","type":"uint256"}],"name":"QuorumNumeratorUpdated","type":"event"},{"anonymous":false,"inputs":[{"indexed":true,"internalType":"bytes32","name":"role","type":"bytes32"},{"indexed":true,"internalType":"bytes32","name":"previousAdminRole","type":"bytes32"},{"indexed":true,"internalType":"bytes32","name":"newAdminRole","type":"bytes32"}],"name":"RoleAdminChanged","type":"event"},{"anonymous":false,"inputs":[{"indexed":true,"internalType":"bytes32","name":"role","type":"bytes32"},{"indexed":true,"internalType":"address","name":"account","type":"address"},{"indexed":true,"internalType":"address","name":"sender","type":"address"}],"name":"RoleGranted","type":"event"},{"anonymous":false,"inputs":[{"indexed":true,"internalType":"bytes32","name":"role","type":"bytes32"},{"indexed":true,"internalType":"address","name":"account","type":"address"},{"indexed":true,"internalType":"address","name":"sender","type":"address"}],"name":"RoleRevoked","type":"event"},{"anonymous":false,"inputs":[{"indexed":true,"internalType":"address","name":"voter","type":"address"},{"indexed":false,"internalType":"uint256","name":"proposalId","type":"uint256"},{"indexed":false,"internalType":"uint8","name":"support","type":"uint8"},{"indexed":false,"internalType":"uint256","name":"weight","type":"uint256"},{"indexed":false,"internalType":"string","name":"reason","type":"string"}],"name":"VoteCast","type":"event"},{"anonymous":false,"inputs":[{"indexed":true,"internalType":"address","name":"voter","type":"address"},{"indexed":false,"internalType":"uint256","name":"proposalId","type":"uint256"},{"indexed":false,"internalType":"uint8","name":"support","type":"uint8"},{"indexed":false,"internalType":"uint256","name":"weight","type":"uint256"},{"indexed":false,"internalType":"string","name":"reason","type":"string"},{"indexed":false,"internalType":"bytes","name":"params","type":"bytes"}],"name":"VoteCastWithParams","type":"event"},{"anonymous":false,"inputs":[{"indexed":false,"internalType":"uint256","name":"oldVotingDelay","type":"uint256"},{"indexed":false,"internalType":"uint256","name":"newVotingDelay","type":"uint256"}],"name":"VotingDelaySet","type":"event"},{"anonymous":false,"inputs":[{"indexed":false,"internalType":"uint256","name":"oldVotingPeriod","type":"uint256"},{"indexed":false,"internalType":"uint256","name":"newVotingPeriod","type":"uint256"}],"name":"VotingPeriodSet","type":"event"},{"inputs":[],"name":"BALLOT_TYPEHASH","outputs":[{"internalType":"bytes32","name":"","type":"bytes32"}],"stateMutability":"view","type":"function"},{"inputs":[],"name":"CARETAKER_ROLE","outputs":[{"internalType":"bytes32","name":"","type":"bytes32"}],"stateMutability":"view","type":"function"},{"inputs":[],"name":"CLOCK_MODE","outputs":[{"internalType":"string","name":"","type":"string"}],"stateMutability":"view","type":"function"},{"inputs":[],"name":"COUNTING_MODE","outputs":[{"internalType":"string","name":"","type":"string"}],"stateMutability":"pure","type":"function"},{"inputs":[],"name":"DEFAULT_ADMIN_ROLE","outputs":[{"internalType":"bytes32","name":"","type":"bytes32"}],"stateMutability":"view","type":"function"},{"inputs":[],"name":"EXTENDED_BALLOT_TYPEHASH","outputs":[{"internalType":"bytes32","name":"","type":"bytes32"}],"stateMutability":"view","type":"function"},{"inputs":[],"name":"MODERATOR_ROLE","outputs":[{"internalType":"bytes32","name":"","type":"bytes32"}],"stateMutability":"view","type":"function"},{"inputs":[],"name":"USER_ROLE","outputs":[{"internalType":"bytes32","name":"","type":"bytes32"}],"stateMutability":"view","type":"function"},{"inputs":[{"internalType":"uint256","name":"","type":"uint256"},{"internalType":"uint256","name":"","type":"uint256"}],"name":"apartamentToDateToMonthlyPayments","outputs":[{"internalType":"enum SinDAO.MonthlyPaymentStatusEnum","name":"status","type":"uint8"},{"internalType":"address","name":"payee","type":"address"}],"stateMutability":"view","type":"function"},{"inputs":[{"internalType":"uint256","name":"","type":"uint256"}],"name":"archivedBills","outputs":[{"internalType":"string","name":"description","type":"string"},{"internalType":"uint256","name":"value","type":"uint256"},{"internalType":"address","name":"payee","type":"address"},{"internalType":"address","name":"receiver","type":"address"}],"stateMutability":"view","type":"function"},{"inputs":[{"internalType":"uint256","name":"","type":"uint256"}],"name":"bills","outputs":[{"internalType":"string","name":"description","type":"string"},{"internalType":"uint256","name":"value","type":"uint256"},{"internalType":"address","name":"payee","type":"address"},{"internalType":"address","name":"receiver","type":"address"}],"stateMutability":"view","type":"function"},{"inputs":[{"internalType":"address[]","name":"targets","type":"address[]"},{"internalType":"uint256[]","name":"values","type":"uint256[]"},{"internalType":"bytes[]","name":"calldatas","type":"bytes[]"},{"internalType":"bytes32","name":"descriptionHash","type":"bytes32"}],"name":"cancel","outputs":[{"internalType":"uint256","name":"","type":"uint256"}],"stateMutability":"nonpayable","type":"function"},{"inputs":[{"internalType":"uint256","name":"proposalId","type":"uint256"},{"internalType":"uint8","name":"support","type":"uint8"}],"name":"castVote","outputs":[{"internalType":"uint256","name":"","type":"uint256"}],"stateMutability":"nonpayable","type":"function"},{"inputs":[{"internalType":"uint256","name":"proposalId","type":"uint256"},{"internalType":"uint8","name":"support","type":"uint8"},{"internalType":"uint8","name":"v","type":"uint8"},{"internalType":"bytes32","name":"r","type":"bytes32"},{"internalType":"bytes32","name":"s","type":"bytes32"}],"name":"castVoteBySig","outputs":[{"internalType":"uint256","name":"","type":"uint256"}],"stateMutability":"nonpayable","type":"function"},{"inputs":[{"internalType":"uint256","name":"proposalId","type":"uint256"},{"internalType":"uint8","name":"support","type":"uint8"},{"internalType":"string","name":"reason","type":"string"}],"name":"castVoteWithReason","outputs":[{"internalType":"uint256","name":"","type":"uint256"}],"stateMutability":"nonpayable","type":"function"},{"inputs":[{"internalType":"uint256","name":"proposalId","type":"uint256"},{"internalType":"uint8","name":"support","type":"uint8"},{"internalType":"string","name":"reason","type":"string"},{"internalType":"bytes","name":"params","type":"bytes"}],"name":"castVoteWithReasonAndParams","outputs":[{"internalType":"uint256","name":"","type":"uint256"}],"stateMutability":"nonpayable","type":"function"},{"inputs":[{"internalType":"uint256","name":"proposalId","type":"uint256"},{"internalType":"uint8","name":"support","type":"uint8"},{"internalType":"string","name":"reason","type":"string"},{"internalType":"bytes","name":"params","type":"bytes"},{"internalType":"uint8","name":"v","type":"uint8"},{"internalType":"bytes32","name":"r","type":"bytes32"},{"internalType":"bytes32","name":"s","type":"bytes32"}],"name":"castVoteWithReasonAndParamsBySig","outputs":[{"internalType":"uint256","name":"","type":"uint256"}],"stateMutability":"nonpayable","type":"function"},{"inputs":[],"name":"clock","outputs":[{"internalType":"uint48","name":"","type":"uint48"}],"stateMutability":"view","type":"function"},{"inputs":[{"internalType":"uint256","name":"","type":"uint256"},{"internalType":"uint256","name":"","type":"uint256"}],"name":"dateToApartamentToMonthlyPayments","outputs":[{"internalType":"enum SinDAO.MonthlyPaymentStatusEnum","name":"status","type":"uint8"},{"internalType":"address","name":"payee","type":"address"}],"stateMutability":"view","type":"function"},{"inputs":[],"name":"eip712Domain","outputs":[{"internalType":"bytes1","name":"fields","type":"bytes1"},{"internalType":"string","name":"name","type":"string"},{"internalType":"string","name":"version","type":"string"},{"internalType":"uint256","name":"chainId","type":"uint256"},{"internalType":"address","name":"verifyingContract","type":"address"},{"internalType":"bytes32","name":"salt","type":"bytes32"},{"internalType":"uint256[]","name":"extensions","type":"uint256[]"}],"stateMutability":"view","type":"function"},{"inputs":[{"internalType":"address[]","name":"targets","type":"address[]"},{"internalType":"uint256[]","name":"values","type":"uint256[]"},{"internalType":"bytes[]","name":"calldatas","type":"bytes[]"},{"internalType":"bytes32","name":"descriptionHash","type":"bytes32"}],"name":"execute","outputs":[{"internalType":"uint256","name":"","type":"uint256"}],"stateMutability":"payable","type":"function"},{"inputs":[{"internalType":"bytes32","name":"role","type":"bytes32"}],"name":"getRoleAdmin","outputs":[{"internalType":"bytes32","name":"","type":"bytes32"}],"stateMutability":"view","type":"function"},{"inputs":[{"internalType":"address","name":"account","type":"address"},{"internalType":"uint256","name":"timepoint","type":"uint256"}],"name":"getVotes","outputs":[{"internalType":"uint256","name":"","type":"uint256"}],"stateMutability":"view","type":"function"},{"inputs":[{"internalType":"address","name":"account","type":"address"},{"internalType":"uint256","name":"timepoint","type":"uint256"},{"internalType":"bytes","name":"params","type":"bytes"}],"name":"getVotesWithParams","outputs":[{"internalType":"uint256","name":"","type":"uint256"}],"stateMutability":"view","type":"function"},{"inputs":[{"internalType":"bytes32","name":"role","type":"bytes32"},{"internalType":"address","name":"account","type":"address"}],"name":"grantRole","outputs":[],"stateMutability":"nonpayable","type":"function"},{"inputs":[{"internalType":"bytes32","name":"role","type":"bytes32"},{"internalType":"address","name":"account","type":"address"}],"name":"hasRole","outputs":[{"internalType":"bool","name":"","type":"bool"}],"stateMutability":"view","type":"function"},{"inputs":[{"internalType":"uint256","name":"proposalId","type":"uint256"},{"internalType":"address","name":"account","type":"address"}],"name":"hasVoted","outputs":[{"internalType":"bool","name":"","type":"bool"}],"stateMutability":"view","type":"function"},{"inputs":[{"internalType":"address[]","name":"targets","type":"address[]"},{"internalType":"uint256[]","name":"values","type":"uint256[]"},{"internalType":"bytes[]","name":"calldatas","type":"bytes[]"},{"internalType":"bytes32","name":"descriptionHash","type":"bytes32"}],"name":"hashProposal","outputs":[{"internalType":"uint256","name":"","type":"uint256"}],"stateMutability":"pure","type":"function"},{"inputs":[],"name":"name","outputs":[{"internalType":"string","name":"","type":"string"}],"stateMutability":"view","type":"function"},{"inputs":[{"internalType":"address","name":"","type":"address"},{"internalType":"address","name":"","type":"address"},{"internalType":"uint256[]","name":"","type":"uint256[]"},{"internalType":"uint256[]","name":"","type":"uint256[]"},{"internalType":"bytes","name":"","type":"bytes"}],"name":"onERC1155BatchReceived","outputs":[{"internalType":"bytes4","name":"","type":"bytes4"}],"stateMutability":"nonpayable","type":"function"},{"inputs":[{"internalType":"address","name":"","type":"address"},{"internalType":"address","name":"","type":"address"},{"internalType":"uint256","name":"","type":"uint256"},{"internalType":"uint256","name":"","type":"uint256"},{"internalType":"bytes","name":"","type":"bytes"}],"name":"onERC1155Received","outputs":[{"internalType":"bytes4","name":"","type":"bytes4"}],"stateMutability":"nonpayable","type":"function"},{"inputs":[{"internalType":"address","name":"","type":"address"},{"internalType":"address","name":"","type":"address"},{"internalType":"uint256","name":"","type":"uint256"},{"internalType":"bytes","name":"","type":"bytes"}],"name":"onERC721Received","outputs":[{"internalType":"bytes4","name":"","type":"bytes4"}],"stateMutability":"nonpayable","type":"function"},{"inputs":[{"internalType":"uint256","name":"proposalId","type":"uint256"}],"name":"proposalDeadline","outputs":[{"internalType":"uint256","name":"","type":"uint256"}],"stateMutability":"view","type":"function"},{"inputs":[{"internalType":"uint256","name":"proposalId","type":"uint256"}],"name":"proposalProposer","outputs":[{"internalType":"address","name":"","type":"address"}],"stateMutability":"view","type":"function"},{"inputs":[{"internalType":"uint256","name":"proposalId","type":"uint256"}],"name":"proposalSnapshot","outputs":[{"internalType":"uint256","name":"","type":"uint256"}],"stateMutability":"view","type":"function"},{"inputs":[],"name":"proposalThreshold","outputs":[{"internalType":"uint256","name":"","type":"uint256"}],"stateMutability":"view","type":"function"},{"inputs":[{"internalType":"uint256","name":"proposalId","type":"uint256"}],"name":"proposalVotes","outputs":[{"internalType":"uint256","name":"againstVotes","type":"uint256"},{"internalType":"uint256","name":"forVotes","type":"uint256"},{"internalType":"uint256","name":"abstainVotes","type":"uint256"}],"stateMutability":"view","type":"function"},{"inputs":[{"internalType":"address[]","name":"targets","type":"address[]"},{"internalType":"uint256[]","name":"values","type":"uint256[]"},{"internalType":"bytes[]","name":"calldatas","type":"bytes[]"},{"internalType":"string","name":"description","type":"string"}],"name":"propose","outputs":[{"internalType":"uint256","name":"","type":"uint256"}],"stateMutability":"nonpayable","type":"function"},{"inputs":[{"internalType":"uint256","name":"blockNumber","type":"uint256"}],"name":"quorum","outputs":[{"internalType":"uint256","name":"","type":"uint256"}],"stateMutability":"view","type":"function"},{"inputs":[],"name":"quorumDenominator","outputs":[{"internalType":"uint256","name":"","type":"uint256"}],"stateMutability":"view","type":"function"},{"inputs":[{"internalType":"uint256","name":"timepoint","type":"uint256"}],"name":"quorumNumerator","outputs":[{"internalType":"uint256","name":"","type":"uint256"}],"stateMutability":"view","type":"function"},{"inputs":[],"name":"quorumNumerator","outputs":[{"internalType":"uint256","name":"","type":"uint256"}],"stateMutability":"view","type":"function"},{"inputs":[{"internalType":"address","name":"target","type":"address"},{"internalType":"uint256","name":"value","type":"uint256"},{"internalType":"bytes","name":"data","type":"bytes"}],"name":"relay","outputs":[],"stateMutability":"payable","type":"function"},{"inputs":[{"internalType":"bytes32","name":"role","type":"bytes32"},{"internalType":"address","name":"account","type":"address"}],"name":"renounceRole","outputs":[],"stateMutability":"nonpayable","type":"function"},{"inputs":[{"internalType":"bytes32","name":"role","type":"bytes32"},{"internalType":"address","name":"account","type":"address"}],"name":"revokeRole","outputs":[],"stateMutability":"nonpayable","type":"function"},{"inputs":[{"internalType":"uint256","name":"newProposalThreshold","type":"uint256"}],"name":"setProposalThreshold","outputs":[],"stateMutability":"nonpayable","type":"function"},{"inputs":[{"internalType":"uint256","name":"newVotingDelay","type":"uint256"}],"name":"setVotingDelay","outputs":[],"stateMutability":"nonpayable","type":"function"},{"inputs":[{"internalType":"uint256","name":"newVotingPeriod","type":"uint256"}],"name":"setVotingPeriod","outputs":[],"stateMutability":"nonpayable","type":"function"},{"inputs":[{"internalType":"uint256","name":"","type":"uint256"}],"name":"spaces","outputs":[{"internalType":"string","name":"name","type":"string"},{"internalType":"string","name":"description","type":"string"},{"internalType":"uint256","name":"reservationValue","type":"uint256"},{"internalType":"enum SinDAO.SpaceStatusEnum","name":"status","type":"uint8"}],"stateMutability":"view","type":"function"},{"inputs":[{"internalType":"uint256","name":"proposalId","type":"uint256"}],"name":"state","outputs":[{"internalType":"enum IGovernor.ProposalState","name":"","type":"uint8"}],"stateMutability":"view","type":"function"},{"inputs":[{"internalType":"bytes4","name":"interfaceId","type":"bytes4"}],"name":"supportsInterface","outputs":[{"internalType":"bool","name":"","type":"bool"}],"stateMutability":"view","type":"function"},{"inputs":[],"name":"token","outputs":[{"internalType":"contract IERC5805","name":"","type":"address"}],"stateMutability":"view","type":"function"},{"inputs":[{"internalType":"uint256","name":"newQuorumNumerator","type":"uint256"}],"name":"updateQuorumNumerator","outputs":[],"stateMutability":"nonpayable","type":"function"},{"inputs":[{"internalType":"address","name":"","type":"address"}],"name":"users","outputs":[{"internalType":"string","name":"name","type":"string"},{"internalType":"bool","name":"active","type":"bool"},{"internalType":"bool","name":"canInteract","type":"bool"}],"stateMutability":"view","type":"function"},{"inputs":[],"name":"version","outputs":[{"internalType":"string","name":"","type":"string"}],"stateMutability":"view","type":"function"},{"inputs":[],"name":"votingDelay","outputs":[{"internalType":"uint256","name":"","type":"uint256"}],"stateMutability":"view","type":"function"},{"inputs":[],"name":"votingPeriod","outputs":[{"internalType":"uint256","name":"","type":"uint256"}],"stateMutability":"view","type":"function"},{"stateMutability":"payable","type":"receive"}],"evm":{"bytecode":{"linkReferences":{},"object":"6101806040523480156200001257600080fd5b506040516200570c3803806200570c833981016040819052620000359162000aa9565b600481611c2061c4e060006040518060400160405280600681526020016553696e44414f60d01b8152508062000070620001a860201b60201c565b6200008b600083620001c360201b62001fbc1790919060201c565b61012052620000a8816001620001c3602090811b62001fbc17901c565b61014052815160208084019190912060e052815190820120610100524660a0526200013660e05161010051604080517f8b73c3c69bb8fe3d512ecc4cf759cc79239f7b179b0ffacaa9a75d522b39400f60208201529081019290925260608201524660808201523060a082015260009060c00160405160208183030381529060405280519060200120905090565b60805250503060c05280516200015490600290602084019062000a0d565b506200016290508362000217565b6200016d8262000258565b6200017881620002ff565b5050506001600160a01b031661016052620001938162000340565b50620001a1600033620004f5565b5062000bdb565b6040805180820190915260018152603160f81b602082015290565b6000602083511015620001e357620001db836200059a565b905062000211565b82620001fa83620005dd60201b62001ff31760201c565b81516200020b926020019062000a0d565b5060ff90505b92915050565b60065460408051918252602082018390527fc565b045403dc03c2eea82b81a0465edad9e2e7fc4d97e11421c209da93d7a93910160405180910390a1600655565b60008111620002be5760405162461bcd60e51b815260206004820152602760248201527f476f7665726e6f7253657474696e67733a20766f74696e6720706572696f6420604482015266746f6f206c6f7760c81b60648201526084015b60405180910390fd5b60075460408051918252602082018390527f7e3f7f0708a84de9203036abaa450dccc85ad5ff52f78c170f3edb55cf5e8828910160405180910390a1600755565b60085460408051918252602082018390527fccb45da8d5717e6c4544694297c4ba5cf151d455c9bb0ed4fc7a38411bc05461910160405180910390a1600855565b6064811115620003c55760405162461bcd60e51b815260206004820152604360248201527f476f7665726e6f72566f74657351756f72756d4672616374696f6e3a2071756f60448201527f72756d4e756d657261746f72206f7665722071756f72756d44656e6f6d696e616064820152623a37b960e91b608482015260a401620002b5565b6000620003d1620005e0565b90508015801590620003e35750600b54155b156200045e57600b6000016040518060400160405280600063ffffffff1681526020016200041c846200061a60201b62001ff61760201c565b6001600160e01b0390811690915282546001810184556000938452602093849020835194909301519091166401000000000263ffffffff909316929092179101555b620004b6620004896200047062000689565b65ffffffffffff166200071b60201b620020631760201c565b6200049f846200061a60201b62001ff61760201c565b600b6200078260201b620020c8179092919060201c565b505060408051828152602081018490527f0553476bf02ef2726e8ce5ced78d63e26e602e4a2257b1f559418e24b4633997910160405180910390a15050565b6000828152600c602090815260408083206001600160a01b038516845290915290205460ff1662000596576000828152600c602090815260408083206001600160a01b03851684529091529020805460ff19166001179055620005553390565b6001600160a01b0316816001600160a01b0316837f2f8788117e7eff1d82e926ec794901d17c78024a50270940304540a733656f0d60405160405180910390a45b5050565b600080829050601f81511115620005c8578260405163305a27a960e01b8152600401620002b5919062000ad4565b8051620005d58262000b2c565b179392505050565b90565b600b5460009015620006115762000603600b6200079f60201b620020e31760201c565b6001600160e01b0316905090565b600a545b905090565b60006001600160e01b03821115620006855760405162461bcd60e51b815260206004820152602760248201527f53616665436173743a2076616c756520646f65736e27742066697420696e20326044820152663234206269747360c81b6064820152608401620002b5565b5090565b6000610160516001600160a01b03166391ddadf46040518163ffffffff1660e01b815260040160206040518083038186803b158015620006c857600080fd5b505afa925050508015620006fb575060408051601f3d908101601f19168201909252620006f89181019062000b54565b60015b62000716576200061543620007ed60201b6200212a1760201c565b919050565b600063ffffffff821115620006855760405162461bcd60e51b815260206004820152602660248201527f53616665436173743a2076616c756520646f65736e27742066697420696e203360448201526532206269747360d01b6064820152608401620002b5565b6000806200079285858562000856565b915091505b935093915050565b80546000908015620007e357620007cb83620007bd60018462000b7e565b600091825260209091200190565b5464010000000090046001600160e01b0316620007e6565b60005b9392505050565b600065ffffffffffff821115620006855760405162461bcd60e51b815260206004820152602660248201527f53616665436173743a2076616c756520646f65736e27742066697420696e203460448201526538206269747360d01b6064820152608401620002b5565b825460009081908015620009b25760006200087887620007bd60018562000b7e565b60408051808201909152905463ffffffff8082168084526401000000009092046001600160e01b031660208401529192509087161015620008fc5760405162461bcd60e51b815260206004820152601b60248201527f436865636b706f696e743a2064656372656173696e67206b65797300000000006044820152606401620002b5565b8563ffffffff16816000015163ffffffff1614156200095157846200092888620007bd60018662000b7e565b80546001600160e01b03929092166401000000000263ffffffff909216919091179055620009a1565b6040805180820190915263ffffffff80881682526001600160e01b0380881660208085019182528b54600181018d5560008d81529190912094519151909216640100000000029216919091179101555b602001519250839150620007979050565b50506040805180820190915263ffffffff80851682526001600160e01b0380851660208085019182528854600181018a5560008a81529182209551925190931664010000000002919093161792019190915590508162000797565b82805462000a1b9062000ba4565b90600052602060002090601f01602090048101928262000a3f576000855562000a8a565b82601f1062000a5a57805160ff191683800117855562000a8a565b8280016001018555821562000a8a579182015b8281111562000a8a57825182559160200191906001019062000a6d565b50620006859291505b8082111562000685576000815560010162000a93565b60006020828403121562000abc57600080fd5b81516001600160a01b0381168114620007e657600080fd5b600060208083528351808285015260005b8181101562000b035785810183015185820160400152820162000ae5565b8181111562000b16576000604083870101525b50601f01601f1916929092016040019392505050565b8051602080830151919081101562000b4e576000198160200360031b1b821691505b50919050565b60006020828403121562000b6757600080fd5b815165ffffffffffff81168114620007e657600080fd5b60008282101562000b9f57634e487b7160e01b600052601160045260246000fd5b500390565b600181811c9082168062000bb957607f821691505b6020821081141562000b4e57634e487b7160e01b600052602260045260246000fd5b60805160a05160c05160e05161010051610120516101405161016051614aaf62000c5d60003960008181610cbd0152818161144d01528181611c3d01528181612b6c0152612d0601526000611bbe01526000611b94015260006130f6015260006130ce01526000613029015260006130530152600061307d0152614aaf6000f3fe60806040526004361061037a5760003560e01c806360c4247f116101d1578063a87430ba11610102578063dd4e2ba5116100a0578063ece40cc11161006f578063ece40cc114610c3f578063f23a6e6114610c5f578063f8ce560a14610c8b578063fc0c546a14610cab57600080fd5b8063dd4e2ba514610b85578063deaaa7cc14610bcb578063ea0217cf14610bff578063eb9019d414610c1f57600080fd5b8063c01f9e37116100dc578063c01f9e3714610af9578063c28bc2fa14610b32578063c59057e414610b45578063d547741f14610b6557600080fd5b8063a87430ba14610a89578063b58131b014610ab8578063bc197c8114610acd57600080fd5b806391d148541161016f5780639a802a6d116101495780639a802a6d14610a1f578063a217fddf14610a3f578063a71e9a9c14610a54578063a7713a7014610a7457600080fd5b806391d14854146109bf57806391ddadf4146109df57806397c3d33414610a0b57600080fd5b8063797669c9116101ab578063797669c9146109235780637b3c71d3146109575780637d5e81e21461097757806384b0196e1461099757600080fd5b806360c4247f146108b357806370b0f660146108d35780637586353b146108f357600080fd5b80632fe3e261116102ab5780634385963211610249578063544ffc9c11610223578063544ffc9c146107f457806354fd4d501461084957806356781388146108735780635f398a141461089357600080fd5b80634385963214610775578063452115d6146107bf5780634bf5d7e9146107df57600080fd5b80633bccf4fd116102855780633bccf4fd1461067e5780633e4f49e61461069e5780633ef4cc8b146106cb57806340dd07b91461072757600080fd5b80632fe3e2611461061557806336568abe146106495780633932abb11461066957600080fd5b8063143489d0116103185780632656227d116102f25780632656227d1461057c57806328bdcde81461058f5780632d63f693146105bf5780632f2ff15d146105f557600080fd5b8063143489d0146104b3578063150b7a0214610508578063248a9ca31461054c57600080fd5b80630342018111610354578063034201811461041d57806306f3f9e61461043d57806306fdde031461045d578063131191611461047f57600080fd5b806301ffc9a71461039157806302a251a3146103c6578063033e6f4d146103e957600080fd5b3661038c57005b60405180910390fd5b005b600080fd5b34801561039d57600080fd5b506103b16103ac366004613a43565b610cdf565b60405190151581526020015b60405180910390f35b3480156103d257600080fd5b506103db610cf0565b6040519081526020016103bd565b3480156103f557600080fd5b506103db7f53b89ac75efe2c37162cd6795f5bf8b9c749f1d0387576893c1d2d0c23a326f381565b34801561042957600080fd5b506103db610438366004613b91565b610d00565b34801561044957600080fd5b5061038a610458366004613c37565b610df8565b34801561046957600080fd5b50610472610e3f565b6040516103bd9190613cac565b34801561048b57600080fd5b506103db7f14823911f2da1b49f045a0929a60b8c1f2a7fc8c06c7284ca3e8ab4e193a08c881565b3480156104bf57600080fd5b506104f06104ce366004613c37565b600090815260036020526040902054600160401b90046001600160a01b031690565b6040516001600160a01b0390911681526020016103bd565b34801561051457600080fd5b50610533610523366004613cd6565b630a85bd0160e11b949350505050565b6040516001600160e01b031990911681526020016103bd565b34801561055857600080fd5b506103db610567366004613c37565b6000908152600c602052604090206001015490565b6103db61058a366004613ea7565b610ed1565b34801561059b57600080fd5b506105af6105aa366004613c37565b610ffd565b6040516103bd9493929190613f36565b3480156105cb57600080fd5b506103db6105da366004613c37565b6000908152600360205260409020546001600160401b031690565b34801561060157600080fd5b5061038a610610366004613f6f565b6110d2565b34801561062157600080fd5b506103db7fb3b3f3b703cd84ce352197dcff232b1b5d3cfb2025ce47cf04742d0651f1af8881565b34801561065557600080fd5b5061038a610664366004613f6f565b6110fc565b34801561067557600080fd5b506103db61117a565b34801561068a57600080fd5b506103db610699366004613f9b565b611185565b3480156106aa57600080fd5b506106be6106b9366004613c37565b6111fb565b6040516103bd9190613fff565b3480156106d757600080fd5b506107196106e6366004614019565b601260209081526000928352604080842090915290825290206001015460ff81169061010090046001600160a01b031682565b6040516103bd92919061404b565b34801561073357600080fd5b50610719610742366004614019565b601360209081526000928352604080842090915290825290206001015460ff81169061010090046001600160a01b031682565b34801561078157600080fd5b506103b1610790366004613f6f565b60008281526009602090815260408083206001600160a01b038516845260030190915290205460ff1692915050565b3480156107cb57600080fd5b506103db6107da366004613ea7565b611338565b3480156107eb57600080fd5b50610472611449565b34801561080057600080fd5b5061082e61080f366004613c37565b6000908152600960205260409020805460018201546002909201549092565b604080519384526020840192909252908201526060016103bd565b34801561085557600080fd5b506040805180820190915260018152603160f81b6020820152610472565b34801561087f57600080fd5b506103db61088e366004614070565b61151a565b34801561089f57600080fd5b506103db6108ae366004614093565b611543565b3480156108bf57600080fd5b506103db6108ce366004613c37565b61158d565b3480156108df57600080fd5b5061038a6108ee366004613c37565b61163c565b3480156108ff57600080fd5b5061091361090e366004613c37565b611680565b6040516103bd9493929190614116565b34801561092f57600080fd5b506103db7f71f3d55856e4058ed06ee057d79ada615f65cdf5f9ee88181b914225088f834f81565b34801561096357600080fd5b506103db61097236600461415c565b6117bc565b34801561098357600080fd5b506103db6109923660046141b5565b611804565b3480156109a357600080fd5b506109ac611b86565b6040516103bd97969594939291906142a4565b3480156109cb57600080fd5b506103b16109da366004613f6f565b611c0e565b3480156109eb57600080fd5b506109f4611c39565b60405165ffffffffffff90911681526020016103bd565b348015610a1757600080fd5b5060646103db565b348015610a2b57600080fd5b506103db610a3a366004614306565b611cd1565b348015610a4b57600080fd5b506103db600081565b348015610a6057600080fd5b506105af610a6f366004613c37565b611ce8565b348015610a8057600080fd5b506103db611cf8565b348015610a9557600080fd5b50610aa9610aa436600461435c565b611d22565b6040516103bd93929190614377565b348015610ac457600080fd5b506103db611dd2565b348015610ad957600080fd5b50610533610ae83660046143a1565b63bc197c8160e01b95945050505050565b348015610b0557600080fd5b506103db610b14366004613c37565b6000908152600360205260409020600101546001600160401b031690565b61038a610b40366004614430565b611ddd565b348015610b5157600080fd5b506103db610b60366004613ea7565b611ea9565b348015610b7157600080fd5b5061038a610b80366004613f6f565b611ee3565b348015610b9157600080fd5b506040805180820190915260208082527f737570706f72743d627261766f2671756f72756d3d666f722c6162737461696e90820152610472565b348015610bd757600080fd5b506103db7f150214d74d59b7d1e90c73fc22ef3d991dd0a76b046543d4d80ab92d2a50328f81565b348015610c0b57600080fd5b5061038a610c1a366004613c37565b611f08565b348015610c2b57600080fd5b506103db610c3a366004614471565b611f4c565b348015610c4b57600080fd5b5061038a610c5a366004613c37565b611f6d565b348015610c6b57600080fd5b50610533610c7a36600461449b565b63f23a6e6160e01b95945050505050565b348015610c9757600080fd5b506103db610ca6366004613c37565b611fb1565b348015610cb757600080fd5b506104f07f000000000000000000000000000000000000000000000000000000000000000081565b6000610cea82612191565b92915050565b6000610cfb60075490565b905090565b600080610da4610d9c7fb3b3f3b703cd84ce352197dcff232b1b5d3cfb2025ce47cf04742d0651f1af888c8c8c8c604051610d3c9291906144ff565b60405180910390208b80519060200120604051602001610d81959493929190948552602085019390935260ff9190911660408401526060830152608082015260a00190565b604051602081830303815290604052805190602001206121b6565b8686866121e3565b9050610dea8a828b8b8b8080601f0160208091040260200160405190810160405280939291908181526020018383808284376000920191909152508d9250612201915050565b9a9950505050505050505050565b333014610e175760405162461bcd60e51b81526004016103819061450f565b610e33565b80610e276004612353565b14610e3157610e1c565b505b610e3c816123d2565b50565b606060028054610e4e90614546565b80601f0160208091040260200160405190810160405280929190818152602001828054610e7a90614546565b8015610ec75780601f10610e9c57610100808354040283529160200191610ec7565b820191906000526020600020905b815481529060010190602001808311610eaa57829003601f168201915b5050505050905090565b600080610ee086868686611ea9565b90506000610eed826111fb565b90506004816007811115610f0357610f03613fe9565b1480610f2057506005816007811115610f1e57610f1e613fe9565b145b610f765760405162461bcd60e51b815260206004820152602160248201527f476f7665726e6f723a2070726f706f73616c206e6f74207375636365737366756044820152601b60fa1b6064820152608401610381565b60008281526003602052604090819020600201805460ff19166001179055517f712ae1383f79ac853f8d882153778e0260ef8f03b504e2866e0593e04d2b291f90610fc49084815260200190565b60405180910390a1610fd98288888888612540565b610fe682888888886125ce565b610ff38288888888612540565b5095945050505050565b600d818154811061100d57600080fd5b906000526020600020906004020160009150905080600001805461103090614546565b80601f016020809104026020016040519081016040528092919081815260200182805461105c90614546565b80156110a95780601f1061107e576101008083540402835291602001916110a9565b820191906000526020600020905b81548152906001019060200180831161108c57829003601f168201915b5050505060018301546002840154600390940154929390926001600160a01b0391821692501684565b6000828152600c60205260409020600101546110ed816126c4565b6110f783836126ce565b505050565b6001600160a01b038116331461116c5760405162461bcd60e51b815260206004820152602f60248201527f416363657373436f6e74726f6c3a2063616e206f6e6c792072656e6f756e636560448201526e103937b632b9903337b91039b2b63360891b6064820152608401610381565b6111768282612754565b5050565b6000610cfb60065490565b604080517f150214d74d59b7d1e90c73fc22ef3d991dd0a76b046543d4d80ab92d2a50328f602082015290810186905260ff8516606082015260009081906111d390610d9c90608001610d81565b90506111f0878288604051806020016040528060008152506127bb565b979650505050505050565b6000818152600360205260408120600281015460ff161561121f5750600792915050565b6002810154610100900460ff161561123a5750600292915050565b6000838152600360205260409020546001600160401b03168061129f5760405162461bcd60e51b815260206004820152601d60248201527f476f7665726e6f723a20756e6b6e6f776e2070726f706f73616c2069640000006044820152606401610381565b60006112a9611c39565b65ffffffffffff1690508082106112c557506000949350505050565b6000858152600360205260409020600101546001600160401b03168181106112f35750600195945050505050565b6112fc866127e7565b801561131b575060008681526009602052604090208054600190910154115b1561132c5750600495945050505050565b50600395945050505050565b60008061134786868686611ea9565b90506000611354826111fb565b600781111561136557611365613fe9565b146113b25760405162461bcd60e51b815260206004820152601c60248201527f476f7665726e6f723a20746f6f206c61746520746f2063616e63656c000000006044820152606401610381565b600081815260036020526040902054600160401b90046001600160a01b0316336001600160a01b0316146114335760405162461bcd60e51b815260206004820152602260248201527f476f7665726e6f723a206f6e6c792070726f706f7365722063616e2063616e63604482015261195b60f21b6064820152608401610381565b61143f86868686612833565b9695505050505050565b60607f00000000000000000000000000000000000000000000000000000000000000006001600160a01b0316634bf5d7e96040518163ffffffff1660e01b815260040160006040518083038186803b1580156114a457600080fd5b505afa9250505080156114d957506040513d6000823e601f3d908101601f191682016040526114d69190810190614581565b60015b611515575060408051808201909152601d81527f6d6f64653d626c6f636b6e756d6265722666726f6d3d64656661756c74000000602082015290565b919050565b60008033905061153b848285604051806020016040528060008152506127bb565b949350505050565b6000803390506111f087828888888080601f0160208091040260200160405190810160405280939291908181526020018383808284376000920191909152508a9250612201915050565b600b54600090806115a2575050600a54919050565b6000600b6115b1600184614604565b815481106115c1576115c161461b565b60009182526020918290206040805180820190915291015463ffffffff8116808352600160201b9091046001600160e01b0316928201929092529150841061161757602001516001600160e01b03169392505050565b61162b61162385612063565b600b90612951565b6001600160e01b0316949350505050565b33301461165b5760405162461bcd60e51b81526004016103819061450f565b611677565b8061166b6004612353565b1461167557611660565b505b610e3c816129f6565b60116020526000908152604090208054819061169b90614546565b80601f01602080910402602001604051908101604052809291908181526020018280546116c790614546565b80156117145780601f106116e957610100808354040283529160200191611714565b820191906000526020600020905b8154815290600101906020018083116116f757829003601f168201915b50505050509080600101805461172990614546565b80601f016020809104026020016040519081016040528092919081815260200182805461175590614546565b80156117a25780601f10611777576101008083540402835291602001916117a2565b820191906000526020600020905b81548152906001019060200180831161178557829003601f168201915b50505050600383015460049093015491929160ff16905084565b60008033905061143f86828787878080601f0160208091040260200160405190810160405280939291908181526020018383808284376000920191909152506127bb92505050565b60003381611810611c39565b65ffffffffffff169050611822611dd2565b61183183610c3a600185614604565b10156118995760405162461bcd60e51b815260206004820152603160248201527f476f7665726e6f723a2070726f706f73657220766f7465732062656c6f7720706044820152701c9bdc1bdcd85b081d1a1c995cda1bdb19607a1b6064820152608401610381565b60006118ae8888888880519060200120611ea9565b905086518851146118d15760405162461bcd60e51b815260040161038190614631565b85518851146118f25760405162461bcd60e51b815260040161038190614631565b60008851116119435760405162461bcd60e51b815260206004820152601860248201527f476f7665726e6f723a20656d7074792070726f706f73616c00000000000000006044820152606401610381565b6000818152600360205260409020546001600160401b0316156119b25760405162461bcd60e51b815260206004820152602160248201527f476f7665726e6f723a2070726f706f73616c20616c72656164792065786973746044820152607360f81b6064820152608401610381565b60006119bc61117a565b6119c69084614672565b905060006119d2610cf0565b6119dc9083614672565b90506040518060e001604052806119f284612a37565b6001600160401b031681526001600160a01b038716602082015260006040820152606001611a1f83612a37565b6001600160401b039081168252600060208084018290526040808501839052606094850183905288835260038252918290208551815492870151878501519186166001600160e01b031990941693909317600160401b6001600160a01b039094168402176001600160e01b0316600160e01b60e09290921c91909102178155938501516080860151908416921c0217600183015560a08301516002909201805460c09094015161ffff1990941692151561ff00191692909217610100931515939093029290921790558a517f7d84a6263ae0d98d3329bd7b46bb4e8d6f98cd35a7adb45c274c8b7fd5ebd5e091859188918e918e91811115611b2357611b23613ac6565b604051908082528060200260200182016040528015611b5657816020015b6060815260200190600190039081611b415790505b508d88888f604051611b709998979695949392919061471b565b60405180910390a1509098975050505050505050565b600060608082808083611bb97f000000000000000000000000000000000000000000000000000000000000000083612a9f565b611be47f00000000000000000000000000000000000000000000000000000000000000006001612a9f565b60408051600080825260208201909252600f60f81b9b939a50919850469750309650945092509050565b6000918252600c602090815260408084206001600160a01b0393909316845291905290205460ff1690565b60007f00000000000000000000000000000000000000000000000000000000000000006001600160a01b03166391ddadf46040518163ffffffff1660e01b815260040160206040518083038186803b158015611c9457600080fd5b505afa925050508015611cc4575060408051601f3d908101601f19168201909252611cc1918101906147f2565b60015b61151557610cfb4361212a565b6000611cde848484612b43565b90505b9392505050565b600e818154811061100d57600080fd5b600b5460009015611d1b57611d0d600b6120e3565b6001600160e01b0316905090565b50600a5490565b600f60205260009081526040902080548190611d3d90614546565b80601f0160208091040260200160405190810160405280929190818152602001828054611d6990614546565b8015611db65780601f10611d8b57610100808354040283529160200191611db6565b820191906000526020600020905b815481529060010190602001808311611d9957829003601f168201915b5050506001909301549192505060ff8082169161010090041683565b6000610cfb60085490565b333014611dfc5760405162461bcd60e51b81526004016103819061450f565b611e18565b80611e0c6004612353565b14611e1657611e01565b505b600080856001600160a01b0316858585604051611e369291906144ff565b60006040518083038185875af1925050503d8060008114611e73576040519150601f19603f3d011682016040523d82523d6000602084013e611e78565b606091505b5091509150611ea08282604051806060016040528060288152602001614a2b60289139612be8565b50505050505050565b600084848484604051602001611ec2949392919061481a565b60408051601f19818403018152919052805160209091012095945050505050565b6000828152600c6020526040902060010154611efe816126c4565b6110f78383612754565b333014611f275760405162461bcd60e51b81526004016103819061450f565b611f43565b80611f376004612353565b14611f4157611f2c565b505b610e3c81612c01565b6000611ce18383611f6860408051602081019091526000815290565b612b43565b333014611f8c5760405162461bcd60e51b81526004016103819061450f565b611fa8565b80611f9c6004612353565b14611fa657611f91565b505b610e3c81612ca2565b6000610cea82612ce3565b6000602083511015611fd857611fd183612d9c565b9050610cea565b82828151611fe992602001906139b3565b5060ff9050610cea565b90565b60006001600160e01b0382111561205f5760405162461bcd60e51b815260206004820152602760248201527f53616665436173743a2076616c756520646f65736e27742066697420696e20326044820152663234206269747360c81b6064820152608401610381565b5090565b600063ffffffff82111561205f5760405162461bcd60e51b815260206004820152602660248201527f53616665436173743a2076616c756520646f65736e27742066697420696e203360448201526532206269747360d01b6064820152608401610381565b6000806120d6858585612dda565b915091505b935093915050565b805460009080156121215761210b836120fd600184614604565b600091825260209091200190565b54600160201b90046001600160e01b0316611ce1565b60009392505050565b600065ffffffffffff82111561205f5760405162461bcd60e51b815260206004820152602660248201527f53616665436173743a2076616c756520646f65736e27742066697420696e203460448201526538206269747360d01b6064820152608401610381565b60006001600160e01b03198216637965db0b60e01b1480610cea5750610cea82612f80565b6000610cea6121c361301c565b8360405161190160f01b8152600281019290925260228201526042902090565b60008060006121f487878787613147565b91509150610ff38161320b565b6000858152600360205260408120600161221a886111fb565b600781111561222b5761222b613fe9565b146122845760405162461bcd60e51b815260206004820152602360248201527f476f7665726e6f723a20766f7465206e6f742063757272656e746c792061637460448201526269766560e81b6064820152608401610381565b805460009061229e9088906001600160401b031686612b43565b90506122ad8888888488613359565b83516122ff57866001600160a01b03167fb8e138887d0aa13bab447e82de9d5c1777041ecd21ca36ba824ff1e6c07ddda4898884896040516122f29493929190614865565b60405180910390a26111f0565b866001600160a01b03167fe2babfbac5889a709b63bb7f598b324e08bc5a4fb9ec647fb3cbc9ec07eb8712898884898960405161234095949392919061488d565b60405180910390a2979650505050505050565b600061236e8254600f81810b600160801b909204900b131590565b1561238c57604051631ed9509560e11b815260040160405180910390fd5b508054600f0b6000818152600180840160205260408220805492905583546fffffffffffffffffffffffffffffffff191692016001600160801b03169190911790915590565b60648111156124555760405162461bcd60e51b815260206004820152604360248201527f476f7665726e6f72566f74657351756f72756d4672616374696f6e3a2071756f60448201527f72756d4e756d657261746f72206f7665722071756f72756d44656e6f6d696e616064820152623a37b960e91b608482015260a401610381565b600061245f611cf8565b905080158015906124705750600b54155b156124d4576040805180820190915260008152600b906020810161249384611ff6565b6001600160e01b039081169091528254600181018455600093845260209384902083519490930151909116600160201b0263ffffffff909316929092179101555b6125016124ef6124e2611c39565b65ffffffffffff16612063565b6124f884611ff6565b600b91906120c8565b505060408051828152602081018490527f0553476bf02ef2726e8ce5ced78d63e26e602e4a2257b1f559418e24b4633997910160405180910390a15050565b6125c7565b84518110156125c557306001600160a01b031685828151811061256a5761256a61461b565b60200260200101516001600160a01b031614156125b5576125b58382815181106125965761259661461b565b60200260200101518051906020012060046134d890919063ffffffff16565b6125be816148d3565b9050612545565b505b5050505050565b6000604051806060016040528060278152602001614a5360279139905060005b8551811015611ea05760008087838151811061260c5761260c61461b565b60200260200101516001600160a01b031687848151811061262f5761262f61461b565b60200260200101518785815181106126495761264961461b565b602002602001015160405161265e91906148ee565b60006040518083038185875af1925050503d806000811461269b576040519150601f19603f3d011682016040523d82523d6000602084013e6126a0565b606091505b50915091506126b0828286612be8565b505050806126bd906148d3565b90506125ee565b610e3c8133613514565b6126d88282611c0e565b611176576000828152600c602090815260408083206001600160a01b03851684529091529020805460ff191660011790556127103390565b6001600160a01b0316816001600160a01b0316837f2f8788117e7eff1d82e926ec794901d17c78024a50270940304540a733656f0d60405160405180910390a45050565b61275e8282611c0e565b15611176576000828152600c602090815260408083206001600160a01b0385168085529252808320805460ff1916905551339285917ff6391f5c32d9c69d2a47ea670b442974b53935d1edc7fd64eb21e047a839171b9190a45050565b60006127de858585856127d960408051602081019091526000815290565b612201565b95945050505050565b6000818152600960205260408120600281015460018201546128099190614672565b60008481526003602052604090205461282a906001600160401b0316611fb1565b11159392505050565b60008061284286868686611ea9565b9050600061284f826111fb565b9050600281600781111561286557612865613fe9565b141580156128855750600681600781111561288257612882613fe9565b14155b80156128a3575060078160078111156128a0576128a0613fe9565b14155b6128ef5760405162461bcd60e51b815260206004820152601d60248201527f476f7665726e6f723a2070726f706f73616c206e6f74206163746976650000006044820152606401610381565b60008281526003602052604090819020600201805461ff001916610100179055517f789cf55be980739dad1d0699b93b58e806b51c9d96619bfa8fe0a28abaa7b30c9061293f9084815260200190565b60405180910390a15095945050505050565b8154600090818160058111156129ae57600061296c8461356d565b6129769085614604565b60008881526020902090915081015463ffffffff908116908716101561299e578091506129ac565b6129a9816001614672565b92505b505b60006129bc87878585613652565b905080156129e9576129d3876120fd600184614604565b54600160201b90046001600160e01b03166111f0565b6000979650505050505050565b60065460408051918252602082018390527fc565b045403dc03c2eea82b81a0465edad9e2e7fc4d97e11421c209da93d7a93910160405180910390a1600655565b60006001600160401b0382111561205f5760405162461bcd60e51b815260206004820152602660248201527f53616665436173743a2076616c756520646f65736e27742066697420696e203660448201526534206269747360d01b6064820152608401610381565b606060ff8314612ab257611fd1836136b0565b818054612abe90614546565b80601f0160208091040260200160405190810160405280929190818152602001828054612aea90614546565b8015612b375780601f10612b0c57610100808354040283529160200191612b37565b820191906000526020600020905b815481529060010190602001808311612b1a57829003601f168201915b50505050509050610cea565b604051630748d63560e31b81526001600160a01b038481166004830152602482018490526000917f000000000000000000000000000000000000000000000000000000000000000090911690633a46b1a89060440160206040518083038186803b158015612bb057600080fd5b505afa158015612bc4573d6000803e3d6000fd5b505050506040513d601f19601f82011682018060405250810190611cde919061490a565b60608315612bf7575081611ce1565b611ce183836136ef565b60008111612c615760405162461bcd60e51b815260206004820152602760248201527f476f7665726e6f7253657474696e67733a20766f74696e6720706572696f6420604482015266746f6f206c6f7760c81b6064820152608401610381565b60075460408051918252602082018390527f7e3f7f0708a84de9203036abaa450dccc85ad5ff52f78c170f3edb55cf5e8828910160405180910390a1600755565b60085460408051918252602082018390527fccb45da8d5717e6c4544694297c4ba5cf151d455c9bb0ed4fc7a38411bc05461910160405180910390a1600855565b60006064612cf08361158d565b604051632394e7a360e21b8152600481018590527f00000000000000000000000000000000000000000000000000000000000000006001600160a01b031690638e539e8c9060240160206040518083038186803b158015612d5057600080fd5b505afa158015612d64573d6000803e3d6000fd5b505050506040513d601f19601f82011682018060405250810190612d88919061490a565b612d929190614923565b610cea9190614958565b600080829050601f81511115612dc7578260405163305a27a960e01b81526004016103819190613cac565b8051612dd28261497a565b179392505050565b825460009081908015612f27576000612df8876120fd600185614604565b60408051808201909152905463ffffffff808216808452600160201b9092046001600160e01b031660208401529192509087161015612e795760405162461bcd60e51b815260206004820152601b60248201527f436865636b706f696e743a2064656372656173696e67206b65797300000000006044820152606401610381565b8563ffffffff16816000015163ffffffff161415612ec85784612ea1886120fd600186614604565b80546001600160e01b0392909216600160201b0263ffffffff909216919091179055612f17565b6040805180820190915263ffffffff80881682526001600160e01b0380881660208085019182528b54600181018d5560008d81529190912094519151909216600160201b029216919091179101555b6020015192508391506120db9050565b50506040805180820190915263ffffffff80851682526001600160e01b0380851660208085019182528854600181018a5560008a815291822095519251909316600160201b0291909316179201919091559050816120db565b600063288ace0360e11b6318df743f60e31b63bf26d89760e01b6379dd796f60e01b6001600160e01b03198616821480612fc657506001600160e01b0319868116908216145b80612fdd57506001600160e01b0319868116908516145b80612ff857506001600160e01b03198616630271189760e51b145b8061143f57506301ffc9a760e01b6001600160e01b03198716149695505050505050565b6000306001600160a01b037f00000000000000000000000000000000000000000000000000000000000000001614801561307557507f000000000000000000000000000000000000000000000000000000000000000046145b1561309f57507f000000000000000000000000000000000000000000000000000000000000000090565b610cfb604080517f8b73c3c69bb8fe3d512ecc4cf759cc79239f7b179b0ffacaa9a75d522b39400f60208201527f0000000000000000000000000000000000000000000000000000000000000000918101919091527f000000000000000000000000000000000000000000000000000000000000000060608201524660808201523060a082015260009060c00160405160208183030381529060405280519060200120905090565b6000807f7fffffffffffffffffffffffffffffff5d576e7357a4501ddfe92f46681b20a083111561317e5750600090506003613202565b6040805160008082526020820180845289905260ff881692820192909252606081018690526080810185905260019060a0016020604051602081039080840390855afa1580156131d2573d6000803e3d6000fd5b5050604051601f1901519150506001600160a01b0381166131fb57600060019250925050613202565b9150600090505b94509492505050565b600081600481111561321f5761321f613fe9565b14156132285750565b600181600481111561323c5761323c613fe9565b141561328a5760405162461bcd60e51b815260206004820152601860248201527f45434453413a20696e76616c6964207369676e617475726500000000000000006044820152606401610381565b600281600481111561329e5761329e613fe9565b14156132ec5760405162461bcd60e51b815260206004820152601f60248201527f45434453413a20696e76616c6964207369676e6174757265206c656e677468006044820152606401610381565b600381600481111561330057613300613fe9565b1415610e3c5760405162461bcd60e51b815260206004820152602260248201527f45434453413a20696e76616c6964207369676e6174757265202773272076616c604482015261756560f01b6064820152608401610381565b60008581526009602090815260408083206001600160a01b0388168452600381019092529091205460ff16156133e15760405162461bcd60e51b815260206004820152602760248201527f476f7665726e6f72566f74696e6753696d706c653a20766f746520616c726561604482015266191e4818d85cdd60ca1b6064820152608401610381565b6001600160a01b03851660009081526003820160205260408120805460ff1916600117905560ff168460ff16141561343257828160000160008282546134279190614672565b909155506125c59050565b60ff84166001141561345257828160010160008282546134279190614672565b60ff84166002141561347257828160020160008282546134279190614672565b60405162461bcd60e51b815260206004820152603560248201527f476f7665726e6f72566f74696e6753696d706c653a20696e76616c69642076616044820152746c756520666f7220656e756d20566f74655479706560581b6064820152608401610381565b8154600160801b90819004600f0b6000818152600180860160205260409091209390935583546001600160801b03908116939091011602179055565b61351e8282611c0e565b6111765761352b81613719565b61353683602061372b565b60405160200161354792919061499e565b60408051601f198184030181529082905262461bcd60e51b825261038191600401613cac565b60008161357c57506000919050565b60006001613589846138c6565b901c6001901b905060018184816135a2576135a2614942565b048201901c905060018184816135ba576135ba614942565b048201901c905060018184816135d2576135d2614942565b048201901c905060018184816135ea576135ea614942565b048201901c9050600181848161360257613602614942565b048201901c9050600181848161361a5761361a614942565b048201901c9050600181848161363257613632614942565b048201901c9050611ce18182858161364c5761364c614942565b0461395a565b60005b818310156136a85760006136698484613970565b60008781526020902090915063ffffffff86169082015463ffffffff161115613694578092506136a2565b61369f816001614672565b93505b50613655565b509392505050565b606060006136bd8361398b565b604080516020808252818301909252919250600091906020820181803683375050509182525060208101929092525090565b8151156136ff5781518083602001fd5b8060405162461bcd60e51b81526004016103819190613cac565b6060610cea6001600160a01b03831660145b6060600061373a836002614923565b613745906002614672565b6001600160401b0381111561375c5761375c613ac6565b6040519080825280601f01601f191660200182016040528015613786576020820181803683370190505b509050600360fc1b816000815181106137a1576137a161461b565b60200101906001600160f81b031916908160001a905350600f60fb1b816001815181106137d0576137d061461b565b60200101906001600160f81b031916908160001a90535060006137f4846002614923565b6137ff906001614672565b90505b6001811115613877576f181899199a1a9b1b9c1cb0b131b232b360811b85600f16601081106138335761383361461b565b1a60f81b8282815181106138495761384961461b565b60200101906001600160f81b031916908160001a90535060049490941c9361387081614a13565b9050613802565b508315611ce15760405162461bcd60e51b815260206004820181905260248201527f537472696e67733a20686578206c656e67746820696e73756666696369656e746044820152606401610381565b600080608083901c156138db57608092831c92015b604083901c156138ed57604092831c92015b602083901c156138ff57602092831c92015b601083901c1561391157601092831c92015b600883901c1561392357600892831c92015b600483901c1561393557600492831c92015b600283901c1561394757600292831c92015b600183901c15610cea5760010192915050565b60008183106139695781611ce1565b5090919050565b600061397f6002848418614958565b611ce190848416614672565b600060ff8216601f811115610cea57604051632cd44ac360e21b815260040160405180910390fd5b8280546139bf90614546565b90600052602060002090601f0160209004810192826139e15760008555613a27565b82601f106139fa57805160ff1916838001178555613a27565b82800160010185558215613a27579182015b82811115613a27578251825591602001919060010190613a0c565b5061205f9291505b8082111561205f5760008155600101613a2f565b600060208284031215613a5557600080fd5b81356001600160e01b031981168114611ce157600080fd5b803560ff8116811461151557600080fd5b60008083601f840112613a9057600080fd5b5081356001600160401b03811115613aa757600080fd5b602083019150836020828501011115613abf57600080fd5b9250929050565b634e487b7160e01b600052604160045260246000fd5b604051601f8201601f191681016001600160401b0381118282101715613b0457613b04613ac6565b604052919050565b60006001600160401b03821115613b2557613b25613ac6565b50601f01601f191660200190565b6000613b46613b4184613b0c565b613adc565b9050828152838383011115613b5a57600080fd5b828260208301376000602084830101529392505050565b600082601f830112613b8257600080fd5b611ce183833560208501613b33565b60008060008060008060008060e0898b031215613bad57600080fd5b88359750613bbd60208a01613a6d565b965060408901356001600160401b0380821115613bd957600080fd5b613be58c838d01613a7e565b909850965060608b0135915080821115613bfe57600080fd5b50613c0b8b828c01613b71565b945050613c1a60808a01613a6d565b925060a0890135915060c089013590509295985092959890939650565b600060208284031215613c4957600080fd5b5035919050565b60005b83811015613c6b578181015183820152602001613c53565b83811115613c7a576000848401525b50505050565b60008151808452613c98816020860160208601613c50565b601f01601f19169290920160200192915050565b602081526000611ce16020830184613c80565b80356001600160a01b038116811461151557600080fd5b60008060008060808587031215613cec57600080fd5b613cf585613cbf565b9350613d0360208601613cbf565b92506040850135915060608501356001600160401b03811115613d2557600080fd5b613d3187828801613b71565b91505092959194509250565b60006001600160401b03821115613d5657613d56613ac6565b5060051b60200190565b600082601f830112613d7157600080fd5b81356020613d81613b4183613d3d565b82815260059290921b84018101918181019086841115613da057600080fd5b8286015b84811015613dc257613db581613cbf565b8352918301918301613da4565b509695505050505050565b600082601f830112613dde57600080fd5b81356020613dee613b4183613d3d565b82815260059290921b84018101918181019086841115613e0d57600080fd5b8286015b84811015613dc25780358352918301918301613e11565b600082601f830112613e3957600080fd5b81356020613e49613b4183613d3d565b82815260059290921b84018101918181019086841115613e6857600080fd5b8286015b84811015613dc25780356001600160401b03811115613e8b5760008081fd5b613e998986838b0101613b71565b845250918301918301613e6c565b60008060008060808587031215613ebd57600080fd5b84356001600160401b0380821115613ed457600080fd5b613ee088838901613d60565b95506020870135915080821115613ef657600080fd5b613f0288838901613dcd565b94506040870135915080821115613f1857600080fd5b50613f2587828801613e28565b949793965093946060013593505050565b608081526000613f496080830187613c80565b6020830195909552506001600160a01b0392831660408201529116606090910152919050565b60008060408385031215613f8257600080fd5b82359150613f9260208401613cbf565b90509250929050565b600080600080600060a08688031215613fb357600080fd5b85359450613fc360208701613a6d565b9350613fd160408701613a6d565b94979396509394606081013594506080013592915050565b634e487b7160e01b600052602160045260246000fd5b602081016008831061401357614013613fe9565b91905290565b6000806040838503121561402c57600080fd5b50508035926020909101359150565b60048110610e3c57610e3c613fe9565b604081016140588461403b565b9281526001600160a01b039190911660209091015290565b6000806040838503121561408357600080fd5b82359150613f9260208401613a6d565b6000806000806000608086880312156140ab57600080fd5b853594506140bb60208701613a6d565b935060408601356001600160401b03808211156140d757600080fd5b6140e389838a01613a7e565b909550935060608801359150808211156140fc57600080fd5b5061410988828901613b71565b9150509295509295909350565b6080815260006141296080830187613c80565b828103602084015261413b8187613c80565b91505083604083015261414d8361403b565b82606083015295945050505050565b6000806000806060858703121561417257600080fd5b8435935061418260208601613a6d565b925060408501356001600160401b0381111561419d57600080fd5b6141a987828801613a7e565b95989497509550505050565b600080600080608085870312156141cb57600080fd5b84356001600160401b03808211156141e257600080fd5b6141ee88838901613d60565b9550602087013591508082111561420457600080fd5b61421088838901613dcd565b9450604087013591508082111561422657600080fd5b61423288838901613e28565b9350606087013591508082111561424857600080fd5b508501601f8101871361425a57600080fd5b613d3187823560208401613b33565b600081518084526020808501945080840160005b838110156142995781518752958201959082019060010161427d565b509495945050505050565b60ff60f81b8816815260e0602082015260006142c360e0830189613c80565b82810360408401526142d58189613c80565b606084018890526001600160a01b038716608085015260a0840186905283810360c08501529050610dea8185614269565b60008060006060848603121561431b57600080fd5b61432484613cbf565b92506020840135915060408401356001600160401b0381111561434657600080fd5b61435286828701613b71565b9150509250925092565b60006020828403121561436e57600080fd5b611ce182613cbf565b60608152600061438a6060830186613c80565b931515602083015250901515604090910152919050565b600080600080600060a086880312156143b957600080fd5b6143c286613cbf565b94506143d060208701613cbf565b935060408601356001600160401b03808211156143ec57600080fd5b6143f889838a01613dcd565b9450606088013591508082111561440e57600080fd5b61441a89838a01613dcd565b935060808801359150808211156140fc57600080fd5b6000806000806060858703121561444657600080fd5b61444f85613cbf565b93506020850135925060408501356001600160401b0381111561419d57600080fd5b6000806040838503121561448457600080fd5b61448d83613cbf565b946020939093013593505050565b600080600080600060a086880312156144b357600080fd5b6144bc86613cbf565b94506144ca60208701613cbf565b9350604086013592506060860135915060808601356001600160401b038111156144f357600080fd5b61410988828901613b71565b8183823760009101908152919050565b60208082526018908201527f476f7665726e6f723a206f6e6c79476f7665726e616e63650000000000000000604082015260600190565b600181811c9082168061455a57607f821691505b6020821081141561457b57634e487b7160e01b600052602260045260246000fd5b50919050565b60006020828403121561459357600080fd5b81516001600160401b038111156145a957600080fd5b8201601f810184136145ba57600080fd5b80516145c8613b4182613b0c565b8181528560208385010111156145dd57600080fd5b6127de826020830160208601613c50565b634e487b7160e01b600052601160045260246000fd5b600082821015614616576146166145ee565b500390565b634e487b7160e01b600052603260045260246000fd5b60208082526021908201527f476f7665726e6f723a20696e76616c69642070726f706f73616c206c656e67746040820152600d60fb1b606082015260800190565b60008219821115614685576146856145ee565b500190565b600081518084526020808501945080840160005b838110156142995781516001600160a01b03168752958201959082019060010161469e565b600082825180855260208086019550808260051b84010181860160005b8481101561470e57601f198684030189526146fc838351613c80565b988401989250908301906001016146e0565b5090979650505050505050565b60006101208b8352602060018060a01b038c16818501528160408501526147448285018c61468a565b91508382036060850152614758828b614269565b915083820360808501528189518084528284019150828160051b850101838c0160005b838110156147a957601f19878403018552614797838351613c80565b9486019492509085019060010161477b565b505086810360a08801526147bd818c6146c3565b9450505050508560c08401528460e08401528281036101008401526147e28185613c80565b9c9b505050505050505050505050565b60006020828403121561480457600080fd5b815165ffffffffffff81168114611ce157600080fd5b60808152600061482d608083018761468a565b828103602084015261483f8187614269565b9050828103604084015261485381866146c3565b91505082606083015295945050505050565b84815260ff8416602082015282604082015260806060820152600061143f6080830184613c80565b85815260ff8516602082015283604082015260a0606082015260006148b560a0830185613c80565b82810360808401526148c78185613c80565b98975050505050505050565b60006000198214156148e7576148e76145ee565b5060010190565b60008251614900818460208701613c50565b9190910192915050565b60006020828403121561491c57600080fd5b5051919050565b600081600019048311821515161561493d5761493d6145ee565b500290565b634e487b7160e01b600052601260045260246000fd5b60008261497557634e487b7160e01b600052601260045260246000fd5b500490565b8051602080830151919081101561457b5760001960209190910360031b1b16919050565b7f416363657373436f6e74726f6c3a206163636f756e74200000000000000000008152600083516149d6816017850160208801613c50565b7001034b99036b4b9b9b4b733903937b6329607d1b6017918401918201528351614a07816028840160208801613c50565b01602801949350505050565b600081614a2257614a226145ee565b50600019019056fe476f7665726e6f723a2072656c617920726576657274656420776974686f7574206d657373616765476f7665726e6f723a2063616c6c20726576657274656420776974686f7574206d657373616765a2646970667358221220827ac346b24897929dfa34ff2416ba523b19422583d3243ebe8b2fdd35a08dcd64736f6c63430008090033","opcodes":"PUSH2 0x180 PUSH1 0x40 MSTORE CALLVALUE DUP1 ISZERO PUSH3 0x12 JUMPI PUSH1 0x0 DUP1 REVERT JUMPDEST POP PUSH1 0x40 MLOAD PUSH3 0x570C CODESIZE SUB DUP1 PUSH3 0x570C DUP4 CODECOPY DUP2 ADD PUSH1 0x40 DUP2 SWAP1 MSTORE PUSH3 0x35 SWAP2 PUSH3 0xAA9 JUMP JUMPDEST PUSH1 0x4 DUP2 PUSH2 0x1C20 PUSH2 0xC4E0 PUSH1 0x0 PUSH1 0x40 MLOAD DUP1 PUSH1 0x40 ADD PUSH1 0x40 MSTORE DUP1 PUSH1 0x6 DUP2 MSTORE PUSH1 0x20 ADD PUSH6 0x53696E44414F PUSH1 0xD0 SHL DUP2 MSTORE POP DUP1 PUSH3 0x70 PUSH3 0x1A8 PUSH1 0x20 SHL PUSH1 0x20 SHR JUMP JUMPDEST PUSH3 0x8B PUSH1 0x0 DUP4 PUSH3 0x1C3 PUSH1 0x20 SHL PUSH3 0x1FBC OR SWAP1 SWAP2 SWAP1 PUSH1 0x20 SHR JUMP JUMPDEST PUSH2 0x120 MSTORE PUSH3 0xA8 DUP2 PUSH1 0x1 PUSH3 0x1C3 PUSH1 0x20 SWAP1 DUP2 SHL PUSH3 0x1FBC OR SWAP1 SHR JUMP JUMPDEST PUSH2 0x140 MSTORE DUP2 MLOAD PUSH1 0x20 DUP1 DUP5 ADD SWAP2 SWAP1 SWAP2 KECCAK256 PUSH1 0xE0 MSTORE DUP2 MLOAD SWAP1 DUP3 ADD KECCAK256 PUSH2 0x100 MSTORE CHAINID PUSH1 0xA0 MSTORE PUSH3 0x136 PUSH1 0xE0 MLOAD PUSH2 0x100 MLOAD PUSH1 0x40 DUP1 MLOAD PUSH32 0x8B73C3C69BB8FE3D512ECC4CF759CC79239F7B179B0FFACAA9A75D522B39400F PUSH1 0x20 DUP3 ADD MSTORE SWAP1 DUP2 ADD SWAP3 SWAP1 SWAP3 MSTORE PUSH1 0x60 DUP3 ADD MSTORE CHAINID PUSH1 0x80 DUP3 ADD MSTORE ADDRESS PUSH1 0xA0 DUP3 ADD MSTORE PUSH1 0x0 SWAP1 PUSH1 0xC0 ADD PUSH1 0x40 MLOAD PUSH1 0x20 DUP2 DUP4 SUB SUB DUP2 MSTORE SWAP1 PUSH1 0x40 MSTORE DUP1 MLOAD SWAP1 PUSH1 0x20 ADD KECCAK256 SWAP1 POP SWAP1 JUMP JUMPDEST PUSH1 0x80 MSTORE POP POP ADDRESS PUSH1 0xC0 MSTORE DUP1 MLOAD PUSH3 0x154 SWAP1 PUSH1 0x2 SWAP1 PUSH1 0x20 DUP5 ADD SWAP1 PUSH3 0xA0D JUMP JUMPDEST POP PUSH3 0x162 SWAP1 POP DUP4 PUSH3 0x217 JUMP JUMPDEST PUSH3 0x16D DUP3 PUSH3 0x258 JUMP JUMPDEST PUSH3 0x178 DUP2 PUSH3 0x2FF JUMP JUMPDEST POP POP POP PUSH1 0x1 PUSH1 0x1 PUSH1 0xA0 SHL SUB AND PUSH2 0x160 MSTORE PUSH3 0x193 DUP2 PUSH3 0x340 JUMP JUMPDEST POP PUSH3 0x1A1 PUSH1 0x0 CALLER PUSH3 0x4F5 JUMP JUMPDEST POP PUSH3 0xBDB JUMP JUMPDEST PUSH1 0x40 DUP1 MLOAD DUP1 DUP3 ADD SWAP1 SWAP2 MSTORE PUSH1 0x1 DUP2 MSTORE PUSH1 0x31 PUSH1 0xF8 SHL PUSH1 0x20 DUP3 ADD MSTORE SWAP1 JUMP JUMPDEST PUSH1 0x0 PUSH1 0x20 DUP4 MLOAD LT ISZERO PUSH3 0x1E3 JUMPI PUSH3 0x1DB DUP4 PUSH3 0x59A JUMP JUMPDEST SWAP1 POP PUSH3 0x211 JUMP JUMPDEST DUP3 PUSH3 0x1FA DUP4 PUSH3 0x5DD PUSH1 0x20 SHL PUSH3 0x1FF3 OR PUSH1 0x20 SHR JUMP JUMPDEST DUP2 MLOAD PUSH3 0x20B SWAP3 PUSH1 0x20 ADD SWAP1 PUSH3 0xA0D JUMP JUMPDEST POP PUSH1 0xFF SWAP1 POP JUMPDEST SWAP3 SWAP2 POP POP JUMP JUMPDEST PUSH1 0x6 SLOAD PUSH1 0x40 DUP1 MLOAD SWAP2 DUP3 MSTORE PUSH1 0x20 DUP3 ADD DUP4 SWAP1 MSTORE PUSH32 0xC565B045403DC03C2EEA82B81A0465EDAD9E2E7FC4D97E11421C209DA93D7A93 SWAP2 ADD PUSH1 0x40 MLOAD DUP1 SWAP2 SUB SWAP1 LOG1 PUSH1 0x6 SSTORE JUMP JUMPDEST PUSH1 0x0 DUP2 GT PUSH3 0x2BE JUMPI PUSH1 0x40 MLOAD PUSH3 0x461BCD PUSH1 0xE5 SHL DUP2 MSTORE PUSH1 0x20 PUSH1 0x4 DUP3 ADD MSTORE PUSH1 0x27 PUSH1 0x24 DUP3 ADD MSTORE PUSH32 0x476F7665726E6F7253657474696E67733A20766F74696E6720706572696F6420 PUSH1 0x44 DUP3 ADD MSTORE PUSH7 0x746F6F206C6F77 PUSH1 0xC8 SHL PUSH1 0x64 DUP3 ADD MSTORE PUSH1 0x84 ADD JUMPDEST PUSH1 0x40 MLOAD DUP1 SWAP2 SUB SWAP1 REVERT JUMPDEST PUSH1 0x7 SLOAD PUSH1 0x40 DUP1 MLOAD SWAP2 DUP3 MSTORE PUSH1 0x20 DUP3 ADD DUP4 SWAP1 MSTORE PUSH32 0x7E3F7F0708A84DE9203036ABAA450DCCC85AD5FF52F78C170F3EDB55CF5E8828 SWAP2 ADD PUSH1 0x40 MLOAD DUP1 SWAP2 SUB SWAP1 LOG1 PUSH1 0x7 SSTORE JUMP JUMPDEST PUSH1 0x8 SLOAD PUSH1 0x40 DUP1 MLOAD SWAP2 DUP3 MSTORE PUSH1 0x20 DUP3 ADD DUP4 SWAP1 MSTORE PUSH32 0xCCB45DA8D5717E6C4544694297C4BA5CF151D455C9BB0ED4FC7A38411BC05461 SWAP2 ADD PUSH1 0x40 MLOAD DUP1 SWAP2 SUB SWAP1 LOG1 PUSH1 0x8 SSTORE JUMP JUMPDEST PUSH1 0x64 DUP2 GT ISZERO PUSH3 0x3C5 JUMPI PUSH1 0x40 MLOAD PUSH3 0x461BCD PUSH1 0xE5 SHL DUP2 MSTORE PUSH1 0x20 PUSH1 0x4 DUP3 ADD MSTORE PUSH1 0x43 PUSH1 0x24 DUP3 ADD MSTORE PUSH32 0x476F7665726E6F72566F74657351756F72756D4672616374696F6E3A2071756F PUSH1 0x44 DUP3 ADD MSTORE PUSH32 0x72756D4E756D657261746F72206F7665722071756F72756D44656E6F6D696E61 PUSH1 0x64 DUP3 ADD MSTORE PUSH3 0x3A37B9 PUSH1 0xE9 SHL PUSH1 0x84 DUP3 ADD MSTORE PUSH1 0xA4 ADD PUSH3 0x2B5 JUMP JUMPDEST PUSH1 0x0 PUSH3 0x3D1 PUSH3 0x5E0 JUMP JUMPDEST SWAP1 POP DUP1 ISZERO DUP1 ISZERO SWAP1 PUSH3 0x3E3 JUMPI POP PUSH1 0xB SLOAD ISZERO JUMPDEST ISZERO PUSH3 0x45E JUMPI PUSH1 0xB PUSH1 0x0 ADD PUSH1 0x40 MLOAD DUP1 PUSH1 0x40 ADD PUSH1 0x40 MSTORE DUP1 PUSH1 0x0 PUSH4 0xFFFFFFFF AND DUP2 MSTORE PUSH1 0x20 ADD PUSH3 0x41C DUP5 PUSH3 0x61A PUSH1 0x20 SHL PUSH3 0x1FF6 OR PUSH1 0x20 SHR JUMP JUMPDEST PUSH1 0x1 PUSH1 0x1 PUSH1 0xE0 SHL SUB SWAP1 DUP2 AND SWAP1 SWAP2 MSTORE DUP3 SLOAD PUSH1 0x1 DUP2 ADD DUP5 SSTORE PUSH1 0x0 SWAP4 DUP5 MSTORE PUSH1 0x20 SWAP4 DUP5 SWAP1 KECCAK256 DUP4 MLOAD SWAP5 SWAP1 SWAP4 ADD MLOAD SWAP1 SWAP2 AND PUSH5 0x100000000 MUL PUSH4 0xFFFFFFFF SWAP1 SWAP4 AND SWAP3 SWAP1 SWAP3 OR SWAP2 ADD SSTORE JUMPDEST PUSH3 0x4B6 PUSH3 0x489 PUSH3 0x470 PUSH3 0x689 JUMP JUMPDEST PUSH6 0xFFFFFFFFFFFF AND PUSH3 0x71B PUSH1 0x20 SHL PUSH3 0x2063 OR PUSH1 0x20 SHR JUMP JUMPDEST PUSH3 0x49F DUP5 PUSH3 0x61A PUSH1 0x20 SHL PUSH3 0x1FF6 OR PUSH1 0x20 SHR JUMP JUMPDEST PUSH1 0xB PUSH3 0x782 PUSH1 0x20 SHL PUSH3 0x20C8 OR SWAP1 SWAP3 SWAP2 SWAP1 PUSH1 0x20 SHR JUMP JUMPDEST POP POP PUSH1 0x40 DUP1 MLOAD DUP3 DUP2 MSTORE PUSH1 0x20 DUP2 ADD DUP5 SWAP1 MSTORE PUSH32 0x553476BF02EF2726E8CE5CED78D63E26E602E4A2257B1F559418E24B4633997 SWAP2 ADD PUSH1 0x40 MLOAD DUP1 SWAP2 SUB SWAP1 LOG1 POP POP JUMP JUMPDEST PUSH1 0x0 DUP3 DUP2 MSTORE PUSH1 0xC PUSH1 0x20 SWAP1 DUP2 MSTORE PUSH1 0x40 DUP1 DUP4 KECCAK256 PUSH1 0x1 PUSH1 0x1 PUSH1 0xA0 SHL SUB DUP6 AND DUP5 MSTORE SWAP1 SWAP2 MSTORE SWAP1 KECCAK256 SLOAD PUSH1 0xFF AND PUSH3 0x596 JUMPI PUSH1 0x0 DUP3 DUP2 MSTORE PUSH1 0xC PUSH1 0x20 SWAP1 DUP2 MSTORE PUSH1 0x40 DUP1 DUP4 KECCAK256 PUSH1 0x1 PUSH1 0x1 PUSH1 0xA0 SHL SUB DUP6 AND DUP5 MSTORE SWAP1 SWAP2 MSTORE SWAP1 KECCAK256 DUP1 SLOAD PUSH1 0xFF NOT AND PUSH1 0x1 OR SWAP1 SSTORE PUSH3 0x555 CALLER SWAP1 JUMP JUMPDEST PUSH1 0x1 PUSH1 0x1 PUSH1 0xA0 SHL SUB AND DUP2 PUSH1 0x1 PUSH1 0x1 PUSH1 0xA0 SHL SUB AND DUP4 PUSH32 0x2F8788117E7EFF1D82E926EC794901D17C78024A50270940304540A733656F0D PUSH1 0x40 MLOAD PUSH1 0x40 MLOAD DUP1 SWAP2 SUB SWAP1 LOG4 JUMPDEST POP POP JUMP JUMPDEST PUSH1 0x0 DUP1 DUP3 SWAP1 POP PUSH1 0x1F DUP2 MLOAD GT ISZERO PUSH3 0x5C8 JUMPI DUP3 PUSH1 0x40 MLOAD PUSH4 0x305A27A9 PUSH1 0xE0 SHL DUP2 MSTORE PUSH1 0x4 ADD PUSH3 0x2B5 SWAP2 SWAP1 PUSH3 0xAD4 JUMP JUMPDEST DUP1 MLOAD PUSH3 0x5D5 DUP3 PUSH3 0xB2C JUMP JUMPDEST OR SWAP4 SWAP3 POP POP POP JUMP JUMPDEST SWAP1 JUMP JUMPDEST PUSH1 0xB SLOAD PUSH1 0x0 SWAP1 ISZERO PUSH3 0x611 JUMPI PUSH3 0x603 PUSH1 0xB PUSH3 0x79F PUSH1 0x20 SHL PUSH3 0x20E3 OR PUSH1 0x20 SHR JUMP JUMPDEST PUSH1 0x1 PUSH1 0x1 PUSH1 0xE0 SHL SUB AND SWAP1 POP SWAP1 JUMP JUMPDEST PUSH1 0xA SLOAD JUMPDEST SWAP1 POP SWAP1 JUMP JUMPDEST PUSH1 0x0 PUSH1 0x1 PUSH1 0x1 PUSH1 0xE0 SHL SUB DUP3 GT ISZERO PUSH3 0x685 JUMPI PUSH1 0x40 MLOAD PUSH3 0x461BCD PUSH1 0xE5 SHL DUP2 MSTORE PUSH1 0x20 PUSH1 0x4 DUP3 ADD MSTORE PUSH1 0x27 PUSH1 0x24 DUP3 ADD MSTORE PUSH32 0x53616665436173743A2076616C756520646F65736E27742066697420696E2032 PUSH1 0x44 DUP3 ADD MSTORE PUSH7 0x32342062697473 PUSH1 0xC8 SHL PUSH1 0x64 DUP3 ADD MSTORE PUSH1 0x84 ADD PUSH3 0x2B5 JUMP JUMPDEST POP SWAP1 JUMP JUMPDEST PUSH1 0x0 PUSH2 0x160 MLOAD PUSH1 0x1 PUSH1 0x1 PUSH1 0xA0 SHL SUB AND PUSH4 0x91DDADF4 PUSH1 0x40 MLOAD DUP2 PUSH4 0xFFFFFFFF AND PUSH1 0xE0 SHL DUP2 MSTORE PUSH1 0x4 ADD PUSH1 0x20 PUSH1 0x40 MLOAD DUP1 DUP4 SUB DUP2 DUP7 DUP1 EXTCODESIZE ISZERO DUP1 ISZERO PUSH3 0x6C8 JUMPI PUSH1 0x0 DUP1 REVERT JUMPDEST POP GAS STATICCALL SWAP3 POP POP POP DUP1 ISZERO PUSH3 0x6FB JUMPI POP PUSH1 0x40 DUP1 MLOAD PUSH1 0x1F RETURNDATASIZE SWAP1 DUP2 ADD PUSH1 0x1F NOT AND DUP3 ADD SWAP1 SWAP3 MSTORE PUSH3 0x6F8 SWAP2 DUP2 ADD SWAP1 PUSH3 0xB54 JUMP JUMPDEST PUSH1 0x1 JUMPDEST PUSH3 0x716 JUMPI PUSH3 0x615 NUMBER PUSH3 0x7ED PUSH1 0x20 SHL PUSH3 0x212A OR PUSH1 0x20 SHR JUMP JUMPDEST SWAP2 SWAP1 POP JUMP JUMPDEST PUSH1 0x0 PUSH4 0xFFFFFFFF DUP3 GT ISZERO PUSH3 0x685 JUMPI PUSH1 0x40 MLOAD PUSH3 0x461BCD PUSH1 0xE5 SHL DUP2 MSTORE PUSH1 0x20 PUSH1 0x4 DUP3 ADD MSTORE PUSH1 0x26 PUSH1 0x24 DUP3 ADD MSTORE PUSH32 0x53616665436173743A2076616C756520646F65736E27742066697420696E2033 PUSH1 0x44 DUP3 ADD MSTORE PUSH6 0x322062697473 PUSH1 0xD0 SHL PUSH1 0x64 DUP3 ADD MSTORE PUSH1 0x84 ADD PUSH3 0x2B5 JUMP JUMPDEST PUSH1 0x0 DUP1 PUSH3 0x792 DUP6 DUP6 DUP6 PUSH3 0x856 JUMP JUMPDEST SWAP2 POP SWAP2 POP JUMPDEST SWAP4 POP SWAP4 SWAP2 POP POP JUMP JUMPDEST DUP1 SLOAD PUSH1 0x0 SWAP1 DUP1 ISZERO PUSH3 0x7E3 JUMPI PUSH3 0x7CB DUP4 PUSH3 0x7BD PUSH1 0x1 DUP5 PUSH3 0xB7E JUMP JUMPDEST PUSH1 0x0 SWAP2 DUP3 MSTORE PUSH1 0x20 SWAP1 SWAP2 KECCAK256 ADD SWAP1 JUMP JUMPDEST SLOAD PUSH5 0x100000000 SWAP1 DIV PUSH1 0x1 PUSH1 0x1 PUSH1 0xE0 SHL SUB AND PUSH3 0x7E6 JUMP JUMPDEST PUSH1 0x0 JUMPDEST SWAP4 SWAP3 POP POP POP JUMP JUMPDEST PUSH1 0x0 PUSH6 0xFFFFFFFFFFFF DUP3 GT ISZERO PUSH3 0x685 JUMPI PUSH1 0x40 MLOAD PUSH3 0x461BCD PUSH1 0xE5 SHL DUP2 MSTORE PUSH1 0x20 PUSH1 0x4 DUP3 ADD MSTORE PUSH1 0x26 PUSH1 0x24 DUP3 ADD MSTORE PUSH32 0x53616665436173743A2076616C756520646F65736E27742066697420696E2034 PUSH1 0x44 DUP3 ADD MSTORE PUSH6 0x382062697473 PUSH1 0xD0 SHL PUSH1 0x64 DUP3 ADD MSTORE PUSH1 0x84 ADD PUSH3 0x2B5 JUMP JUMPDEST DUP3 SLOAD PUSH1 0x0 SWAP1 DUP2 SWAP1 DUP1 ISZERO PUSH3 0x9B2 JUMPI PUSH1 0x0 PUSH3 0x878 DUP8 PUSH3 0x7BD PUSH1 0x1 DUP6 PUSH3 0xB7E JUMP JUMPDEST PUSH1 0x40 DUP1 MLOAD DUP1 DUP3 ADD SWAP1 SWAP2 MSTORE SWAP1 SLOAD PUSH4 0xFFFFFFFF DUP1 DUP3 AND DUP1 DUP5 MSTORE PUSH5 0x100000000 SWAP1 SWAP3 DIV PUSH1 0x1 PUSH1 0x1 PUSH1 0xE0 SHL SUB AND PUSH1 0x20 DUP5 ADD MSTORE SWAP2 SWAP3 POP SWAP1 DUP8 AND LT ISZERO PUSH3 0x8FC JUMPI PUSH1 0x40 MLOAD PUSH3 0x461BCD PUSH1 0xE5 SHL DUP2 MSTORE PUSH1 0x20 PUSH1 0x4 DUP3 ADD MSTORE PUSH1 0x1B PUSH1 0x24 DUP3 ADD MSTORE PUSH32 0x436865636B706F696E743A2064656372656173696E67206B6579730000000000 PUSH1 0x44 DUP3 ADD MSTORE PUSH1 0x64 ADD PUSH3 0x2B5 JUMP JUMPDEST DUP6 PUSH4 0xFFFFFFFF AND DUP2 PUSH1 0x0 ADD MLOAD PUSH4 0xFFFFFFFF AND EQ ISZERO PUSH3 0x951 JUMPI DUP5 PUSH3 0x928 DUP9 PUSH3 0x7BD PUSH1 0x1 DUP7 PUSH3 0xB7E JUMP JUMPDEST DUP1 SLOAD PUSH1 0x1 PUSH1 0x1 PUSH1 0xE0 SHL SUB SWAP3 SWAP1 SWAP3 AND PUSH5 0x100000000 MUL PUSH4 0xFFFFFFFF SWAP1 SWAP3 AND SWAP2 SWAP1 SWAP2 OR SWAP1 SSTORE PUSH3 0x9A1 JUMP JUMPDEST PUSH1 0x40 DUP1 MLOAD DUP1 DUP3 ADD SWAP1 SWAP2 MSTORE PUSH4 0xFFFFFFFF DUP1 DUP9 AND DUP3 MSTORE PUSH1 0x1 PUSH1 0x1 PUSH1 0xE0 SHL SUB DUP1 DUP9 AND PUSH1 0x20 DUP1 DUP6 ADD SWAP2 DUP3 MSTORE DUP12 SLOAD PUSH1 0x1 DUP2 ADD DUP14 SSTORE PUSH1 0x0 DUP14 DUP2 MSTORE SWAP2 SWAP1 SWAP2 KECCAK256 SWAP5 MLOAD SWAP2 MLOAD SWAP1 SWAP3 AND PUSH5 0x100000000 MUL SWAP3 AND SWAP2 SWAP1 SWAP2 OR SWAP2 ADD SSTORE JUMPDEST PUSH1 0x20 ADD MLOAD SWAP3 POP DUP4 SWAP2 POP PUSH3 0x797 SWAP1 POP JUMP JUMPDEST POP POP PUSH1 0x40 DUP1 MLOAD DUP1 DUP3 ADD SWAP1 SWAP2 MSTORE PUSH4 0xFFFFFFFF DUP1 DUP6 AND DUP3 MSTORE PUSH1 0x1 PUSH1 0x1 PUSH1 0xE0 SHL SUB DUP1 DUP6 AND PUSH1 0x20 DUP1 DUP6 ADD SWAP2 DUP3 MSTORE DUP9 SLOAD PUSH1 0x1 DUP2 ADD DUP11 SSTORE PUSH1 0x0 DUP11 DUP2 MSTORE SWAP2 DUP3 KECCAK256 SWAP6 MLOAD SWAP3 MLOAD SWAP1 SWAP4 AND PUSH5 0x100000000 MUL SWAP2 SWAP1 SWAP4 AND OR SWAP3 ADD SWAP2 SWAP1 SWAP2 SSTORE SWAP1 POP DUP2 PUSH3 0x797 JUMP JUMPDEST DUP3 DUP1 SLOAD PUSH3 0xA1B SWAP1 PUSH3 0xBA4 JUMP JUMPDEST SWAP1 PUSH1 0x0 MSTORE PUSH1 0x20 PUSH1 0x0 KECCAK256 SWAP1 PUSH1 0x1F ADD PUSH1 0x20 SWAP1 DIV DUP2 ADD SWAP3 DUP3 PUSH3 0xA3F JUMPI PUSH1 0x0 DUP6 SSTORE PUSH3 0xA8A JUMP JUMPDEST DUP3 PUSH1 0x1F LT PUSH3 0xA5A JUMPI DUP1 MLOAD PUSH1 0xFF NOT AND DUP4 DUP1 ADD OR DUP6 SSTORE PUSH3 0xA8A JUMP JUMPDEST DUP3 DUP1 ADD PUSH1 0x1 ADD DUP6 SSTORE DUP3 ISZERO PUSH3 0xA8A JUMPI SWAP2 DUP3 ADD JUMPDEST DUP3 DUP2 GT ISZERO PUSH3 0xA8A JUMPI DUP3 MLOAD DUP3 SSTORE SWAP2 PUSH1 0x20 ADD SWAP2 SWAP1 PUSH1 0x1 ADD SWAP1 PUSH3 0xA6D JUMP JUMPDEST POP PUSH3 0x685 SWAP3 SWAP2 POP JUMPDEST DUP1 DUP3 GT ISZERO PUSH3 0x685 JUMPI PUSH1 0x0 DUP2 SSTORE PUSH1 0x1 ADD PUSH3 0xA93 JUMP JUMPDEST PUSH1 0x0 PUSH1 0x20 DUP3 DUP5 SUB SLT ISZERO PUSH3 0xABC JUMPI PUSH1 0x0 DUP1 REVERT JUMPDEST DUP2 MLOAD PUSH1 0x1 PUSH1 0x1 PUSH1 0xA0 SHL SUB DUP2 AND DUP2 EQ PUSH3 0x7E6 JUMPI PUSH1 0x0 DUP1 REVERT JUMPDEST PUSH1 0x0 PUSH1 0x20 DUP1 DUP4 MSTORE DUP4 MLOAD DUP1 DUP3 DUP6 ADD MSTORE PUSH1 0x0 JUMPDEST DUP2 DUP2 LT ISZERO PUSH3 0xB03 JUMPI DUP6 DUP2 ADD DUP4 ADD MLOAD DUP6 DUP3 ADD PUSH1 0x40 ADD MSTORE DUP3 ADD PUSH3 0xAE5 JUMP JUMPDEST DUP2 DUP2 GT ISZERO PUSH3 0xB16 JUMPI PUSH1 0x0 PUSH1 0x40 DUP4 DUP8 ADD ADD MSTORE JUMPDEST POP PUSH1 0x1F ADD PUSH1 0x1F NOT AND SWAP3 SWAP1 SWAP3 ADD PUSH1 0x40 ADD SWAP4 SWAP3 POP POP POP JUMP JUMPDEST DUP1 MLOAD PUSH1 0x20 DUP1 DUP4 ADD MLOAD SWAP2 SWAP1 DUP2 LT ISZERO PUSH3 0xB4E JUMPI PUSH1 0x0 NOT DUP2 PUSH1 0x20 SUB PUSH1 0x3 SHL SHL DUP3 AND SWAP2 POP JUMPDEST POP SWAP2 SWAP1 POP JUMP JUMPDEST PUSH1 0x0 PUSH1 0x20 DUP3 DUP5 SUB SLT ISZERO PUSH3 0xB67 JUMPI PUSH1 0x0 DUP1 REVERT JUMPDEST DUP2 MLOAD PUSH6 0xFFFFFFFFFFFF DUP2 AND DUP2 EQ PUSH3 0x7E6 JUMPI PUSH1 0x0 DUP1 REVERT JUMPDEST PUSH1 0x0 DUP3 DUP3 LT ISZERO PUSH3 0xB9F JUMPI PUSH4 0x4E487B71 PUSH1 0xE0 SHL PUSH1 0x0 MSTORE PUSH1 0x11 PUSH1 0x4 MSTORE PUSH1 0x24 PUSH1 0x0 REVERT JUMPDEST POP SUB SWAP1 JUMP JUMPDEST PUSH1 0x1 DUP2 DUP2 SHR SWAP1 DUP3 AND DUP1 PUSH3 0xBB9 JUMPI PUSH1 0x7F DUP3 AND SWAP2 POP JUMPDEST PUSH1 0x20 DUP3 LT DUP2 EQ ISZERO PUSH3 0xB4E JUMPI PUSH4 0x4E487B71 PUSH1 0xE0 SHL PUSH1 0x0 MSTORE PUSH1 0x22 PUSH1 0x4 MSTORE PUSH1 0x24 PUSH1 0x0 REVERT JUMPDEST PUSH1 0x80 MLOAD PUSH1 0xA0 MLOAD PUSH1 0xC0 MLOAD PUSH1 0xE0 MLOAD PUSH2 0x100 MLOAD PUSH2 0x120 MLOAD PUSH2 0x140 MLOAD PUSH2 0x160 MLOAD PUSH2 0x4AAF PUSH3 0xC5D PUSH1 0x0 CODECOPY PUSH1 0x0 DUP2 DUP2 PUSH2 0xCBD ADD MSTORE DUP2 DUP2 PUSH2 0x144D ADD MSTORE DUP2 DUP2 PUSH2 0x1C3D ADD MSTORE DUP2 DUP2 PUSH2 0x2B6C ADD MSTORE PUSH2 0x2D06 ADD MSTORE PUSH1 0x0 PUSH2 0x1BBE ADD MSTORE PUSH1 0x0 PUSH2 0x1B94 ADD MSTORE PUSH1 0x0 PUSH2 0x30F6 ADD MSTORE PUSH1 0x0 PUSH2 0x30CE ADD MSTORE PUSH1 0x0 PUSH2 0x3029 ADD MSTORE PUSH1 0x0 PUSH2 0x3053 ADD MSTORE PUSH1 0x0 PUSH2 0x307D ADD MSTORE PUSH2 0x4AAF PUSH1 0x0 RETURN INVALID PUSH1 0x80 PUSH1 0x40 MSTORE PUSH1 0x4 CALLDATASIZE LT PUSH2 0x37A JUMPI PUSH1 0x0 CALLDATALOAD PUSH1 0xE0 SHR DUP1 PUSH4 0x60C4247F GT PUSH2 0x1D1 JUMPI DUP1 PUSH4 0xA87430BA GT PUSH2 0x102 JUMPI DUP1 PUSH4 0xDD4E2BA5 GT PUSH2 0xA0 JUMPI DUP1 PUSH4 0xECE40CC1 GT PUSH2 0x6F JUMPI DUP1 PUSH4 0xECE40CC1 EQ PUSH2 0xC3F JUMPI DUP1 PUSH4 0xF23A6E61 EQ PUSH2 0xC5F JUMPI DUP1 PUSH4 0xF8CE560A EQ PUSH2 0xC8B JUMPI DUP1 PUSH4 0xFC0C546A EQ PUSH2 0xCAB JUMPI PUSH1 0x0 DUP1 REVERT JUMPDEST DUP1 PUSH4 0xDD4E2BA5 EQ PUSH2 0xB85 JUMPI DUP1 PUSH4 0xDEAAA7CC EQ PUSH2 0xBCB JUMPI DUP1 PUSH4 0xEA0217CF EQ PUSH2 0xBFF JUMPI DUP1 PUSH4 0xEB9019D4 EQ PUSH2 0xC1F JUMPI PUSH1 0x0 DUP1 REVERT JUMPDEST DUP1 PUSH4 0xC01F9E37 GT PUSH2 0xDC JUMPI DUP1 PUSH4 0xC01F9E37 EQ PUSH2 0xAF9 JUMPI DUP1 PUSH4 0xC28BC2FA EQ PUSH2 0xB32 JUMPI DUP1 PUSH4 0xC59057E4 EQ PUSH2 0xB45 JUMPI DUP1 PUSH4 0xD547741F EQ PUSH2 0xB65 JUMPI PUSH1 0x0 DUP1 REVERT JUMPDEST DUP1 PUSH4 0xA87430BA EQ PUSH2 0xA89 JUMPI DUP1 PUSH4 0xB58131B0 EQ PUSH2 0xAB8 JUMPI DUP1 PUSH4 0xBC197C81 EQ PUSH2 0xACD JUMPI PUSH1 0x0 DUP1 REVERT JUMPDEST DUP1 PUSH4 0x91D14854 GT PUSH2 0x16F JUMPI DUP1 PUSH4 0x9A802A6D GT PUSH2 0x149 JUMPI DUP1 PUSH4 0x9A802A6D EQ PUSH2 0xA1F JUMPI DUP1 PUSH4 0xA217FDDF EQ PUSH2 0xA3F JUMPI DUP1 PUSH4 0xA71E9A9C EQ PUSH2 0xA54 JUMPI DUP1 PUSH4 0xA7713A70 EQ PUSH2 0xA74 JUMPI PUSH1 0x0 DUP1 REVERT JUMPDEST DUP1 PUSH4 0x91D14854 EQ PUSH2 0x9BF JUMPI DUP1 PUSH4 0x91DDADF4 EQ PUSH2 0x9DF JUMPI DUP1 PUSH4 0x97C3D334 EQ PUSH2 0xA0B JUMPI PUSH1 0x0 DUP1 REVERT JUMPDEST DUP1 PUSH4 0x797669C9 GT PUSH2 0x1AB JUMPI DUP1 PUSH4 0x797669C9 EQ PUSH2 0x923 JUMPI DUP1 PUSH4 0x7B3C71D3 EQ PUSH2 0x957 JUMPI DUP1 PUSH4 0x7D5E81E2 EQ PUSH2 0x977 JUMPI DUP1 PUSH4 0x84B0196E EQ PUSH2 0x997 JUMPI PUSH1 0x0 DUP1 REVERT JUMPDEST DUP1 PUSH4 0x60C4247F EQ PUSH2 0x8B3 JUMPI DUP1 PUSH4 0x70B0F660 EQ PUSH2 0x8D3 JUMPI DUP1 PUSH4 0x7586353B EQ PUSH2 0x8F3 JUMPI PUSH1 0x0 DUP1 REVERT JUMPDEST DUP1 PUSH4 0x2FE3E261 GT PUSH2 0x2AB JUMPI DUP1 PUSH4 0x43859632 GT PUSH2 0x249 JUMPI DUP1 PUSH4 0x544FFC9C GT PUSH2 0x223 JUMPI DUP1 PUSH4 0x544FFC9C EQ PUSH2 0x7F4 JUMPI DUP1 PUSH4 0x54FD4D50 EQ PUSH2 0x849 JUMPI DUP1 PUSH4 0x56781388 EQ PUSH2 0x873 JUMPI DUP1 PUSH4 0x5F398A14 EQ PUSH2 0x893 JUMPI PUSH1 0x0 DUP1 REVERT JUMPDEST DUP1 PUSH4 0x43859632 EQ PUSH2 0x775 JUMPI DUP1 PUSH4 0x452115D6 EQ PUSH2 0x7BF JUMPI DUP1 PUSH4 0x4BF5D7E9 EQ PUSH2 0x7DF JUMPI PUSH1 0x0 DUP1 REVERT JUMPDEST DUP1 PUSH4 0x3BCCF4FD GT PUSH2 0x285 JUMPI DUP1 PUSH4 0x3BCCF4FD EQ PUSH2 0x67E JUMPI DUP1 PUSH4 0x3E4F49E6 EQ PUSH2 0x69E JUMPI DUP1 PUSH4 0x3EF4CC8B EQ PUSH2 0x6CB JUMPI DUP1 PUSH4 0x40DD07B9 EQ PUSH2 0x727 JUMPI PUSH1 0x0 DUP1 REVERT JUMPDEST DUP1 PUSH4 0x2FE3E261 EQ PUSH2 0x615 JUMPI DUP1 PUSH4 0x36568ABE EQ PUSH2 0x649 JUMPI DUP1 PUSH4 0x3932ABB1 EQ PUSH2 0x669 JUMPI PUSH1 0x0 DUP1 REVERT JUMPDEST DUP1 PUSH4 0x143489D0 GT PUSH2 0x318 JUMPI DUP1 PUSH4 0x2656227D GT PUSH2 0x2F2 JUMPI DUP1 PUSH4 0x2656227D EQ PUSH2 0x57C JUMPI DUP1 PUSH4 0x28BDCDE8 EQ PUSH2 0x58F JUMPI DUP1 PUSH4 0x2D63F693 EQ PUSH2 0x5BF JUMPI DUP1 PUSH4 0x2F2FF15D EQ PUSH2 0x5F5 JUMPI PUSH1 0x0 DUP1 REVERT JUMPDEST DUP1 PUSH4 0x143489D0 EQ PUSH2 0x4B3 JUMPI DUP1 PUSH4 0x150B7A02 EQ PUSH2 0x508 JUMPI DUP1 PUSH4 0x248A9CA3 EQ PUSH2 0x54C JUMPI PUSH1 0x0 DUP1 REVERT JUMPDEST DUP1 PUSH4 0x3420181 GT PUSH2 0x354 JUMPI DUP1 PUSH4 0x3420181 EQ PUSH2 0x41D JUMPI DUP1 PUSH4 0x6F3F9E6 EQ PUSH2 0x43D JUMPI DUP1 PUSH4 0x6FDDE03 EQ PUSH2 0x45D JUMPI DUP1 PUSH4 0x13119161 EQ PUSH2 0x47F JUMPI PUSH1 0x0 DUP1 REVERT JUMPDEST DUP1 PUSH4 0x1FFC9A7 EQ PUSH2 0x391 JUMPI DUP1 PUSH4 0x2A251A3 EQ PUSH2 0x3C6 JUMPI DUP1 PUSH4 0x33E6F4D EQ PUSH2 0x3E9 JUMPI PUSH1 0x0 DUP1 REVERT JUMPDEST CALLDATASIZE PUSH2 0x38C JUMPI STOP JUMPDEST PUSH1 0x40 MLOAD DUP1 SWAP2 SUB SWAP1 REVERT JUMPDEST STOP JUMPDEST PUSH1 0x0 DUP1 REVERT JUMPDEST CALLVALUE DUP1 ISZERO PUSH2 0x39D JUMPI PUSH1 0x0 DUP1 REVERT JUMPDEST POP PUSH2 0x3B1 PUSH2 0x3AC CALLDATASIZE PUSH1 0x4 PUSH2 0x3A43 JUMP JUMPDEST PUSH2 0xCDF JUMP JUMPDEST PUSH1 0x40 MLOAD SWAP1 ISZERO ISZERO DUP2 MSTORE PUSH1 0x20 ADD JUMPDEST PUSH1 0x40 MLOAD DUP1 SWAP2 SUB SWAP1 RETURN JUMPDEST CALLVALUE DUP1 ISZERO PUSH2 0x3D2 JUMPI PUSH1 0x0 DUP1 REVERT JUMPDEST POP PUSH2 0x3DB PUSH2 0xCF0 JUMP JUMPDEST PUSH1 0x40 MLOAD SWAP1 DUP2 MSTORE PUSH1 0x20 ADD PUSH2 0x3BD JUMP JUMPDEST CALLVALUE DUP1 ISZERO PUSH2 0x3F5 JUMPI PUSH1 0x0 DUP1 REVERT JUMPDEST POP PUSH2 0x3DB PUSH32 0x53B89AC75EFE2C37162CD6795F5BF8B9C749F1D0387576893C1D2D0C23A326F3 DUP2 JUMP JUMPDEST CALLVALUE DUP1 ISZERO PUSH2 0x429 JUMPI PUSH1 0x0 DUP1 REVERT JUMPDEST POP PUSH2 0x3DB PUSH2 0x438 CALLDATASIZE PUSH1 0x4 PUSH2 0x3B91 JUMP JUMPDEST PUSH2 0xD00 JUMP JUMPDEST CALLVALUE DUP1 ISZERO PUSH2 0x449 JUMPI PUSH1 0x0 DUP1 REVERT JUMPDEST POP PUSH2 0x38A PUSH2 0x458 CALLDATASIZE PUSH1 0x4 PUSH2 0x3C37 JUMP JUMPDEST PUSH2 0xDF8 JUMP JUMPDEST CALLVALUE DUP1 ISZERO PUSH2 0x469 JUMPI PUSH1 0x0 DUP1 REVERT JUMPDEST POP PUSH2 0x472 PUSH2 0xE3F JUMP JUMPDEST PUSH1 0x40 MLOAD PUSH2 0x3BD SWAP2 SWAP1 PUSH2 0x3CAC JUMP JUMPDEST CALLVALUE DUP1 ISZERO PUSH2 0x48B JUMPI PUSH1 0x0 DUP1 REVERT JUMPDEST POP PUSH2 0x3DB PUSH32 0x14823911F2DA1B49F045A0929A60B8C1F2A7FC8C06C7284CA3E8AB4E193A08C8 DUP2 JUMP JUMPDEST CALLVALUE DUP1 ISZERO PUSH2 0x4BF JUMPI PUSH1 0x0 DUP1 REVERT JUMPDEST POP PUSH2 0x4F0 PUSH2 0x4CE CALLDATASIZE PUSH1 0x4 PUSH2 0x3C37 JUMP JUMPDEST PUSH1 0x0 SWAP1 DUP2 MSTORE PUSH1 0x3 PUSH1 0x20 MSTORE PUSH1 0x40 SWAP1 KECCAK256 SLOAD PUSH1 0x1 PUSH1 0x40 SHL SWAP1 DIV PUSH1 0x1 PUSH1 0x1 PUSH1 0xA0 SHL SUB AND SWAP1 JUMP JUMPDEST PUSH1 0x40 MLOAD PUSH1 0x1 PUSH1 0x1 PUSH1 0xA0 SHL SUB SWAP1 SWAP2 AND DUP2 MSTORE PUSH1 0x20 ADD PUSH2 0x3BD JUMP JUMPDEST CALLVALUE DUP1 ISZERO PUSH2 0x514 JUMPI PUSH1 0x0 DUP1 REVERT JUMPDEST POP PUSH2 0x533 PUSH2 0x523 CALLDATASIZE PUSH1 0x4 PUSH2 0x3CD6 JUMP JUMPDEST PUSH4 0xA85BD01 PUSH1 0xE1 SHL SWAP5 SWAP4 POP POP POP POP JUMP JUMPDEST PUSH1 0x40 MLOAD PUSH1 0x1 PUSH1 0x1 PUSH1 0xE0 SHL SUB NOT SWAP1 SWAP2 AND DUP2 MSTORE PUSH1 0x20 ADD PUSH2 0x3BD JUMP JUMPDEST CALLVALUE DUP1 ISZERO PUSH2 0x558 JUMPI PUSH1 0x0 DUP1 REVERT JUMPDEST POP PUSH2 0x3DB PUSH2 0x567 CALLDATASIZE PUSH1 0x4 PUSH2 0x3C37 JUMP JUMPDEST PUSH1 0x0 SWAP1 DUP2 MSTORE PUSH1 0xC PUSH1 0x20 MSTORE PUSH1 0x40 SWAP1 KECCAK256 PUSH1 0x1 ADD SLOAD SWAP1 JUMP JUMPDEST PUSH2 0x3DB PUSH2 0x58A CALLDATASIZE PUSH1 0x4 PUSH2 0x3EA7 JUMP JUMPDEST PUSH2 0xED1 JUMP JUMPDEST CALLVALUE DUP1 ISZERO PUSH2 0x59B JUMPI PUSH1 0x0 DUP1 REVERT JUMPDEST POP PUSH2 0x5AF PUSH2 0x5AA CALLDATASIZE PUSH1 0x4 PUSH2 0x3C37 JUMP JUMPDEST PUSH2 0xFFD JUMP JUMPDEST PUSH1 0x40 MLOAD PUSH2 0x3BD SWAP5 SWAP4 SWAP3 SWAP2 SWAP1 PUSH2 0x3F36 JUMP JUMPDEST CALLVALUE DUP1 ISZERO PUSH2 0x5CB JUMPI PUSH1 0x0 DUP1 REVERT JUMPDEST POP PUSH2 0x3DB PUSH2 0x5DA CALLDATASIZE PUSH1 0x4 PUSH2 0x3C37 JUMP JUMPDEST PUSH1 0x0 SWAP1 DUP2 MSTORE PUSH1 0x3 PUSH1 0x20 MSTORE PUSH1 0x40 SWAP1 KECCAK256 SLOAD PUSH1 0x1 PUSH1 0x1 PUSH1 0x40 SHL SUB AND SWAP1 JUMP JUMPDEST CALLVALUE DUP1 ISZERO PUSH2 0x601 JUMPI PUSH1 0x0 DUP1 REVERT JUMPDEST POP PUSH2 0x38A PUSH2 0x610 CALLDATASIZE PUSH1 0x4 PUSH2 0x3F6F JUMP JUMPDEST PUSH2 0x10D2 JUMP JUMPDEST CALLVALUE DUP1 ISZERO PUSH2 0x621 JUMPI PUSH1 0x0 DUP1 REVERT JUMPDEST POP PUSH2 0x3DB PUSH32 0xB3B3F3B703CD84CE352197DCFF232B1B5D3CFB2025CE47CF04742D0651F1AF88 DUP2 JUMP JUMPDEST CALLVALUE DUP1 ISZERO PUSH2 0x655 JUMPI PUSH1 0x0 DUP1 REVERT JUMPDEST POP PUSH2 0x38A PUSH2 0x664 CALLDATASIZE PUSH1 0x4 PUSH2 0x3F6F JUMP JUMPDEST PUSH2 0x10FC JUMP JUMPDEST CALLVALUE DUP1 ISZERO PUSH2 0x675 JUMPI PUSH1 0x0 DUP1 REVERT JUMPDEST POP PUSH2 0x3DB PUSH2 0x117A JUMP JUMPDEST CALLVALUE DUP1 ISZERO PUSH2 0x68A JUMPI PUSH1 0x0 DUP1 REVERT JUMPDEST POP PUSH2 0x3DB PUSH2 0x699 CALLDATASIZE PUSH1 0x4 PUSH2 0x3F9B JUMP JUMPDEST PUSH2 0x1185 JUMP JUMPDEST CALLVALUE DUP1 ISZERO PUSH2 0x6AA JUMPI PUSH1 0x0 DUP1 REVERT JUMPDEST POP PUSH2 0x6BE PUSH2 0x6B9 CALLDATASIZE PUSH1 0x4 PUSH2 0x3C37 JUMP JUMPDEST PUSH2 0x11FB JUMP JUMPDEST PUSH1 0x40 MLOAD PUSH2 0x3BD SWAP2 SWAP1 PUSH2 0x3FFF JUMP JUMPDEST CALLVALUE DUP1 ISZERO PUSH2 0x6D7 JUMPI PUSH1 0x0 DUP1 REVERT JUMPDEST POP PUSH2 0x719 PUSH2 0x6E6 CALLDATASIZE PUSH1 0x4 PUSH2 0x4019 JUMP JUMPDEST PUSH1 0x12 PUSH1 0x20 SWAP1 DUP2 MSTORE PUSH1 0x0 SWAP3 DUP4 MSTORE PUSH1 0x40 DUP1 DUP5 KECCAK256 SWAP1 SWAP2 MSTORE SWAP1 DUP3 MSTORE SWAP1 KECCAK256 PUSH1 0x1 ADD SLOAD PUSH1 0xFF DUP2 AND SWAP1 PUSH2 0x100 SWAP1 DIV PUSH1 0x1 PUSH1 0x1 PUSH1 0xA0 SHL SUB AND DUP3 JUMP JUMPDEST PUSH1 0x40 MLOAD PUSH2 0x3BD SWAP3 SWAP2 SWAP1 PUSH2 0x404B JUMP JUMPDEST CALLVALUE DUP1 ISZERO PUSH2 0x733 JUMPI PUSH1 0x0 DUP1 REVERT JUMPDEST POP PUSH2 0x719 PUSH2 0x742 CALLDATASIZE PUSH1 0x4 PUSH2 0x4019 JUMP JUMPDEST PUSH1 0x13 PUSH1 0x20 SWAP1 DUP2 MSTORE PUSH1 0x0 SWAP3 DUP4 MSTORE PUSH1 0x40 DUP1 DUP5 KECCAK256 SWAP1 SWAP2 MSTORE SWAP1 DUP3 MSTORE SWAP1 KECCAK256 PUSH1 0x1 ADD SLOAD PUSH1 0xFF DUP2 AND SWAP1 PUSH2 0x100 SWAP1 DIV PUSH1 0x1 PUSH1 0x1 PUSH1 0xA0 SHL SUB AND DUP3 JUMP JUMPDEST CALLVALUE DUP1 ISZERO PUSH2 0x781 JUMPI PUSH1 0x0 DUP1 REVERT JUMPDEST POP PUSH2 0x3B1 PUSH2 0x790 CALLDATASIZE PUSH1 0x4 PUSH2 0x3F6F JUMP JUMPDEST PUSH1 0x0 DUP3 DUP2 MSTORE PUSH1 0x9 PUSH1 0x20 SWAP1 DUP2 MSTORE PUSH1 0x40 DUP1 DUP4 KECCAK256 PUSH1 0x1 PUSH1 0x1 PUSH1 0xA0 SHL SUB DUP6 AND DUP5 MSTORE PUSH1 0x3 ADD SWAP1 SWAP2 MSTORE SWAP1 KECCAK256 SLOAD PUSH1 0xFF AND SWAP3 SWAP2 POP POP JUMP JUMPDEST CALLVALUE DUP1 ISZERO PUSH2 0x7CB JUMPI PUSH1 0x0 DUP1 REVERT JUMPDEST POP PUSH2 0x3DB PUSH2 0x7DA CALLDATASIZE PUSH1 0x4 PUSH2 0x3EA7 JUMP JUMPDEST PUSH2 0x1338 JUMP JUMPDEST CALLVALUE DUP1 ISZERO PUSH2 0x7EB JUMPI PUSH1 0x0 DUP1 REVERT JUMPDEST POP PUSH2 0x472 PUSH2 0x1449 JUMP JUMPDEST CALLVALUE DUP1 ISZERO PUSH2 0x800 JUMPI PUSH1 0x0 DUP1 REVERT JUMPDEST POP PUSH2 0x82E PUSH2 0x80F CALLDATASIZE PUSH1 0x4 PUSH2 0x3C37 JUMP JUMPDEST PUSH1 0x0 SWAP1 DUP2 MSTORE PUSH1 0x9 PUSH1 0x20 MSTORE PUSH1 0x40 SWAP1 KECCAK256 DUP1 SLOAD PUSH1 0x1 DUP3 ADD SLOAD PUSH1 0x2 SWAP1 SWAP3 ADD SLOAD SWAP1 SWAP3 JUMP JUMPDEST PUSH1 0x40 DUP1 MLOAD SWAP4 DUP5 MSTORE PUSH1 0x20 DUP5 ADD SWAP3 SWAP1 SWAP3 MSTORE SWAP1 DUP3 ADD MSTORE PUSH1 0x60 ADD PUSH2 0x3BD JUMP JUMPDEST CALLVALUE DUP1 ISZERO PUSH2 0x855 JUMPI PUSH1 0x0 DUP1 REVERT JUMPDEST POP PUSH1 0x40 DUP1 MLOAD DUP1 DUP3 ADD SWAP1 SWAP2 MSTORE PUSH1 0x1 DUP2 MSTORE PUSH1 0x31 PUSH1 0xF8 SHL PUSH1 0x20 DUP3 ADD MSTORE PUSH2 0x472 JUMP JUMPDEST CALLVALUE DUP1 ISZERO PUSH2 0x87F JUMPI PUSH1 0x0 DUP1 REVERT JUMPDEST POP PUSH2 0x3DB PUSH2 0x88E CALLDATASIZE PUSH1 0x4 PUSH2 0x4070 JUMP JUMPDEST PUSH2 0x151A JUMP JUMPDEST CALLVALUE DUP1 ISZERO PUSH2 0x89F JUMPI PUSH1 0x0 DUP1 REVERT JUMPDEST POP PUSH2 0x3DB PUSH2 0x8AE CALLDATASIZE PUSH1 0x4 PUSH2 0x4093 JUMP JUMPDEST PUSH2 0x1543 JUMP JUMPDEST CALLVALUE DUP1 ISZERO PUSH2 0x8BF JUMPI PUSH1 0x0 DUP1 REVERT JUMPDEST POP PUSH2 0x3DB PUSH2 0x8CE CALLDATASIZE PUSH1 0x4 PUSH2 0x3C37 JUMP JUMPDEST PUSH2 0x158D JUMP JUMPDEST CALLVALUE DUP1 ISZERO PUSH2 0x8DF JUMPI PUSH1 0x0 DUP1 REVERT JUMPDEST POP PUSH2 0x38A PUSH2 0x8EE CALLDATASIZE PUSH1 0x4 PUSH2 0x3C37 JUMP JUMPDEST PUSH2 0x163C JUMP JUMPDEST CALLVALUE DUP1 ISZERO PUSH2 0x8FF JUMPI PUSH1 0x0 DUP1 REVERT JUMPDEST POP PUSH2 0x913 PUSH2 0x90E CALLDATASIZE PUSH1 0x4 PUSH2 0x3C37 JUMP JUMPDEST PUSH2 0x1680 JUMP JUMPDEST PUSH1 0x40 MLOAD PUSH2 0x3BD SWAP5 SWAP4 SWAP3 SWAP2 SWAP1 PUSH2 0x4116 JUMP JUMPDEST CALLVALUE DUP1 ISZERO PUSH2 0x92F JUMPI PUSH1 0x0 DUP1 REVERT JUMPDEST POP PUSH2 0x3DB PUSH32 0x71F3D55856E4058ED06EE057D79ADA615F65CDF5F9EE88181B914225088F834F DUP2 JUMP JUMPDEST CALLVALUE DUP1 ISZERO PUSH2 0x963 JUMPI PUSH1 0x0 DUP1 REVERT JUMPDEST POP PUSH2 0x3DB PUSH2 0x972 CALLDATASIZE PUSH1 0x4 PUSH2 0x415C JUMP JUMPDEST PUSH2 0x17BC JUMP JUMPDEST CALLVALUE DUP1 ISZERO PUSH2 0x983 JUMPI PUSH1 0x0 DUP1 REVERT JUMPDEST POP PUSH2 0x3DB PUSH2 0x992 CALLDATASIZE PUSH1 0x4 PUSH2 0x41B5 JUMP JUMPDEST PUSH2 0x1804 JUMP JUMPDEST CALLVALUE DUP1 ISZERO PUSH2 0x9A3 JUMPI PUSH1 0x0 DUP1 REVERT JUMPDEST POP PUSH2 0x9AC PUSH2 0x1B86 JUMP JUMPDEST PUSH1 0x40 MLOAD PUSH2 0x3BD SWAP8 SWAP7 SWAP6 SWAP5 SWAP4 SWAP3 SWAP2 SWAP1 PUSH2 0x42A4 JUMP JUMPDEST CALLVALUE DUP1 ISZERO PUSH2 0x9CB JUMPI PUSH1 0x0 DUP1 REVERT JUMPDEST POP PUSH2 0x3B1 PUSH2 0x9DA CALLDATASIZE PUSH1 0x4 PUSH2 0x3F6F JUMP JUMPDEST PUSH2 0x1C0E JUMP JUMPDEST CALLVALUE DUP1 ISZERO PUSH2 0x9EB JUMPI PUSH1 0x0 DUP1 REVERT JUMPDEST POP PUSH2 0x9F4 PUSH2 0x1C39 JUMP JUMPDEST PUSH1 0x40 MLOAD PUSH6 0xFFFFFFFFFFFF SWAP1 SWAP2 AND DUP2 MSTORE PUSH1 0x20 ADD PUSH2 0x3BD JUMP JUMPDEST CALLVALUE DUP1 ISZERO PUSH2 0xA17 JUMPI PUSH1 0x0 DUP1 REVERT JUMPDEST POP PUSH1 0x64 PUSH2 0x3DB JUMP JUMPDEST CALLVALUE DUP1 ISZERO PUSH2 0xA2B JUMPI PUSH1 0x0 DUP1 REVERT JUMPDEST POP PUSH2 0x3DB PUSH2 0xA3A CALLDATASIZE PUSH1 0x4 PUSH2 0x4306 JUMP JUMPDEST PUSH2 0x1CD1 JUMP JUMPDEST CALLVALUE DUP1 ISZERO PUSH2 0xA4B JUMPI PUSH1 0x0 DUP1 REVERT JUMPDEST POP PUSH2 0x3DB PUSH1 0x0 DUP2 JUMP JUMPDEST CALLVALUE DUP1 ISZERO PUSH2 0xA60 JUMPI PUSH1 0x0 DUP1 REVERT JUMPDEST POP PUSH2 0x5AF PUSH2 0xA6F CALLDATASIZE PUSH1 0x4 PUSH2 0x3C37 JUMP JUMPDEST PUSH2 0x1CE8 JUMP JUMPDEST CALLVALUE DUP1 ISZERO PUSH2 0xA80 JUMPI PUSH1 0x0 DUP1 REVERT JUMPDEST POP PUSH2 0x3DB PUSH2 0x1CF8 JUMP JUMPDEST CALLVALUE DUP1 ISZERO PUSH2 0xA95 JUMPI PUSH1 0x0 DUP1 REVERT JUMPDEST POP PUSH2 0xAA9 PUSH2 0xAA4 CALLDATASIZE PUSH1 0x4 PUSH2 0x435C JUMP JUMPDEST PUSH2 0x1D22 JUMP JUMPDEST PUSH1 0x40 MLOAD PUSH2 0x3BD SWAP4 SWAP3 SWAP2 SWAP1 PUSH2 0x4377 JUMP JUMPDEST CALLVALUE DUP1 ISZERO PUSH2 0xAC4 JUMPI PUSH1 0x0 DUP1 REVERT JUMPDEST POP PUSH2 0x3DB PUSH2 0x1DD2 JUMP JUMPDEST CALLVALUE DUP1 ISZERO PUSH2 0xAD9 JUMPI PUSH1 0x0 DUP1 REVERT JUMPDEST POP PUSH2 0x533 PUSH2 0xAE8 CALLDATASIZE PUSH1 0x4 PUSH2 0x43A1 JUMP JUMPDEST PUSH4 0xBC197C81 PUSH1 0xE0 SHL SWAP6 SWAP5 POP POP POP POP POP JUMP JUMPDEST CALLVALUE DUP1 ISZERO PUSH2 0xB05 JUMPI PUSH1 0x0 DUP1 REVERT JUMPDEST POP PUSH2 0x3DB PUSH2 0xB14 CALLDATASIZE PUSH1 0x4 PUSH2 0x3C37 JUMP JUMPDEST PUSH1 0x0 SWAP1 DUP2 MSTORE PUSH1 0x3 PUSH1 0x20 MSTORE PUSH1 0x40 SWAP1 KECCAK256 PUSH1 0x1 ADD SLOAD PUSH1 0x1 PUSH1 0x1 PUSH1 0x40 SHL SUB AND SWAP1 JUMP JUMPDEST PUSH2 0x38A PUSH2 0xB40 CALLDATASIZE PUSH1 0x4 PUSH2 0x4430 JUMP JUMPDEST PUSH2 0x1DDD JUMP JUMPDEST CALLVALUE DUP1 ISZERO PUSH2 0xB51 JUMPI PUSH1 0x0 DUP1 REVERT JUMPDEST POP PUSH2 0x3DB PUSH2 0xB60 CALLDATASIZE PUSH1 0x4 PUSH2 0x3EA7 JUMP JUMPDEST PUSH2 0x1EA9 JUMP JUMPDEST CALLVALUE DUP1 ISZERO PUSH2 0xB71 JUMPI PUSH1 0x0 DUP1 REVERT JUMPDEST POP PUSH2 0x38A PUSH2 0xB80 CALLDATASIZE PUSH1 0x4 PUSH2 0x3F6F JUMP JUMPDEST PUSH2 0x1EE3 JUMP JUMPDEST CALLVALUE DUP1 ISZERO PUSH2 0xB91 JUMPI PUSH1 0x0 DUP1 REVERT JUMPDEST POP PUSH1 0x40 DUP1 MLOAD DUP1 DUP3 ADD SWAP1 SWAP2 MSTORE PUSH1 0x20 DUP1 DUP3 MSTORE PUSH32 0x737570706F72743D627261766F2671756F72756D3D666F722C6162737461696E SWAP1 DUP3 ADD MSTORE PUSH2 0x472 JUMP JUMPDEST CALLVALUE DUP1 ISZERO PUSH2 0xBD7 JUMPI PUSH1 0x0 DUP1 REVERT JUMPDEST POP PUSH2 0x3DB PUSH32 0x150214D74D59B7D1E90C73FC22EF3D991DD0A76B046543D4D80AB92D2A50328F DUP2 JUMP JUMPDEST CALLVALUE DUP1 ISZERO PUSH2 0xC0B JUMPI PUSH1 0x0 DUP1 REVERT JUMPDEST POP PUSH2 0x38A PUSH2 0xC1A CALLDATASIZE PUSH1 0x4 PUSH2 0x3C37 JUMP JUMPDEST PUSH2 0x1F08 JUMP JUMPDEST CALLVALUE DUP1 ISZERO PUSH2 0xC2B JUMPI PUSH1 0x0 DUP1 REVERT JUMPDEST POP PUSH2 0x3DB PUSH2 0xC3A CALLDATASIZE PUSH1 0x4 PUSH2 0x4471 JUMP JUMPDEST PUSH2 0x1F4C JUMP JUMPDEST CALLVALUE DUP1 ISZERO PUSH2 0xC4B JUMPI PUSH1 0x0 DUP1 REVERT JUMPDEST POP PUSH2 0x38A PUSH2 0xC5A CALLDATASIZE PUSH1 0x4 PUSH2 0x3C37 JUMP JUMPDEST PUSH2 0x1F6D JUMP JUMPDEST CALLVALUE DUP1 ISZERO PUSH2 0xC6B JUMPI PUSH1 0x0 DUP1 REVERT JUMPDEST POP PUSH2 0x533 PUSH2 0xC7A CALLDATASIZE PUSH1 0x4 PUSH2 0x449B JUMP JUMPDEST PUSH4 0xF23A6E61 PUSH1 0xE0 SHL SWAP6 SWAP5 POP POP POP POP POP JUMP JUMPDEST CALLVALUE DUP1 ISZERO PUSH2 0xC97 JUMPI PUSH1 0x0 DUP1 REVERT JUMPDEST POP PUSH2 0x3DB PUSH2 0xCA6 CALLDATASIZE PUSH1 0x4 PUSH2 0x3C37 JUMP JUMPDEST PUSH2 0x1FB1 JUMP JUMPDEST CALLVALUE DUP1 ISZERO PUSH2 0xCB7 JUMPI PUSH1 0x0 DUP1 REVERT JUMPDEST POP PUSH2 0x4F0 PUSH32 0x0 DUP2 JUMP JUMPDEST PUSH1 0x0 PUSH2 0xCEA DUP3 PUSH2 0x2191 JUMP JUMPDEST SWAP3 SWAP2 POP POP JUMP JUMPDEST PUSH1 0x0 PUSH2 0xCFB PUSH1 0x7 SLOAD SWAP1 JUMP JUMPDEST SWAP1 POP SWAP1 JUMP JUMPDEST PUSH1 0x0 DUP1 PUSH2 0xDA4 PUSH2 0xD9C PUSH32 0xB3B3F3B703CD84CE352197DCFF232B1B5D3CFB2025CE47CF04742D0651F1AF88 DUP13 DUP13 DUP13 DUP13 PUSH1 0x40 MLOAD PUSH2 0xD3C SWAP3 SWAP2 SWAP1 PUSH2 0x44FF JUMP JUMPDEST PUSH1 0x40 MLOAD DUP1 SWAP2 SUB SWAP1 KECCAK256 DUP12 DUP1 MLOAD SWAP1 PUSH1 0x20 ADD KECCAK256 PUSH1 0x40 MLOAD PUSH1 0x20 ADD PUSH2 0xD81 SWAP6 SWAP5 SWAP4 SWAP3 SWAP2 SWAP1 SWAP5 DUP6 MSTORE PUSH1 0x20 DUP6 ADD SWAP4 SWAP1 SWAP4 MSTORE PUSH1 0xFF SWAP2 SWAP1 SWAP2 AND PUSH1 0x40 DUP5 ADD MSTORE PUSH1 0x60 DUP4 ADD MSTORE PUSH1 0x80 DUP3 ADD MSTORE PUSH1 0xA0 ADD SWAP1 JUMP JUMPDEST PUSH1 0x40 MLOAD PUSH1 0x20 DUP2 DUP4 SUB SUB DUP2 MSTORE SWAP1 PUSH1 0x40 MSTORE DUP1 MLOAD SWAP1 PUSH1 0x20 ADD KECCAK256 PUSH2 0x21B6 JUMP JUMPDEST DUP7 DUP7 DUP7 PUSH2 0x21E3 JUMP JUMPDEST SWAP1 POP PUSH2 0xDEA DUP11 DUP3 DUP12 DUP12 DUP12 DUP1 DUP1 PUSH1 0x1F ADD PUSH1 0x20 DUP1 SWAP2 DIV MUL PUSH1 0x20 ADD PUSH1 0x40 MLOAD SWAP1 DUP2 ADD PUSH1 0x40 MSTORE DUP1 SWAP4 SWAP3 SWAP2 SWAP1 DUP2 DUP2 MSTORE PUSH1 0x20 ADD DUP4 DUP4 DUP1 DUP3 DUP5 CALLDATACOPY PUSH1 0x0 SWAP3 ADD SWAP2 SWAP1 SWAP2 MSTORE POP DUP14 SWAP3 POP PUSH2 0x2201 SWAP2 POP POP JUMP JUMPDEST SWAP11 SWAP10 POP POP POP POP POP POP POP POP POP POP JUMP JUMPDEST CALLER ADDRESS EQ PUSH2 0xE17 JUMPI PUSH1 0x40 MLOAD PUSH3 0x461BCD PUSH1 0xE5 SHL DUP2 MSTORE PUSH1 0x4 ADD PUSH2 0x381 SWAP1 PUSH2 0x450F JUMP JUMPDEST PUSH2 0xE33 JUMP JUMPDEST DUP1 PUSH2 0xE27 PUSH1 0x4 PUSH2 0x2353 JUMP JUMPDEST EQ PUSH2 0xE31 JUMPI PUSH2 0xE1C JUMP JUMPDEST POP JUMPDEST PUSH2 0xE3C DUP2 PUSH2 0x23D2 JUMP JUMPDEST POP JUMP JUMPDEST PUSH1 0x60 PUSH1 0x2 DUP1 SLOAD PUSH2 0xE4E SWAP1 PUSH2 0x4546 JUMP JUMPDEST DUP1 PUSH1 0x1F ADD PUSH1 0x20 DUP1 SWAP2 DIV MUL PUSH1 0x20 ADD PUSH1 0x40 MLOAD SWAP1 DUP2 ADD PUSH1 0x40 MSTORE DUP1 SWAP3 SWAP2 SWAP1 DUP2 DUP2 MSTORE PUSH1 0x20 ADD DUP3 DUP1 SLOAD PUSH2 0xE7A SWAP1 PUSH2 0x4546 JUMP JUMPDEST DUP1 ISZERO PUSH2 0xEC7 JUMPI DUP1 PUSH1 0x1F LT PUSH2 0xE9C JUMPI PUSH2 0x100 DUP1 DUP4 SLOAD DIV MUL DUP4 MSTORE SWAP2 PUSH1 0x20 ADD SWAP2 PUSH2 0xEC7 JUMP JUMPDEST DUP3 ADD SWAP2 SWAP1 PUSH1 0x0 MSTORE PUSH1 0x20 PUSH1 0x0 KECCAK256 SWAP1 JUMPDEST DUP2 SLOAD DUP2 MSTORE SWAP1 PUSH1 0x1 ADD SWAP1 PUSH1 0x20 ADD DUP1 DUP4 GT PUSH2 0xEAA JUMPI DUP3 SWAP1 SUB PUSH1 0x1F AND DUP3 ADD SWAP2 JUMPDEST POP POP POP POP POP SWAP1 POP SWAP1 JUMP JUMPDEST PUSH1 0x0 DUP1 PUSH2 0xEE0 DUP7 DUP7 DUP7 DUP7 PUSH2 0x1EA9 JUMP JUMPDEST SWAP1 POP PUSH1 0x0 PUSH2 0xEED DUP3 PUSH2 0x11FB JUMP JUMPDEST SWAP1 POP PUSH1 0x4 DUP2 PUSH1 0x7 DUP2 GT ISZERO PUSH2 0xF03 JUMPI PUSH2 0xF03 PUSH2 0x3FE9 JUMP JUMPDEST EQ DUP1 PUSH2 0xF20 JUMPI POP PUSH1 0x5 DUP2 PUSH1 0x7 DUP2 GT ISZERO PUSH2 0xF1E JUMPI PUSH2 0xF1E PUSH2 0x3FE9 JUMP JUMPDEST EQ JUMPDEST PUSH2 0xF76 JUMPI PUSH1 0x40 MLOAD PUSH3 0x461BCD PUSH1 0xE5 SHL DUP2 MSTORE PUSH1 0x20 PUSH1 0x4 DUP3 ADD MSTORE PUSH1 0x21 PUSH1 0x24 DUP3 ADD MSTORE PUSH32 0x476F7665726E6F723A2070726F706F73616C206E6F7420737563636573736675 PUSH1 0x44 DUP3 ADD MSTORE PUSH1 0x1B PUSH1 0xFA SHL PUSH1 0x64 DUP3 ADD MSTORE PUSH1 0x84 ADD PUSH2 0x381 JUMP JUMPDEST PUSH1 0x0 DUP3 DUP2 MSTORE PUSH1 0x3 PUSH1 0x20 MSTORE PUSH1 0x40 SWAP1 DUP2 SWAP1 KECCAK256 PUSH1 0x2 ADD DUP1 SLOAD PUSH1 0xFF NOT AND PUSH1 0x1 OR SWAP1 SSTORE MLOAD PUSH32 0x712AE1383F79AC853F8D882153778E0260EF8F03B504E2866E0593E04D2B291F SWAP1 PUSH2 0xFC4 SWAP1 DUP5 DUP2 MSTORE PUSH1 0x20 ADD SWAP1 JUMP JUMPDEST PUSH1 0x40 MLOAD DUP1 SWAP2 SUB SWAP1 LOG1 PUSH2 0xFD9 DUP3 DUP9 DUP9 DUP9 DUP9 PUSH2 0x2540 JUMP JUMPDEST PUSH2 0xFE6 DUP3 DUP9 DUP9 DUP9 DUP9 PUSH2 0x25CE JUMP JUMPDEST PUSH2 0xFF3 DUP3 DUP9 DUP9 DUP9 DUP9 PUSH2 0x2540 JUMP JUMPDEST POP SWAP6 SWAP5 POP POP POP POP POP JUMP JUMPDEST PUSH1 0xD DUP2 DUP2 SLOAD DUP2 LT PUSH2 0x100D JUMPI PUSH1 0x0 DUP1 REVERT JUMPDEST SWAP1 PUSH1 0x0 MSTORE PUSH1 0x20 PUSH1 0x0 KECCAK256 SWAP1 PUSH1 0x4 MUL ADD PUSH1 0x0 SWAP2 POP SWAP1 POP DUP1 PUSH1 0x0 ADD DUP1 SLOAD PUSH2 0x1030 SWAP1 PUSH2 0x4546 JUMP JUMPDEST DUP1 PUSH1 0x1F ADD PUSH1 0x20 DUP1 SWAP2 DIV MUL PUSH1 0x20 ADD PUSH1 0x40 MLOAD SWAP1 DUP2 ADD PUSH1 0x40 MSTORE DUP1 SWAP3 SWAP2 SWAP1 DUP2 DUP2 MSTORE PUSH1 0x20 ADD DUP3 DUP1 SLOAD PUSH2 0x105C SWAP1 PUSH2 0x4546 JUMP JUMPDEST DUP1 ISZERO PUSH2 0x10A9 JUMPI DUP1 PUSH1 0x1F LT PUSH2 0x107E JUMPI PUSH2 0x100 DUP1 DUP4 SLOAD DIV MUL DUP4 MSTORE SWAP2 PUSH1 0x20 ADD SWAP2 PUSH2 0x10A9 JUMP JUMPDEST DUP3 ADD SWAP2 SWAP1 PUSH1 0x0 MSTORE PUSH1 0x20 PUSH1 0x0 KECCAK256 SWAP1 JUMPDEST DUP2 SLOAD DUP2 MSTORE SWAP1 PUSH1 0x1 ADD SWAP1 PUSH1 0x20 ADD DUP1 DUP4 GT PUSH2 0x108C JUMPI DUP3 SWAP1 SUB PUSH1 0x1F AND DUP3 ADD SWAP2 JUMPDEST POP POP POP POP PUSH1 0x1 DUP4 ADD SLOAD PUSH1 0x2 DUP5 ADD SLOAD PUSH1 0x3 SWAP1 SWAP5 ADD SLOAD SWAP3 SWAP4 SWAP1 SWAP3 PUSH1 0x1 PUSH1 0x1 PUSH1 0xA0 SHL SUB SWAP2 DUP3 AND SWAP3 POP AND DUP5 JUMP JUMPDEST PUSH1 0x0 DUP3 DUP2 MSTORE PUSH1 0xC PUSH1 0x20 MSTORE PUSH1 0x40 SWAP1 KECCAK256 PUSH1 0x1 ADD SLOAD PUSH2 0x10ED DUP2 PUSH2 0x26C4 JUMP JUMPDEST PUSH2 0x10F7 DUP4 DUP4 PUSH2 0x26CE JUMP JUMPDEST POP POP POP JUMP JUMPDEST PUSH1 0x1 PUSH1 0x1 PUSH1 0xA0 SHL SUB DUP2 AND CALLER EQ PUSH2 0x116C JUMPI PUSH1 0x40 MLOAD PUSH3 0x461BCD PUSH1 0xE5 SHL DUP2 MSTORE PUSH1 0x20 PUSH1 0x4 DUP3 ADD MSTORE PUSH1 0x2F PUSH1 0x24 DUP3 ADD MSTORE PUSH32 0x416363657373436F6E74726F6C3A2063616E206F6E6C792072656E6F756E6365 PUSH1 0x44 DUP3 ADD MSTORE PUSH15 0x103937B632B9903337B91039B2B633 PUSH1 0x89 SHL PUSH1 0x64 DUP3 ADD MSTORE PUSH1 0x84 ADD PUSH2 0x381 JUMP JUMPDEST PUSH2 0x1176 DUP3 DUP3 PUSH2 0x2754 JUMP JUMPDEST POP POP JUMP JUMPDEST PUSH1 0x0 PUSH2 0xCFB PUSH1 0x6 SLOAD SWAP1 JUMP JUMPDEST PUSH1 0x40 DUP1 MLOAD PUSH32 0x150214D74D59B7D1E90C73FC22EF3D991DD0A76B046543D4D80AB92D2A50328F PUSH1 0x20 DUP3 ADD MSTORE SWAP1 DUP2 ADD DUP7 SWAP1 MSTORE PUSH1 0xFF DUP6 AND PUSH1 0x60 DUP3 ADD MSTORE PUSH1 0x0 SWAP1 DUP2 SWAP1 PUSH2 0x11D3 SWAP1 PUSH2 0xD9C SWAP1 PUSH1 0x80 ADD PUSH2 0xD81 JUMP JUMPDEST SWAP1 POP PUSH2 0x11F0 DUP8 DUP3 DUP9 PUSH1 0x40 MLOAD DUP1 PUSH1 0x20 ADD PUSH1 0x40 MSTORE DUP1 PUSH1 0x0 DUP2 MSTORE POP PUSH2 0x27BB JUMP JUMPDEST SWAP8 SWAP7 POP POP POP POP POP POP POP JUMP JUMPDEST PUSH1 0x0 DUP2 DUP2 MSTORE PUSH1 0x3 PUSH1 0x20 MSTORE PUSH1 0x40 DUP2 KECCAK256 PUSH1 0x2 DUP2 ADD SLOAD PUSH1 0xFF AND ISZERO PUSH2 0x121F JUMPI POP PUSH1 0x7 SWAP3 SWAP2 POP POP JUMP JUMPDEST PUSH1 0x2 DUP2 ADD SLOAD PUSH2 0x100 SWAP1 DIV PUSH1 0xFF AND ISZERO PUSH2 0x123A JUMPI POP PUSH1 0x2 SWAP3 SWAP2 POP POP JUMP JUMPDEST PUSH1 0x0 DUP4 DUP2 MSTORE PUSH1 0x3 PUSH1 0x20 MSTORE PUSH1 0x40 SWAP1 KECCAK256 SLOAD PUSH1 0x1 PUSH1 0x1 PUSH1 0x40 SHL SUB AND DUP1 PUSH2 0x129F JUMPI PUSH1 0x40 MLOAD PUSH3 0x461BCD PUSH1 0xE5 SHL DUP2 MSTORE PUSH1 0x20 PUSH1 0x4 DUP3 ADD MSTORE PUSH1 0x1D PUSH1 0x24 DUP3 ADD MSTORE PUSH32 0x476F7665726E6F723A20756E6B6E6F776E2070726F706F73616C206964000000 PUSH1 0x44 DUP3 ADD MSTORE PUSH1 0x64 ADD PUSH2 0x381 JUMP JUMPDEST PUSH1 0x0 PUSH2 0x12A9 PUSH2 0x1C39 JUMP JUMPDEST PUSH6 0xFFFFFFFFFFFF AND SWAP1 POP DUP1 DUP3 LT PUSH2 0x12C5 JUMPI POP PUSH1 0x0 SWAP5 SWAP4 POP POP POP POP JUMP JUMPDEST PUSH1 0x0 DUP6 DUP2 MSTORE PUSH1 0x3 PUSH1 0x20 MSTORE PUSH1 0x40 SWAP1 KECCAK256 PUSH1 0x1 ADD SLOAD PUSH1 0x1 PUSH1 0x1 PUSH1 0x40 SHL SUB AND DUP2 DUP2 LT PUSH2 0x12F3 JUMPI POP PUSH1 0x1 SWAP6 SWAP5 POP POP POP POP POP JUMP JUMPDEST PUSH2 0x12FC DUP7 PUSH2 0x27E7 JUMP JUMPDEST DUP1 ISZERO PUSH2 0x131B JUMPI POP PUSH1 0x0 DUP7 DUP2 MSTORE PUSH1 0x9 PUSH1 0x20 MSTORE PUSH1 0x40 SWAP1 KECCAK256 DUP1 SLOAD PUSH1 0x1 SWAP1 SWAP2 ADD SLOAD GT JUMPDEST ISZERO PUSH2 0x132C JUMPI POP PUSH1 0x4 SWAP6 SWAP5 POP POP POP POP POP JUMP JUMPDEST POP PUSH1 0x3 SWAP6 SWAP5 POP POP POP POP POP JUMP JUMPDEST PUSH1 0x0 DUP1 PUSH2 0x1347 DUP7 DUP7 DUP7 DUP7 PUSH2 0x1EA9 JUMP JUMPDEST SWAP1 POP PUSH1 0x0 PUSH2 0x1354 DUP3 PUSH2 0x11FB JUMP JUMPDEST PUSH1 0x7 DUP2 GT ISZERO PUSH2 0x1365 JUMPI PUSH2 0x1365 PUSH2 0x3FE9 JUMP JUMPDEST EQ PUSH2 0x13B2 JUMPI PUSH1 0x40 MLOAD PUSH3 0x461BCD PUSH1 0xE5 SHL DUP2 MSTORE PUSH1 0x20 PUSH1 0x4 DUP3 ADD MSTORE PUSH1 0x1C PUSH1 0x24 DUP3 ADD MSTORE PUSH32 0x476F7665726E6F723A20746F6F206C61746520746F2063616E63656C00000000 PUSH1 0x44 DUP3 ADD MSTORE PUSH1 0x64 ADD PUSH2 0x381 JUMP JUMPDEST PUSH1 0x0 DUP2 DUP2 MSTORE PUSH1 0x3 PUSH1 0x20 MSTORE PUSH1 0x40 SWAP1 KECCAK256 SLOAD PUSH1 0x1 PUSH1 0x40 SHL SWAP1 DIV PUSH1 0x1 PUSH1 0x1 PUSH1 0xA0 SHL SUB AND CALLER PUSH1 0x1 PUSH1 0x1 PUSH1 0xA0 SHL SUB AND EQ PUSH2 0x1433 JUMPI PUSH1 0x40 MLOAD PUSH3 0x461BCD PUSH1 0xE5 SHL DUP2 MSTORE PUSH1 0x20 PUSH1 0x4 DUP3 ADD MSTORE PUSH1 0x22 PUSH1 0x24 DUP3 ADD MSTORE PUSH32 0x476F7665726E6F723A206F6E6C792070726F706F7365722063616E2063616E63 PUSH1 0x44 DUP3 ADD MSTORE PUSH2 0x195B PUSH1 0xF2 SHL PUSH1 0x64 DUP3 ADD MSTORE PUSH1 0x84 ADD PUSH2 0x381 JUMP JUMPDEST PUSH2 0x143F DUP7 DUP7 DUP7 DUP7 PUSH2 0x2833 JUMP JUMPDEST SWAP7 SWAP6 POP POP POP POP POP POP JUMP JUMPDEST PUSH1 0x60 PUSH32 0x0 PUSH1 0x1 PUSH1 0x1 PUSH1 0xA0 SHL SUB AND PUSH4 0x4BF5D7E9 PUSH1 0x40 MLOAD DUP2 PUSH4 0xFFFFFFFF AND PUSH1 0xE0 SHL DUP2 MSTORE PUSH1 0x4 ADD PUSH1 0x0 PUSH1 0x40 MLOAD DUP1 DUP4 SUB DUP2 DUP7 DUP1 EXTCODESIZE ISZERO DUP1 ISZERO PUSH2 0x14A4 JUMPI PUSH1 0x0 DUP1 REVERT JUMPDEST POP GAS STATICCALL SWAP3 POP POP POP DUP1 ISZERO PUSH2 0x14D9 JUMPI POP PUSH1 0x40 MLOAD RETURNDATASIZE PUSH1 0x0 DUP3 RETURNDATACOPY PUSH1 0x1F RETURNDATASIZE SWAP1 DUP2 ADD PUSH1 0x1F NOT AND DUP3 ADD PUSH1 0x40 MSTORE PUSH2 0x14D6 SWAP2 SWAP1 DUP2 ADD SWAP1 PUSH2 0x4581 JUMP JUMPDEST PUSH1 0x1 JUMPDEST PUSH2 0x1515 JUMPI POP PUSH1 0x40 DUP1 MLOAD DUP1 DUP3 ADD SWAP1 SWAP2 MSTORE PUSH1 0x1D DUP2 MSTORE PUSH32 0x6D6F64653D626C6F636B6E756D6265722666726F6D3D64656661756C74000000 PUSH1 0x20 DUP3 ADD MSTORE SWAP1 JUMP JUMPDEST SWAP2 SWAP1 POP JUMP JUMPDEST PUSH1 0x0 DUP1 CALLER SWAP1 POP PUSH2 0x153B DUP5 DUP3 DUP6 PUSH1 0x40 MLOAD DUP1 PUSH1 0x20 ADD PUSH1 0x40 MSTORE DUP1 PUSH1 0x0 DUP2 MSTORE POP PUSH2 0x27BB JUMP JUMPDEST SWAP5 SWAP4 POP POP POP POP JUMP JUMPDEST PUSH1 0x0 DUP1 CALLER SWAP1 POP PUSH2 0x11F0 DUP8 DUP3 DUP9 DUP9 DUP9 DUP1 DUP1 PUSH1 0x1F ADD PUSH1 0x20 DUP1 SWAP2 DIV MUL PUSH1 0x20 ADD PUSH1 0x40 MLOAD SWAP1 DUP2 ADD PUSH1 0x40 MSTORE DUP1 SWAP4 SWAP3 SWAP2 SWAP1 DUP2 DUP2 MSTORE PUSH1 0x20 ADD DUP4 DUP4 DUP1 DUP3 DUP5 CALLDATACOPY PUSH1 0x0 SWAP3 ADD SWAP2 SWAP1 SWAP2 MSTORE POP DUP11 SWAP3 POP PUSH2 0x2201 SWAP2 POP POP JUMP JUMPDEST PUSH1 0xB SLOAD PUSH1 0x0 SWAP1 DUP1 PUSH2 0x15A2 JUMPI POP POP PUSH1 0xA SLOAD SWAP2 SWAP1 POP JUMP JUMPDEST PUSH1 0x0 PUSH1 0xB PUSH2 0x15B1 PUSH1 0x1 DUP5 PUSH2 0x4604 JUMP JUMPDEST DUP2 SLOAD DUP2 LT PUSH2 0x15C1 JUMPI PUSH2 0x15C1 PUSH2 0x461B JUMP JUMPDEST PUSH1 0x0 SWAP2 DUP3 MSTORE PUSH1 0x20 SWAP2 DUP3 SWAP1 KECCAK256 PUSH1 0x40 DUP1 MLOAD DUP1 DUP3 ADD SWAP1 SWAP2 MSTORE SWAP2 ADD SLOAD PUSH4 0xFFFFFFFF DUP2 AND DUP1 DUP4 MSTORE PUSH1 0x1 PUSH1 0x20 SHL SWAP1 SWAP2 DIV PUSH1 0x1 PUSH1 0x1 PUSH1 0xE0 SHL SUB AND SWAP3 DUP3 ADD SWAP3 SWAP1 SWAP3 MSTORE SWAP2 POP DUP5 LT PUSH2 0x1617 JUMPI PUSH1 0x20 ADD MLOAD PUSH1 0x1 PUSH1 0x1 PUSH1 0xE0 SHL SUB AND SWAP4 SWAP3 POP POP POP JUMP JUMPDEST PUSH2 0x162B PUSH2 0x1623 DUP6 PUSH2 0x2063 JUMP JUMPDEST PUSH1 0xB SWAP1 PUSH2 0x2951 JUMP JUMPDEST PUSH1 0x1 PUSH1 0x1 PUSH1 0xE0 SHL SUB AND SWAP5 SWAP4 POP POP POP POP JUMP JUMPDEST CALLER ADDRESS EQ PUSH2 0x165B JUMPI PUSH1 0x40 MLOAD PUSH3 0x461BCD PUSH1 0xE5 SHL DUP2 MSTORE PUSH1 0x4 ADD PUSH2 0x381 SWAP1 PUSH2 0x450F JUMP JUMPDEST PUSH2 0x1677 JUMP JUMPDEST DUP1 PUSH2 0x166B PUSH1 0x4 PUSH2 0x2353 JUMP JUMPDEST EQ PUSH2 0x1675 JUMPI PUSH2 0x1660 JUMP JUMPDEST POP JUMPDEST PUSH2 0xE3C DUP2 PUSH2 0x29F6 JUMP JUMPDEST PUSH1 0x11 PUSH1 0x20 MSTORE PUSH1 0x0 SWAP1 DUP2 MSTORE PUSH1 0x40 SWAP1 KECCAK256 DUP1 SLOAD DUP2 SWAP1 PUSH2 0x169B SWAP1 PUSH2 0x4546 JUMP JUMPDEST DUP1 PUSH1 0x1F ADD PUSH1 0x20 DUP1 SWAP2 DIV MUL PUSH1 0x20 ADD PUSH1 0x40 MLOAD SWAP1 DUP2 ADD PUSH1 0x40 MSTORE DUP1 SWAP3 SWAP2 SWAP1 DUP2 DUP2 MSTORE PUSH1 0x20 ADD DUP3 DUP1 SLOAD PUSH2 0x16C7 SWAP1 PUSH2 0x4546 JUMP JUMPDEST DUP1 ISZERO PUSH2 0x1714 JUMPI DUP1 PUSH1 0x1F LT PUSH2 0x16E9 JUMPI PUSH2 0x100 DUP1 DUP4 SLOAD DIV MUL DUP4 MSTORE SWAP2 PUSH1 0x20 ADD SWAP2 PUSH2 0x1714 JUMP JUMPDEST DUP3 ADD SWAP2 SWAP1 PUSH1 0x0 MSTORE PUSH1 0x20 PUSH1 0x0 KECCAK256 SWAP1 JUMPDEST DUP2 SLOAD DUP2 MSTORE SWAP1 PUSH1 0x1 ADD SWAP1 PUSH1 0x20 ADD DUP1 DUP4 GT PUSH2 0x16F7 JUMPI DUP3 SWAP1 SUB PUSH1 0x1F AND DUP3 ADD SWAP2 JUMPDEST POP POP POP POP POP SWAP1 DUP1 PUSH1 0x1 ADD DUP1 SLOAD PUSH2 0x1729 SWAP1 PUSH2 0x4546 JUMP JUMPDEST DUP1 PUSH1 0x1F ADD PUSH1 0x20 DUP1 SWAP2 DIV MUL PUSH1 0x20 ADD PUSH1 0x40 MLOAD SWAP1 DUP2 ADD PUSH1 0x40 MSTORE DUP1 SWAP3 SWAP2 SWAP1 DUP2 DUP2 MSTORE PUSH1 0x20 ADD DUP3 DUP1 SLOAD PUSH2 0x1755 SWAP1 PUSH2 0x4546 JUMP JUMPDEST DUP1 ISZERO PUSH2 0x17A2 JUMPI DUP1 PUSH1 0x1F LT PUSH2 0x1777 JUMPI PUSH2 0x100 DUP1 DUP4 SLOAD DIV MUL DUP4 MSTORE SWAP2 PUSH1 0x20 ADD SWAP2 PUSH2 0x17A2 JUMP JUMPDEST DUP3 ADD SWAP2 SWAP1 PUSH1 0x0 MSTORE PUSH1 0x20 PUSH1 0x0 KECCAK256 SWAP1 JUMPDEST DUP2 SLOAD DUP2 MSTORE SWAP1 PUSH1 0x1 ADD SWAP1 PUSH1 0x20 ADD DUP1 DUP4 GT PUSH2 0x1785 JUMPI DUP3 SWAP1 SUB PUSH1 0x1F AND DUP3 ADD SWAP2 JUMPDEST POP POP POP POP PUSH1 0x3 DUP4 ADD SLOAD PUSH1 0x4 SWAP1 SWAP4 ADD SLOAD SWAP2 SWAP3 SWAP2 PUSH1 0xFF AND SWAP1 POP DUP5 JUMP JUMPDEST PUSH1 0x0 DUP1 CALLER SWAP1 POP PUSH2 0x143F DUP7 DUP3 DUP8 DUP8 DUP8 DUP1 DUP1 PUSH1 0x1F ADD PUSH1 0x20 DUP1 SWAP2 DIV MUL PUSH1 0x20 ADD PUSH1 0x40 MLOAD SWAP1 DUP2 ADD PUSH1 0x40 MSTORE DUP1 SWAP4 SWAP3 SWAP2 SWAP1 DUP2 DUP2 MSTORE PUSH1 0x20 ADD DUP4 DUP4 DUP1 DUP3 DUP5 CALLDATACOPY PUSH1 0x0 SWAP3 ADD SWAP2 SWAP1 SWAP2 MSTORE POP PUSH2 0x27BB SWAP3 POP POP POP JUMP JUMPDEST PUSH1 0x0 CALLER DUP2 PUSH2 0x1810 PUSH2 0x1C39 JUMP JUMPDEST PUSH6 0xFFFFFFFFFFFF AND SWAP1 POP PUSH2 0x1822 PUSH2 0x1DD2 JUMP JUMPDEST PUSH2 0x1831 DUP4 PUSH2 0xC3A PUSH1 0x1 DUP6 PUSH2 0x4604 JUMP JUMPDEST LT ISZERO PUSH2 0x1899 JUMPI PUSH1 0x40 MLOAD PUSH3 0x461BCD PUSH1 0xE5 SHL DUP2 MSTORE PUSH1 0x20 PUSH1 0x4 DUP3 ADD MSTORE PUSH1 0x31 PUSH1 0x24 DUP3 ADD MSTORE PUSH32 0x476F7665726E6F723A2070726F706F73657220766F7465732062656C6F772070 PUSH1 0x44 DUP3 ADD MSTORE PUSH17 0x1C9BDC1BDCD85B081D1A1C995CDA1BDB19 PUSH1 0x7A SHL PUSH1 0x64 DUP3 ADD MSTORE PUSH1 0x84 ADD PUSH2 0x381 JUMP JUMPDEST PUSH1 0x0 PUSH2 0x18AE DUP9 DUP9 DUP9 DUP9 DUP1 MLOAD SWAP1 PUSH1 0x20 ADD KECCAK256 PUSH2 0x1EA9 JUMP JUMPDEST SWAP1 POP DUP7 MLOAD DUP9 MLOAD EQ PUSH2 0x18D1 JUMPI PUSH1 0x40 MLOAD PUSH3 0x461BCD PUSH1 0xE5 SHL DUP2 MSTORE PUSH1 0x4 ADD PUSH2 0x381 SWAP1 PUSH2 0x4631 JUMP JUMPDEST DUP6 MLOAD DUP9 MLOAD EQ PUSH2 0x18F2 JUMPI PUSH1 0x40 MLOAD PUSH3 0x461BCD PUSH1 0xE5 SHL DUP2 MSTORE PUSH1 0x4 ADD PUSH2 0x381 SWAP1 PUSH2 0x4631 JUMP JUMPDEST PUSH1 0x0 DUP9 MLOAD GT PUSH2 0x1943 JUMPI PUSH1 0x40 MLOAD PUSH3 0x461BCD PUSH1 0xE5 SHL DUP2 MSTORE PUSH1 0x20 PUSH1 0x4 DUP3 ADD MSTORE PUSH1 0x18 PUSH1 0x24 DUP3 ADD MSTORE PUSH32 0x476F7665726E6F723A20656D7074792070726F706F73616C0000000000000000 PUSH1 0x44 DUP3 ADD MSTORE PUSH1 0x64 ADD PUSH2 0x381 JUMP JUMPDEST PUSH1 0x0 DUP2 DUP2 MSTORE PUSH1 0x3 PUSH1 0x20 MSTORE PUSH1 0x40 SWAP1 KECCAK256 SLOAD PUSH1 0x1 PUSH1 0x1 PUSH1 0x40 SHL SUB AND ISZERO PUSH2 0x19B2 JUMPI PUSH1 0x40 MLOAD PUSH3 0x461BCD PUSH1 0xE5 SHL DUP2 MSTORE PUSH1 0x20 PUSH1 0x4 DUP3 ADD MSTORE PUSH1 0x21 PUSH1 0x24 DUP3 ADD MSTORE PUSH32 0x476F7665726E6F723A2070726F706F73616C20616C7265616479206578697374 PUSH1 0x44 DUP3 ADD MSTORE PUSH1 0x73 PUSH1 0xF8 SHL PUSH1 0x64 DUP3 ADD MSTORE PUSH1 0x84 ADD PUSH2 0x381 JUMP JUMPDEST PUSH1 0x0 PUSH2 0x19BC PUSH2 0x117A JUMP JUMPDEST PUSH2 0x19C6 SWAP1 DUP5 PUSH2 0x4672 JUMP JUMPDEST SWAP1 POP PUSH1 0x0 PUSH2 0x19D2 PUSH2 0xCF0 JUMP JUMPDEST PUSH2 0x19DC SWAP1 DUP4 PUSH2 0x4672 JUMP JUMPDEST SWAP1 POP PUSH1 0x40 MLOAD DUP1 PUSH1 0xE0 ADD PUSH1 0x40 MSTORE DUP1 PUSH2 0x19F2 DUP5 PUSH2 0x2A37 JUMP JUMPDEST PUSH1 0x1 PUSH1 0x1 PUSH1 0x40 SHL SUB AND DUP2 MSTORE PUSH1 0x1 PUSH1 0x1 PUSH1 0xA0 SHL SUB DUP8 AND PUSH1 0x20 DUP3 ADD MSTORE PUSH1 0x0 PUSH1 0x40 DUP3 ADD MSTORE PUSH1 0x60 ADD PUSH2 0x1A1F DUP4 PUSH2 0x2A37 JUMP JUMPDEST PUSH1 0x1 PUSH1 0x1 PUSH1 0x40 SHL SUB SWAP1 DUP2 AND DUP3 MSTORE PUSH1 0x0 PUSH1 0x20 DUP1 DUP5 ADD DUP3 SWAP1 MSTORE PUSH1 0x40 DUP1 DUP6 ADD DUP4 SWAP1 MSTORE PUSH1 0x60 SWAP5 DUP6 ADD DUP4 SWAP1 MSTORE DUP9 DUP4 MSTORE PUSH1 0x3 DUP3 MSTORE SWAP2 DUP3 SWAP1 KECCAK256 DUP6 MLOAD DUP2 SLOAD SWAP3 DUP8 ADD MLOAD DUP8 DUP6 ADD MLOAD SWAP2 DUP7 AND PUSH1 0x1 PUSH1 0x1 PUSH1 0xE0 SHL SUB NOT SWAP1 SWAP5 AND SWAP4 SWAP1 SWAP4 OR PUSH1 0x1 PUSH1 0x40 SHL PUSH1 0x1 PUSH1 0x1 PUSH1 0xA0 SHL SUB SWAP1 SWAP5 AND DUP5 MUL OR PUSH1 0x1 PUSH1 0x1 PUSH1 0xE0 SHL SUB AND PUSH1 0x1 PUSH1 0xE0 SHL PUSH1 0xE0 SWAP3 SWAP1 SWAP3 SHR SWAP2 SWAP1 SWAP2 MUL OR DUP2 SSTORE SWAP4 DUP6 ADD MLOAD PUSH1 0x80 DUP7 ADD MLOAD SWAP1 DUP5 AND SWAP3 SHR MUL OR PUSH1 0x1 DUP4 ADD SSTORE PUSH1 0xA0 DUP4 ADD MLOAD PUSH1 0x2 SWAP1 SWAP3 ADD DUP1 SLOAD PUSH1 0xC0 SWAP1 SWAP5 ADD MLOAD PUSH2 0xFFFF NOT SWAP1 SWAP5 AND SWAP3 ISZERO ISZERO PUSH2 0xFF00 NOT AND SWAP3 SWAP1 SWAP3 OR PUSH2 0x100 SWAP4 ISZERO ISZERO SWAP4 SWAP1 SWAP4 MUL SWAP3 SWAP1 SWAP3 OR SWAP1 SSTORE DUP11 MLOAD PUSH32 0x7D84A6263AE0D98D3329BD7B46BB4E8D6F98CD35A7ADB45C274C8B7FD5EBD5E0 SWAP2 DUP6 SWAP2 DUP9 SWAP2 DUP15 SWAP2 DUP15 SWAP2 DUP2 GT ISZERO PUSH2 0x1B23 JUMPI PUSH2 0x1B23 PUSH2 0x3AC6 JUMP JUMPDEST PUSH1 0x40 MLOAD SWAP1 DUP1 DUP3 MSTORE DUP1 PUSH1 0x20 MUL PUSH1 0x20 ADD DUP3 ADD PUSH1 0x40 MSTORE DUP1 ISZERO PUSH2 0x1B56 JUMPI DUP2 PUSH1 0x20 ADD JUMPDEST PUSH1 0x60 DUP2 MSTORE PUSH1 0x20 ADD SWAP1 PUSH1 0x1 SWAP1 SUB SWAP1 DUP2 PUSH2 0x1B41 JUMPI SWAP1 POP JUMPDEST POP DUP14 DUP9 DUP9 DUP16 PUSH1 0x40 MLOAD PUSH2 0x1B70 SWAP10 SWAP9 SWAP8 SWAP7 SWAP6 SWAP5 SWAP4 SWAP3 SWAP2 SWAP1 PUSH2 0x471B JUMP JUMPDEST PUSH1 0x40 MLOAD DUP1 SWAP2 SUB SWAP1 LOG1 POP SWAP1 SWAP9 SWAP8 POP POP POP POP POP POP POP POP JUMP JUMPDEST PUSH1 0x0 PUSH1 0x60 DUP1 DUP3 DUP1 DUP1 DUP4 PUSH2 0x1BB9 PUSH32 0x0 DUP4 PUSH2 0x2A9F JUMP JUMPDEST PUSH2 0x1BE4 PUSH32 0x0 PUSH1 0x1 PUSH2 0x2A9F JUMP JUMPDEST PUSH1 0x40 DUP1 MLOAD PUSH1 0x0 DUP1 DUP3 MSTORE PUSH1 0x20 DUP3 ADD SWAP1 SWAP3 MSTORE PUSH1 0xF PUSH1 0xF8 SHL SWAP12 SWAP4 SWAP11 POP SWAP2 SWAP9 POP CHAINID SWAP8 POP ADDRESS SWAP7 POP SWAP5 POP SWAP3 POP SWAP1 POP JUMP JUMPDEST PUSH1 0x0 SWAP2 DUP3 MSTORE PUSH1 0xC PUSH1 0x20 SWAP1 DUP2 MSTORE PUSH1 0x40 DUP1 DUP5 KECCAK256 PUSH1 0x1 PUSH1 0x1 PUSH1 0xA0 SHL SUB SWAP4 SWAP1 SWAP4 AND DUP5 MSTORE SWAP2 SWAP1 MSTORE SWAP1 KECCAK256 SLOAD PUSH1 0xFF AND SWAP1 JUMP JUMPDEST PUSH1 0x0 PUSH32 0x0 PUSH1 0x1 PUSH1 0x1 PUSH1 0xA0 SHL SUB AND PUSH4 0x91DDADF4 PUSH1 0x40 MLOAD DUP2 PUSH4 0xFFFFFFFF AND PUSH1 0xE0 SHL DUP2 MSTORE PUSH1 0x4 ADD PUSH1 0x20 PUSH1 0x40 MLOAD DUP1 DUP4 SUB DUP2 DUP7 DUP1 EXTCODESIZE ISZERO DUP1 ISZERO PUSH2 0x1C94 JUMPI PUSH1 0x0 DUP1 REVERT JUMPDEST POP GAS STATICCALL SWAP3 POP POP POP DUP1 ISZERO PUSH2 0x1CC4 JUMPI POP PUSH1 0x40 DUP1 MLOAD PUSH1 0x1F RETURNDATASIZE SWAP1 DUP2 ADD PUSH1 0x1F NOT AND DUP3 ADD SWAP1 SWAP3 MSTORE PUSH2 0x1CC1 SWAP2 DUP2 ADD SWAP1 PUSH2 0x47F2 JUMP JUMPDEST PUSH1 0x1 JUMPDEST PUSH2 0x1515 JUMPI PUSH2 0xCFB NUMBER PUSH2 0x212A JUMP JUMPDEST PUSH1 0x0 PUSH2 0x1CDE DUP5 DUP5 DUP5 PUSH2 0x2B43 JUMP JUMPDEST SWAP1 POP JUMPDEST SWAP4 SWAP3 POP POP POP JUMP JUMPDEST PUSH1 0xE DUP2 DUP2 SLOAD DUP2 LT PUSH2 0x100D JUMPI PUSH1 0x0 DUP1 REVERT JUMPDEST PUSH1 0xB SLOAD PUSH1 0x0 SWAP1 ISZERO PUSH2 0x1D1B JUMPI PUSH2 0x1D0D PUSH1 0xB PUSH2 0x20E3 JUMP JUMPDEST PUSH1 0x1 PUSH1 0x1 PUSH1 0xE0 SHL SUB AND SWAP1 POP SWAP1 JUMP JUMPDEST POP PUSH1 0xA SLOAD SWAP1 JUMP JUMPDEST PUSH1 0xF PUSH1 0x20 MSTORE PUSH1 0x0 SWAP1 DUP2 MSTORE PUSH1 0x40 SWAP1 KECCAK256 DUP1 SLOAD DUP2 SWAP1 PUSH2 0x1D3D SWAP1 PUSH2 0x4546 JUMP JUMPDEST DUP1 PUSH1 0x1F ADD PUSH1 0x20 DUP1 SWAP2 DIV MUL PUSH1 0x20 ADD PUSH1 0x40 MLOAD SWAP1 DUP2 ADD PUSH1 0x40 MSTORE DUP1 SWAP3 SWAP2 SWAP1 DUP2 DUP2 MSTORE PUSH1 0x20 ADD DUP3 DUP1 SLOAD PUSH2 0x1D69 SWAP1 PUSH2 0x4546 JUMP JUMPDEST DUP1 ISZERO PUSH2 0x1DB6 JUMPI DUP1 PUSH1 0x1F LT PUSH2 0x1D8B JUMPI PUSH2 0x100 DUP1 DUP4 SLOAD DIV MUL DUP4 MSTORE SWAP2 PUSH1 0x20 ADD SWAP2 PUSH2 0x1DB6 JUMP JUMPDEST DUP3 ADD SWAP2 SWAP1 PUSH1 0x0 MSTORE PUSH1 0x20 PUSH1 0x0 KECCAK256 SWAP1 JUMPDEST DUP2 SLOAD DUP2 MSTORE SWAP1 PUSH1 0x1 ADD SWAP1 PUSH1 0x20 ADD DUP1 DUP4 GT PUSH2 0x1D99 JUMPI DUP3 SWAP1 SUB PUSH1 0x1F AND DUP3 ADD SWAP2 JUMPDEST POP POP POP PUSH1 0x1 SWAP1 SWAP4 ADD SLOAD SWAP2 SWAP3 POP POP PUSH1 0xFF DUP1 DUP3 AND SWAP2 PUSH2 0x100 SWAP1 DIV AND DUP4 JUMP JUMPDEST PUSH1 0x0 PUSH2 0xCFB PUSH1 0x8 SLOAD SWAP1 JUMP JUMPDEST CALLER ADDRESS EQ PUSH2 0x1DFC JUMPI PUSH1 0x40 MLOAD PUSH3 0x461BCD PUSH1 0xE5 SHL DUP2 MSTORE PUSH1 0x4 ADD PUSH2 0x381 SWAP1 PUSH2 0x450F JUMP JUMPDEST PUSH2 0x1E18 JUMP JUMPDEST DUP1 PUSH2 0x1E0C PUSH1 0x4 PUSH2 0x2353 JUMP JUMPDEST EQ PUSH2 0x1E16 JUMPI PUSH2 0x1E01 JUMP JUMPDEST POP JUMPDEST PUSH1 0x0 DUP1 DUP6 PUSH1 0x1 PUSH1 0x1 PUSH1 0xA0 SHL SUB AND DUP6 DUP6 DUP6 PUSH1 0x40 MLOAD PUSH2 0x1E36 SWAP3 SWAP2 SWAP1 PUSH2 0x44FF JUMP JUMPDEST PUSH1 0x0 PUSH1 0x40 MLOAD DUP1 DUP4 SUB DUP2 DUP6 DUP8 GAS CALL SWAP3 POP POP POP RETURNDATASIZE DUP1 PUSH1 0x0 DUP2 EQ PUSH2 0x1E73 JUMPI PUSH1 0x40 MLOAD SWAP2 POP PUSH1 0x1F NOT PUSH1 0x3F RETURNDATASIZE ADD AND DUP3 ADD PUSH1 0x40 MSTORE RETURNDATASIZE DUP3 MSTORE RETURNDATASIZE PUSH1 0x0 PUSH1 0x20 DUP5 ADD RETURNDATACOPY PUSH2 0x1E78 JUMP JUMPDEST PUSH1 0x60 SWAP2 POP JUMPDEST POP SWAP2 POP SWAP2 POP PUSH2 0x1EA0 DUP3 DUP3 PUSH1 0x40 MLOAD DUP1 PUSH1 0x60 ADD PUSH1 0x40 MSTORE DUP1 PUSH1 0x28 DUP2 MSTORE PUSH1 0x20 ADD PUSH2 0x4A2B PUSH1 0x28 SWAP2 CODECOPY PUSH2 0x2BE8 JUMP JUMPDEST POP POP POP POP POP POP POP JUMP JUMPDEST PUSH1 0x0 DUP5 DUP5 DUP5 DUP5 PUSH1 0x40 MLOAD PUSH1 0x20 ADD PUSH2 0x1EC2 SWAP5 SWAP4 SWAP3 SWAP2 SWAP1 PUSH2 0x481A JUMP JUMPDEST PUSH1 0x40 DUP1 MLOAD PUSH1 0x1F NOT DUP2 DUP5 SUB ADD DUP2 MSTORE SWAP2 SWAP1 MSTORE DUP1 MLOAD PUSH1 0x20 SWAP1 SWAP2 ADD KECCAK256 SWAP6 SWAP5 POP POP POP POP POP JUMP JUMPDEST PUSH1 0x0 DUP3 DUP2 MSTORE PUSH1 0xC PUSH1 0x20 MSTORE PUSH1 0x40 SWAP1 KECCAK256 PUSH1 0x1 ADD SLOAD PUSH2 0x1EFE DUP2 PUSH2 0x26C4 JUMP JUMPDEST PUSH2 0x10F7 DUP4 DUP4 PUSH2 0x2754 JUMP JUMPDEST CALLER ADDRESS EQ PUSH2 0x1F27 JUMPI PUSH1 0x40 MLOAD PUSH3 0x461BCD PUSH1 0xE5 SHL DUP2 MSTORE PUSH1 0x4 ADD PUSH2 0x381 SWAP1 PUSH2 0x450F JUMP JUMPDEST PUSH2 0x1F43 JUMP JUMPDEST DUP1 PUSH2 0x1F37 PUSH1 0x4 PUSH2 0x2353 JUMP JUMPDEST EQ PUSH2 0x1F41 JUMPI PUSH2 0x1F2C JUMP JUMPDEST POP JUMPDEST PUSH2 0xE3C DUP2 PUSH2 0x2C01 JUMP JUMPDEST PUSH1 0x0 PUSH2 0x1CE1 DUP4 DUP4 PUSH2 0x1F68 PUSH1 0x40 DUP1 MLOAD PUSH1 0x20 DUP2 ADD SWAP1 SWAP2 MSTORE PUSH1 0x0 DUP2 MSTORE SWAP1 JUMP JUMPDEST PUSH2 0x2B43 JUMP JUMPDEST CALLER ADDRESS EQ PUSH2 0x1F8C JUMPI PUSH1 0x40 MLOAD PUSH3 0x461BCD PUSH1 0xE5 SHL DUP2 MSTORE PUSH1 0x4 ADD PUSH2 0x381 SWAP1 PUSH2 0x450F JUMP JUMPDEST PUSH2 0x1FA8 JUMP JUMPDEST DUP1 PUSH2 0x1F9C PUSH1 0x4 PUSH2 0x2353 JUMP JUMPDEST EQ PUSH2 0x1FA6 JUMPI PUSH2 0x1F91 JUMP JUMPDEST POP JUMPDEST PUSH2 0xE3C DUP2 PUSH2 0x2CA2 JUMP JUMPDEST PUSH1 0x0 PUSH2 0xCEA DUP3 PUSH2 0x2CE3 JUMP JUMPDEST PUSH1 0x0 PUSH1 0x20 DUP4 MLOAD LT ISZERO PUSH2 0x1FD8 JUMPI PUSH2 0x1FD1 DUP4 PUSH2 0x2D9C JUMP JUMPDEST SWAP1 POP PUSH2 0xCEA JUMP JUMPDEST DUP3 DUP3 DUP2 MLOAD PUSH2 0x1FE9 SWAP3 PUSH1 0x20 ADD SWAP1 PUSH2 0x39B3 JUMP JUMPDEST POP PUSH1 0xFF SWAP1 POP PUSH2 0xCEA JUMP JUMPDEST SWAP1 JUMP JUMPDEST PUSH1 0x0 PUSH1 0x1 PUSH1 0x1 PUSH1 0xE0 SHL SUB DUP3 GT ISZERO PUSH2 0x205F JUMPI PUSH1 0x40 MLOAD PUSH3 0x461BCD PUSH1 0xE5 SHL DUP2 MSTORE PUSH1 0x20 PUSH1 0x4 DUP3 ADD MSTORE PUSH1 0x27 PUSH1 0x24 DUP3 ADD MSTORE PUSH32 0x53616665436173743A2076616C756520646F65736E27742066697420696E2032 PUSH1 0x44 DUP3 ADD MSTORE PUSH7 0x32342062697473 PUSH1 0xC8 SHL PUSH1 0x64 DUP3 ADD MSTORE PUSH1 0x84 ADD PUSH2 0x381 JUMP JUMPDEST POP SWAP1 JUMP JUMPDEST PUSH1 0x0 PUSH4 0xFFFFFFFF DUP3 GT ISZERO PUSH2 0x205F JUMPI PUSH1 0x40 MLOAD PUSH3 0x461BCD PUSH1 0xE5 SHL DUP2 MSTORE PUSH1 0x20 PUSH1 0x4 DUP3 ADD MSTORE PUSH1 0x26 PUSH1 0x24 DUP3 ADD MSTORE PUSH32 0x53616665436173743A2076616C756520646F65736E27742066697420696E2033 PUSH1 0x44 DUP3 ADD MSTORE PUSH6 0x322062697473 PUSH1 0xD0 SHL PUSH1 0x64 DUP3 ADD MSTORE PUSH1 0x84 ADD PUSH2 0x381 JUMP JUMPDEST PUSH1 0x0 DUP1 PUSH2 0x20D6 DUP6 DUP6 DUP6 PUSH2 0x2DDA JUMP JUMPDEST SWAP2 POP SWAP2 POP JUMPDEST SWAP4 POP SWAP4 SWAP2 POP POP JUMP JUMPDEST DUP1 SLOAD PUSH1 0x0 SWAP1 DUP1 ISZERO PUSH2 0x2121 JUMPI PUSH2 0x210B DUP4 PUSH2 0x20FD PUSH1 0x1 DUP5 PUSH2 0x4604 JUMP JUMPDEST PUSH1 0x0 SWAP2 DUP3 MSTORE PUSH1 0x20 SWAP1 SWAP2 KECCAK256 ADD SWAP1 JUMP JUMPDEST SLOAD PUSH1 0x1 PUSH1 0x20 SHL SWAP1 DIV PUSH1 0x1 PUSH1 0x1 PUSH1 0xE0 SHL SUB AND PUSH2 0x1CE1 JUMP JUMPDEST PUSH1 0x0 SWAP4 SWAP3 POP POP POP JUMP JUMPDEST PUSH1 0x0 PUSH6 0xFFFFFFFFFFFF DUP3 GT ISZERO PUSH2 0x205F JUMPI PUSH1 0x40 MLOAD PUSH3 0x461BCD PUSH1 0xE5 SHL DUP2 MSTORE PUSH1 0x20 PUSH1 0x4 DUP3 ADD MSTORE PUSH1 0x26 PUSH1 0x24 DUP3 ADD MSTORE PUSH32 0x53616665436173743A2076616C756520646F65736E27742066697420696E2034 PUSH1 0x44 DUP3 ADD MSTORE PUSH6 0x382062697473 PUSH1 0xD0 SHL PUSH1 0x64 DUP3 ADD MSTORE PUSH1 0x84 ADD PUSH2 0x381 JUMP JUMPDEST PUSH1 0x0 PUSH1 0x1 PUSH1 0x1 PUSH1 0xE0 SHL SUB NOT DUP3 AND PUSH4 0x7965DB0B PUSH1 0xE0 SHL EQ DUP1 PUSH2 0xCEA JUMPI POP PUSH2 0xCEA DUP3 PUSH2 0x2F80 JUMP JUMPDEST PUSH1 0x0 PUSH2 0xCEA PUSH2 0x21C3 PUSH2 0x301C JUMP JUMPDEST DUP4 PUSH1 0x40 MLOAD PUSH2 0x1901 PUSH1 0xF0 SHL DUP2 MSTORE PUSH1 0x2 DUP2 ADD SWAP3 SWAP1 SWAP3 MSTORE PUSH1 0x22 DUP3 ADD MSTORE PUSH1 0x42 SWAP1 KECCAK256 SWAP1 JUMP JUMPDEST PUSH1 0x0 DUP1 PUSH1 0x0 PUSH2 0x21F4 DUP8 DUP8 DUP8 DUP8 PUSH2 0x3147 JUMP JUMPDEST SWAP2 POP SWAP2 POP PUSH2 0xFF3 DUP2 PUSH2 0x320B JUMP JUMPDEST PUSH1 0x0 DUP6 DUP2 MSTORE PUSH1 0x3 PUSH1 0x20 MSTORE PUSH1 0x40 DUP2 KECCAK256 PUSH1 0x1 PUSH2 0x221A DUP9 PUSH2 0x11FB JUMP JUMPDEST PUSH1 0x7 DUP2 GT ISZERO PUSH2 0x222B JUMPI PUSH2 0x222B PUSH2 0x3FE9 JUMP JUMPDEST EQ PUSH2 0x2284 JUMPI PUSH1 0x40 MLOAD PUSH3 0x461BCD PUSH1 0xE5 SHL DUP2 MSTORE PUSH1 0x20 PUSH1 0x4 DUP3 ADD MSTORE PUSH1 0x23 PUSH1 0x24 DUP3 ADD MSTORE PUSH32 0x476F7665726E6F723A20766F7465206E6F742063757272656E746C7920616374 PUSH1 0x44 DUP3 ADD MSTORE PUSH3 0x697665 PUSH1 0xE8 SHL PUSH1 0x64 DUP3 ADD MSTORE PUSH1 0x84 ADD PUSH2 0x381 JUMP JUMPDEST DUP1 SLOAD PUSH1 0x0 SWAP1 PUSH2 0x229E SWAP1 DUP9 SWAP1 PUSH1 0x1 PUSH1 0x1 PUSH1 0x40 SHL SUB AND DUP7 PUSH2 0x2B43 JUMP JUMPDEST SWAP1 POP PUSH2 0x22AD DUP9 DUP9 DUP9 DUP5 DUP9 PUSH2 0x3359 JUMP JUMPDEST DUP4 MLOAD PUSH2 0x22FF JUMPI DUP7 PUSH1 0x1 PUSH1 0x1 PUSH1 0xA0 SHL SUB AND PUSH32 0xB8E138887D0AA13BAB447E82DE9D5C1777041ECD21CA36BA824FF1E6C07DDDA4 DUP10 DUP9 DUP5 DUP10 PUSH1 0x40 MLOAD PUSH2 0x22F2 SWAP5 SWAP4 SWAP3 SWAP2 SWAP1 PUSH2 0x4865 JUMP JUMPDEST PUSH1 0x40 MLOAD DUP1 SWAP2 SUB SWAP1 LOG2 PUSH2 0x11F0 JUMP JUMPDEST DUP7 PUSH1 0x1 PUSH1 0x1 PUSH1 0xA0 SHL SUB AND PUSH32 0xE2BABFBAC5889A709B63BB7F598B324E08BC5A4FB9EC647FB3CBC9EC07EB8712 DUP10 DUP9 DUP5 DUP10 DUP10 PUSH1 0x40 MLOAD PUSH2 0x2340 SWAP6 SWAP5 SWAP4 SWAP3 SWAP2 SWAP1 PUSH2 0x488D JUMP JUMPDEST PUSH1 0x40 MLOAD DUP1 SWAP2 SUB SWAP1 LOG2 SWAP8 SWAP7 POP POP POP POP POP POP POP JUMP JUMPDEST PUSH1 0x0 PUSH2 0x236E DUP3 SLOAD PUSH1 0xF DUP2 DUP2 SIGNEXTEND PUSH1 0x1 PUSH1 0x80 SHL SWAP1 SWAP3 DIV SWAP1 SIGNEXTEND SGT ISZERO SWAP1 JUMP JUMPDEST ISZERO PUSH2 0x238C JUMPI PUSH1 0x40 MLOAD PUSH4 0x1ED95095 PUSH1 0xE1 SHL DUP2 MSTORE PUSH1 0x4 ADD PUSH1 0x40 MLOAD DUP1 SWAP2 SUB SWAP1 REVERT JUMPDEST POP DUP1 SLOAD PUSH1 0xF SIGNEXTEND PUSH1 0x0 DUP2 DUP2 MSTORE PUSH1 0x1 DUP1 DUP5 ADD PUSH1 0x20 MSTORE PUSH1 0x40 DUP3 KECCAK256 DUP1 SLOAD SWAP3 SWAP1 SSTORE DUP4 SLOAD PUSH16 0xFFFFFFFFFFFFFFFFFFFFFFFFFFFFFFFF NOT AND SWAP3 ADD PUSH1 0x1 PUSH1 0x1 PUSH1 0x80 SHL SUB AND SWAP2 SWAP1 SWAP2 OR SWAP1 SWAP2 SSTORE SWAP1 JUMP JUMPDEST PUSH1 0x64 DUP2 GT ISZERO PUSH2 0x2455 JUMPI PUSH1 0x40 MLOAD PUSH3 0x461BCD PUSH1 0xE5 SHL DUP2 MSTORE PUSH1 0x20 PUSH1 0x4 DUP3 ADD MSTORE PUSH1 0x43 PUSH1 0x24 DUP3 ADD MSTORE PUSH32 0x476F7665726E6F72566F74657351756F72756D4672616374696F6E3A2071756F PUSH1 0x44 DUP3 ADD MSTORE PUSH32 0x72756D4E756D657261746F72206F7665722071756F72756D44656E6F6D696E61 PUSH1 0x64 DUP3 ADD MSTORE PUSH3 0x3A37B9 PUSH1 0xE9 SHL PUSH1 0x84 DUP3 ADD MSTORE PUSH1 0xA4 ADD PUSH2 0x381 JUMP JUMPDEST PUSH1 0x0 PUSH2 0x245F PUSH2 0x1CF8 JUMP JUMPDEST SWAP1 POP DUP1 ISZERO DUP1 ISZERO SWAP1 PUSH2 0x2470 JUMPI POP PUSH1 0xB SLOAD ISZERO JUMPDEST ISZERO PUSH2 0x24D4 JUMPI PUSH1 0x40 DUP1 MLOAD DUP1 DUP3 ADD SWAP1 SWAP2 MSTORE PUSH1 0x0 DUP2 MSTORE PUSH1 0xB SWAP1 PUSH1 0x20 DUP2 ADD PUSH2 0x2493 DUP5 PUSH2 0x1FF6 JUMP JUMPDEST PUSH1 0x1 PUSH1 0x1 PUSH1 0xE0 SHL SUB SWAP1 DUP2 AND SWAP1 SWAP2 MSTORE DUP3 SLOAD PUSH1 0x1 DUP2 ADD DUP5 SSTORE PUSH1 0x0 SWAP4 DUP5 MSTORE PUSH1 0x20 SWAP4 DUP5 SWAP1 KECCAK256 DUP4 MLOAD SWAP5 SWAP1 SWAP4 ADD MLOAD SWAP1 SWAP2 AND PUSH1 0x1 PUSH1 0x20 SHL MUL PUSH4 0xFFFFFFFF SWAP1 SWAP4 AND SWAP3 SWAP1 SWAP3 OR SWAP2 ADD SSTORE JUMPDEST PUSH2 0x2501 PUSH2 0x24EF PUSH2 0x24E2 PUSH2 0x1C39 JUMP JUMPDEST PUSH6 0xFFFFFFFFFFFF AND PUSH2 0x2063 JUMP JUMPDEST PUSH2 0x24F8 DUP5 PUSH2 0x1FF6 JUMP JUMPDEST PUSH1 0xB SWAP2 SWAP1 PUSH2 0x20C8 JUMP JUMPDEST POP POP PUSH1 0x40 DUP1 MLOAD DUP3 DUP2 MSTORE PUSH1 0x20 DUP2 ADD DUP5 SWAP1 MSTORE PUSH32 0x553476BF02EF2726E8CE5CED78D63E26E602E4A2257B1F559418E24B4633997 SWAP2 ADD PUSH1 0x40 MLOAD DUP1 SWAP2 SUB SWAP1 LOG1 POP POP JUMP JUMPDEST PUSH2 0x25C7 JUMP JUMPDEST DUP5 MLOAD DUP2 LT ISZERO PUSH2 0x25C5 JUMPI ADDRESS PUSH1 0x1 PUSH1 0x1 PUSH1 0xA0 SHL SUB AND DUP6 DUP3 DUP2 MLOAD DUP2 LT PUSH2 0x256A JUMPI PUSH2 0x256A PUSH2 0x461B JUMP JUMPDEST PUSH1 0x20 MUL PUSH1 0x20 ADD ADD MLOAD PUSH1 0x1 PUSH1 0x1 PUSH1 0xA0 SHL SUB AND EQ ISZERO PUSH2 0x25B5 JUMPI PUSH2 0x25B5 DUP4 DUP3 DUP2 MLOAD DUP2 LT PUSH2 0x2596 JUMPI PUSH2 0x2596 PUSH2 0x461B JUMP JUMPDEST PUSH1 0x20 MUL PUSH1 0x20 ADD ADD MLOAD DUP1 MLOAD SWAP1 PUSH1 0x20 ADD KECCAK256 PUSH1 0x4 PUSH2 0x34D8 SWAP1 SWAP2 SWAP1 PUSH4 0xFFFFFFFF AND JUMP JUMPDEST PUSH2 0x25BE DUP2 PUSH2 0x48D3 JUMP JUMPDEST SWAP1 POP PUSH2 0x2545 JUMP JUMPDEST POP JUMPDEST POP POP POP POP POP JUMP JUMPDEST PUSH1 0x0 PUSH1 0x40 MLOAD DUP1 PUSH1 0x60 ADD PUSH1 0x40 MSTORE DUP1 PUSH1 0x27 DUP2 MSTORE PUSH1 0x20 ADD PUSH2 0x4A53 PUSH1 0x27 SWAP2 CODECOPY SWAP1 POP PUSH1 0x0 JUMPDEST DUP6 MLOAD DUP2 LT ISZERO PUSH2 0x1EA0 JUMPI PUSH1 0x0 DUP1 DUP8 DUP4 DUP2 MLOAD DUP2 LT PUSH2 0x260C JUMPI PUSH2 0x260C PUSH2 0x461B JUMP JUMPDEST PUSH1 0x20 MUL PUSH1 0x20 ADD ADD MLOAD PUSH1 0x1 PUSH1 0x1 PUSH1 0xA0 SHL SUB AND DUP8 DUP5 DUP2 MLOAD DUP2 LT PUSH2 0x262F JUMPI PUSH2 0x262F PUSH2 0x461B JUMP JUMPDEST PUSH1 0x20 MUL PUSH1 0x20 ADD ADD MLOAD DUP8 DUP6 DUP2 MLOAD DUP2 LT PUSH2 0x2649 JUMPI PUSH2 0x2649 PUSH2 0x461B JUMP JUMPDEST PUSH1 0x20 MUL PUSH1 0x20 ADD ADD MLOAD PUSH1 0x40 MLOAD PUSH2 0x265E SWAP2 SWAP1 PUSH2 0x48EE JUMP JUMPDEST PUSH1 0x0 PUSH1 0x40 MLOAD DUP1 DUP4 SUB DUP2 DUP6 DUP8 GAS CALL SWAP3 POP POP POP RETURNDATASIZE DUP1 PUSH1 0x0 DUP2 EQ PUSH2 0x269B JUMPI PUSH1 0x40 MLOAD SWAP2 POP PUSH1 0x1F NOT PUSH1 0x3F RETURNDATASIZE ADD AND DUP3 ADD PUSH1 0x40 MSTORE RETURNDATASIZE DUP3 MSTORE RETURNDATASIZE PUSH1 0x0 PUSH1 0x20 DUP5 ADD RETURNDATACOPY PUSH2 0x26A0 JUMP JUMPDEST PUSH1 0x60 SWAP2 POP JUMPDEST POP SWAP2 POP SWAP2 POP PUSH2 0x26B0 DUP3 DUP3 DUP7 PUSH2 0x2BE8 JUMP JUMPDEST POP POP POP DUP1 PUSH2 0x26BD SWAP1 PUSH2 0x48D3 JUMP JUMPDEST SWAP1 POP PUSH2 0x25EE JUMP JUMPDEST PUSH2 0xE3C DUP2 CALLER PUSH2 0x3514 JUMP JUMPDEST PUSH2 0x26D8 DUP3 DUP3 PUSH2 0x1C0E JUMP JUMPDEST PUSH2 0x1176 JUMPI PUSH1 0x0 DUP3 DUP2 MSTORE PUSH1 0xC PUSH1 0x20 SWAP1 DUP2 MSTORE PUSH1 0x40 DUP1 DUP4 KECCAK256 PUSH1 0x1 PUSH1 0x1 PUSH1 0xA0 SHL SUB DUP6 AND DUP5 MSTORE SWAP1 SWAP2 MSTORE SWAP1 KECCAK256 DUP1 SLOAD PUSH1 0xFF NOT AND PUSH1 0x1 OR SWAP1 SSTORE PUSH2 0x2710 CALLER SWAP1 JUMP JUMPDEST PUSH1 0x1 PUSH1 0x1 PUSH1 0xA0 SHL SUB AND DUP2 PUSH1 0x1 PUSH1 0x1 PUSH1 0xA0 SHL SUB AND DUP4 PUSH32 0x2F8788117E7EFF1D82E926EC794901D17C78024A50270940304540A733656F0D PUSH1 0x40 MLOAD PUSH1 0x40 MLOAD DUP1 SWAP2 SUB SWAP1 LOG4 POP POP JUMP JUMPDEST PUSH2 0x275E DUP3 DUP3 PUSH2 0x1C0E JUMP JUMPDEST ISZERO PUSH2 0x1176 JUMPI PUSH1 0x0 DUP3 DUP2 MSTORE PUSH1 0xC PUSH1 0x20 SWAP1 DUP2 MSTORE PUSH1 0x40 DUP1 DUP4 KECCAK256 PUSH1 0x1 PUSH1 0x1 PUSH1 0xA0 SHL SUB DUP6 AND DUP1 DUP6 MSTORE SWAP3 MSTORE DUP1 DUP4 KECCAK256 DUP1 SLOAD PUSH1 0xFF NOT AND SWAP1 SSTORE MLOAD CALLER SWAP3 DUP6 SWAP2 PUSH32 0xF6391F5C32D9C69D2A47EA670B442974B53935D1EDC7FD64EB21E047A839171B SWAP2 SWAP1 LOG4 POP POP JUMP JUMPDEST PUSH1 0x0 PUSH2 0x27DE DUP6 DUP6 DUP6 DUP6 PUSH2 0x27D9 PUSH1 0x40 DUP1 MLOAD PUSH1 0x20 DUP2 ADD SWAP1 SWAP2 MSTORE PUSH1 0x0 DUP2 MSTORE SWAP1 JUMP JUMPDEST PUSH2 0x2201 JUMP JUMPDEST SWAP6 SWAP5 POP POP POP POP POP JUMP JUMPDEST PUSH1 0x0 DUP2 DUP2 MSTORE PUSH1 0x9 PUSH1 0x20 MSTORE PUSH1 0x40 DUP2 KECCAK256 PUSH1 0x2 DUP2 ADD SLOAD PUSH1 0x1 DUP3 ADD SLOAD PUSH2 0x2809 SWAP2 SWAP1 PUSH2 0x4672 JUMP JUMPDEST PUSH1 0x0 DUP5 DUP2 MSTORE PUSH1 0x3 PUSH1 0x20 MSTORE PUSH1 0x40 SWAP1 KECCAK256 SLOAD PUSH2 0x282A SWAP1 PUSH1 0x1 PUSH1 0x1 PUSH1 0x40 SHL SUB AND PUSH2 0x1FB1 JUMP JUMPDEST GT ISZERO SWAP4 SWAP3 POP POP POP JUMP JUMPDEST PUSH1 0x0 DUP1 PUSH2 0x2842 DUP7 DUP7 DUP7 DUP7 PUSH2 0x1EA9 JUMP JUMPDEST SWAP1 POP PUSH1 0x0 PUSH2 0x284F DUP3 PUSH2 0x11FB JUMP JUMPDEST SWAP1 POP PUSH1 0x2 DUP2 PUSH1 0x7 DUP2 GT ISZERO PUSH2 0x2865 JUMPI PUSH2 0x2865 PUSH2 0x3FE9 JUMP JUMPDEST EQ ISZERO DUP1 ISZERO PUSH2 0x2885 JUMPI POP PUSH1 0x6 DUP2 PUSH1 0x7 DUP2 GT ISZERO PUSH2 0x2882 JUMPI PUSH2 0x2882 PUSH2 0x3FE9 JUMP JUMPDEST EQ ISZERO JUMPDEST DUP1 ISZERO PUSH2 0x28A3 JUMPI POP PUSH1 0x7 DUP2 PUSH1 0x7 DUP2 GT ISZERO PUSH2 0x28A0 JUMPI PUSH2 0x28A0 PUSH2 0x3FE9 JUMP JUMPDEST EQ ISZERO JUMPDEST PUSH2 0x28EF JUMPI PUSH1 0x40 MLOAD PUSH3 0x461BCD PUSH1 0xE5 SHL DUP2 MSTORE PUSH1 0x20 PUSH1 0x4 DUP3 ADD MSTORE PUSH1 0x1D PUSH1 0x24 DUP3 ADD MSTORE PUSH32 0x476F7665726E6F723A2070726F706F73616C206E6F7420616374697665000000 PUSH1 0x44 DUP3 ADD MSTORE PUSH1 0x64 ADD PUSH2 0x381 JUMP JUMPDEST PUSH1 0x0 DUP3 DUP2 MSTORE PUSH1 0x3 PUSH1 0x20 MSTORE PUSH1 0x40 SWAP1 DUP2 SWAP1 KECCAK256 PUSH1 0x2 ADD DUP1 SLOAD PUSH2 0xFF00 NOT AND PUSH2 0x100 OR SWAP1 SSTORE MLOAD PUSH32 0x789CF55BE980739DAD1D0699B93B58E806B51C9D96619BFA8FE0A28ABAA7B30C SWAP1 PUSH2 0x293F SWAP1 DUP5 DUP2 MSTORE PUSH1 0x20 ADD SWAP1 JUMP JUMPDEST PUSH1 0x40 MLOAD DUP1 SWAP2 SUB SWAP1 LOG1 POP SWAP6 SWAP5 POP POP POP POP POP JUMP JUMPDEST DUP2 SLOAD PUSH1 0x0 SWAP1 DUP2 DUP2 PUSH1 0x5 DUP2 GT ISZERO PUSH2 0x29AE JUMPI PUSH1 0x0 PUSH2 0x296C DUP5 PUSH2 0x356D JUMP JUMPDEST PUSH2 0x2976 SWAP1 DUP6 PUSH2 0x4604 JUMP JUMPDEST PUSH1 0x0 DUP9 DUP2 MSTORE PUSH1 0x20 SWAP1 KECCAK256 SWAP1 SWAP2 POP DUP2 ADD SLOAD PUSH4 0xFFFFFFFF SWAP1 DUP2 AND SWAP1 DUP8 AND LT ISZERO PUSH2 0x299E JUMPI DUP1 SWAP2 POP PUSH2 0x29AC JUMP JUMPDEST PUSH2 0x29A9 DUP2 PUSH1 0x1 PUSH2 0x4672 JUMP JUMPDEST SWAP3 POP JUMPDEST POP JUMPDEST PUSH1 0x0 PUSH2 0x29BC DUP8 DUP8 DUP6 DUP6 PUSH2 0x3652 JUMP JUMPDEST SWAP1 POP DUP1 ISZERO PUSH2 0x29E9 JUMPI PUSH2 0x29D3 DUP8 PUSH2 0x20FD PUSH1 0x1 DUP5 PUSH2 0x4604 JUMP JUMPDEST SLOAD PUSH1 0x1 PUSH1 0x20 SHL SWAP1 DIV PUSH1 0x1 PUSH1 0x1 PUSH1 0xE0 SHL SUB AND PUSH2 0x11F0 JUMP JUMPDEST PUSH1 0x0 SWAP8 SWAP7 POP POP POP POP POP POP POP JUMP JUMPDEST PUSH1 0x6 SLOAD PUSH1 0x40 DUP1 MLOAD SWAP2 DUP3 MSTORE PUSH1 0x20 DUP3 ADD DUP4 SWAP1 MSTORE PUSH32 0xC565B045403DC03C2EEA82B81A0465EDAD9E2E7FC4D97E11421C209DA93D7A93 SWAP2 ADD PUSH1 0x40 MLOAD DUP1 SWAP2 SUB SWAP1 LOG1 PUSH1 0x6 SSTORE JUMP JUMPDEST PUSH1 0x0 PUSH1 0x1 PUSH1 0x1 PUSH1 0x40 SHL SUB DUP3 GT ISZERO PUSH2 0x205F JUMPI PUSH1 0x40 MLOAD PUSH3 0x461BCD PUSH1 0xE5 SHL DUP2 MSTORE PUSH1 0x20 PUSH1 0x4 DUP3 ADD MSTORE PUSH1 0x26 PUSH1 0x24 DUP3 ADD MSTORE PUSH32 0x53616665436173743A2076616C756520646F65736E27742066697420696E2036 PUSH1 0x44 DUP3 ADD MSTORE PUSH6 0x342062697473 PUSH1 0xD0 SHL PUSH1 0x64 DUP3 ADD MSTORE PUSH1 0x84 ADD PUSH2 0x381 JUMP JUMPDEST PUSH1 0x60 PUSH1 0xFF DUP4 EQ PUSH2 0x2AB2 JUMPI PUSH2 0x1FD1 DUP4 PUSH2 0x36B0 JUMP JUMPDEST DUP2 DUP1 SLOAD PUSH2 0x2ABE SWAP1 PUSH2 0x4546 JUMP JUMPDEST DUP1 PUSH1 0x1F ADD PUSH1 0x20 DUP1 SWAP2 DIV MUL PUSH1 0x20 ADD PUSH1 0x40 MLOAD SWAP1 DUP2 ADD PUSH1 0x40 MSTORE DUP1 SWAP3 SWAP2 SWAP1 DUP2 DUP2 MSTORE PUSH1 0x20 ADD DUP3 DUP1 SLOAD PUSH2 0x2AEA SWAP1 PUSH2 0x4546 JUMP JUMPDEST DUP1 ISZERO PUSH2 0x2B37 JUMPI DUP1 PUSH1 0x1F LT PUSH2 0x2B0C JUMPI PUSH2 0x100 DUP1 DUP4 SLOAD DIV MUL DUP4 MSTORE SWAP2 PUSH1 0x20 ADD SWAP2 PUSH2 0x2B37 JUMP JUMPDEST DUP3 ADD SWAP2 SWAP1 PUSH1 0x0 MSTORE PUSH1 0x20 PUSH1 0x0 KECCAK256 SWAP1 JUMPDEST DUP2 SLOAD DUP2 MSTORE SWAP1 PUSH1 0x1 ADD SWAP1 PUSH1 0x20 ADD DUP1 DUP4 GT PUSH2 0x2B1A JUMPI DUP3 SWAP1 SUB PUSH1 0x1F AND DUP3 ADD SWAP2 JUMPDEST POP POP POP POP POP SWAP1 POP PUSH2 0xCEA JUMP JUMPDEST PUSH1 0x40 MLOAD PUSH4 0x748D635 PUSH1 0xE3 SHL DUP2 MSTORE PUSH1 0x1 PUSH1 0x1 PUSH1 0xA0 SHL SUB DUP5 DUP2 AND PUSH1 0x4 DUP4 ADD MSTORE PUSH1 0x24 DUP3 ADD DUP5 SWAP1 MSTORE PUSH1 0x0 SWAP2 PUSH32 0x0 SWAP1 SWAP2 AND SWAP1 PUSH4 0x3A46B1A8 SWAP1 PUSH1 0x44 ADD PUSH1 0x20 PUSH1 0x40 MLOAD DUP1 DUP4 SUB DUP2 DUP7 DUP1 EXTCODESIZE ISZERO DUP1 ISZERO PUSH2 0x2BB0 JUMPI PUSH1 0x0 DUP1 REVERT JUMPDEST POP GAS STATICCALL ISZERO DUP1 ISZERO PUSH2 0x2BC4 JUMPI RETURNDATASIZE PUSH1 0x0 DUP1 RETURNDATACOPY RETURNDATASIZE PUSH1 0x0 REVERT JUMPDEST POP POP POP POP PUSH1 0x40 MLOAD RETURNDATASIZE PUSH1 0x1F NOT PUSH1 0x1F DUP3 ADD AND DUP3 ADD DUP1 PUSH1 0x40 MSTORE POP DUP2 ADD SWAP1 PUSH2 0x1CDE SWAP2 SWAP1 PUSH2 0x490A JUMP JUMPDEST PUSH1 0x60 DUP4 ISZERO PUSH2 0x2BF7 JUMPI POP DUP2 PUSH2 0x1CE1 JUMP JUMPDEST PUSH2 0x1CE1 DUP4 DUP4 PUSH2 0x36EF JUMP JUMPDEST PUSH1 0x0 DUP2 GT PUSH2 0x2C61 JUMPI PUSH1 0x40 MLOAD PUSH3 0x461BCD PUSH1 0xE5 SHL DUP2 MSTORE PUSH1 0x20 PUSH1 0x4 DUP3 ADD MSTORE PUSH1 0x27 PUSH1 0x24 DUP3 ADD MSTORE PUSH32 0x476F7665726E6F7253657474696E67733A20766F74696E6720706572696F6420 PUSH1 0x44 DUP3 ADD MSTORE PUSH7 0x746F6F206C6F77 PUSH1 0xC8 SHL PUSH1 0x64 DUP3 ADD MSTORE PUSH1 0x84 ADD PUSH2 0x381 JUMP JUMPDEST PUSH1 0x7 SLOAD PUSH1 0x40 DUP1 MLOAD SWAP2 DUP3 MSTORE PUSH1 0x20 DUP3 ADD DUP4 SWAP1 MSTORE PUSH32 0x7E3F7F0708A84DE9203036ABAA450DCCC85AD5FF52F78C170F3EDB55CF5E8828 SWAP2 ADD PUSH1 0x40 MLOAD DUP1 SWAP2 SUB SWAP1 LOG1 PUSH1 0x7 SSTORE JUMP JUMPDEST PUSH1 0x8 SLOAD PUSH1 0x40 DUP1 MLOAD SWAP2 DUP3 MSTORE PUSH1 0x20 DUP3 ADD DUP4 SWAP1 MSTORE PUSH32 0xCCB45DA8D5717E6C4544694297C4BA5CF151D455C9BB0ED4FC7A38411BC05461 SWAP2 ADD PUSH1 0x40 MLOAD DUP1 SWAP2 SUB SWAP1 LOG1 PUSH1 0x8 SSTORE JUMP JUMPDEST PUSH1 0x0 PUSH1 0x64 PUSH2 0x2CF0 DUP4 PUSH2 0x158D JUMP JUMPDEST PUSH1 0x40 MLOAD PUSH4 0x2394E7A3 PUSH1 0xE2 SHL DUP2 MSTORE PUSH1 0x4 DUP2 ADD DUP6 SWAP1 MSTORE PUSH32 0x0 PUSH1 0x1 PUSH1 0x1 PUSH1 0xA0 SHL SUB AND SWAP1 PUSH4 0x8E539E8C SWAP1 PUSH1 0x24 ADD PUSH1 0x20 PUSH1 0x40 MLOAD DUP1 DUP4 SUB DUP2 DUP7 DUP1 EXTCODESIZE ISZERO DUP1 ISZERO PUSH2 0x2D50 JUMPI PUSH1 0x0 DUP1 REVERT JUMPDEST POP GAS STATICCALL ISZERO DUP1 ISZERO PUSH2 0x2D64 JUMPI RETURNDATASIZE PUSH1 0x0 DUP1 RETURNDATACOPY RETURNDATASIZE PUSH1 0x0 REVERT JUMPDEST POP POP POP POP PUSH1 0x40 MLOAD RETURNDATASIZE PUSH1 0x1F NOT PUSH1 0x1F DUP3 ADD AND DUP3 ADD DUP1 PUSH1 0x40 MSTORE POP DUP2 ADD SWAP1 PUSH2 0x2D88 SWAP2 SWAP1 PUSH2 0x490A JUMP JUMPDEST PUSH2 0x2D92 SWAP2 SWAP1 PUSH2 0x4923 JUMP JUMPDEST PUSH2 0xCEA SWAP2 SWAP1 PUSH2 0x4958 JUMP JUMPDEST PUSH1 0x0 DUP1 DUP3 SWAP1 POP PUSH1 0x1F DUP2 MLOAD GT ISZERO PUSH2 0x2DC7 JUMPI DUP3 PUSH1 0x40 MLOAD PUSH4 0x305A27A9 PUSH1 0xE0 SHL DUP2 MSTORE PUSH1 0x4 ADD PUSH2 0x381 SWAP2 SWAP1 PUSH2 0x3CAC JUMP JUMPDEST DUP1 MLOAD PUSH2 0x2DD2 DUP3 PUSH2 0x497A JUMP JUMPDEST OR SWAP4 SWAP3 POP POP POP JUMP JUMPDEST DUP3 SLOAD PUSH1 0x0 SWAP1 DUP2 SWAP1 DUP1 ISZERO PUSH2 0x2F27 JUMPI PUSH1 0x0 PUSH2 0x2DF8 DUP8 PUSH2 0x20FD PUSH1 0x1 DUP6 PUSH2 0x4604 JUMP JUMPDEST PUSH1 0x40 DUP1 MLOAD DUP1 DUP3 ADD SWAP1 SWAP2 MSTORE SWAP1 SLOAD PUSH4 0xFFFFFFFF DUP1 DUP3 AND DUP1 DUP5 MSTORE PUSH1 0x1 PUSH1 0x20 SHL SWAP1 SWAP3 DIV PUSH1 0x1 PUSH1 0x1 PUSH1 0xE0 SHL SUB AND PUSH1 0x20 DUP5 ADD MSTORE SWAP2 SWAP3 POP SWAP1 DUP8 AND LT ISZERO PUSH2 0x2E79 JUMPI PUSH1 0x40 MLOAD PUSH3 0x461BCD PUSH1 0xE5 SHL DUP2 MSTORE PUSH1 0x20 PUSH1 0x4 DUP3 ADD MSTORE PUSH1 0x1B PUSH1 0x24 DUP3 ADD MSTORE PUSH32 0x436865636B706F696E743A2064656372656173696E67206B6579730000000000 PUSH1 0x44 DUP3 ADD MSTORE PUSH1 0x64 ADD PUSH2 0x381 JUMP JUMPDEST DUP6 PUSH4 0xFFFFFFFF AND DUP2 PUSH1 0x0 ADD MLOAD PUSH4 0xFFFFFFFF AND EQ ISZERO PUSH2 0x2EC8 JUMPI DUP5 PUSH2 0x2EA1 DUP9 PUSH2 0x20FD PUSH1 0x1 DUP7 PUSH2 0x4604 JUMP JUMPDEST DUP1 SLOAD PUSH1 0x1 PUSH1 0x1 PUSH1 0xE0 SHL SUB SWAP3 SWAP1 SWAP3 AND PUSH1 0x1 PUSH1 0x20 SHL MUL PUSH4 0xFFFFFFFF SWAP1 SWAP3 AND SWAP2 SWAP1 SWAP2 OR SWAP1 SSTORE PUSH2 0x2F17 JUMP JUMPDEST PUSH1 0x40 DUP1 MLOAD DUP1 DUP3 ADD SWAP1 SWAP2 MSTORE PUSH4 0xFFFFFFFF DUP1 DUP9 AND DUP3 MSTORE PUSH1 0x1 PUSH1 0x1 PUSH1 0xE0 SHL SUB DUP1 DUP9 AND PUSH1 0x20 DUP1 DUP6 ADD SWAP2 DUP3 MSTORE DUP12 SLOAD PUSH1 0x1 DUP2 ADD DUP14 SSTORE PUSH1 0x0 DUP14 DUP2 MSTORE SWAP2 SWAP1 SWAP2 KECCAK256 SWAP5 MLOAD SWAP2 MLOAD SWAP1 SWAP3 AND PUSH1 0x1 PUSH1 0x20 SHL MUL SWAP3 AND SWAP2 SWAP1 SWAP2 OR SWAP2 ADD SSTORE JUMPDEST PUSH1 0x20 ADD MLOAD SWAP3 POP DUP4 SWAP2 POP PUSH2 0x20DB SWAP1 POP JUMP JUMPDEST POP POP PUSH1 0x40 DUP1 MLOAD DUP1 DUP3 ADD SWAP1 SWAP2 MSTORE PUSH4 0xFFFFFFFF DUP1 DUP6 AND DUP3 MSTORE PUSH1 0x1 PUSH1 0x1 PUSH1 0xE0 SHL SUB DUP1 DUP6 AND PUSH1 0x20 DUP1 DUP6 ADD SWAP2 DUP3 MSTORE DUP9 SLOAD PUSH1 0x1 DUP2 ADD DUP11 SSTORE PUSH1 0x0 DUP11 DUP2 MSTORE SWAP2 DUP3 KECCAK256 SWAP6 MLOAD SWAP3 MLOAD SWAP1 SWAP4 AND PUSH1 0x1 PUSH1 0x20 SHL MUL SWAP2 SWAP1 SWAP4 AND OR SWAP3 ADD SWAP2 SWAP1 SWAP2 SSTORE SWAP1 POP DUP2 PUSH2 0x20DB JUMP JUMPDEST PUSH1 0x0 PUSH4 0x288ACE03 PUSH1 0xE1 SHL PUSH4 0x18DF743F PUSH1 0xE3 SHL PUSH4 0xBF26D897 PUSH1 0xE0 SHL PUSH4 0x79DD796F PUSH1 0xE0 SHL PUSH1 0x1 PUSH1 0x1 PUSH1 0xE0 SHL SUB NOT DUP7 AND DUP3 EQ DUP1 PUSH2 0x2FC6 JUMPI POP PUSH1 0x1 PUSH1 0x1 PUSH1 0xE0 SHL SUB NOT DUP7 DUP2 AND SWAP1 DUP3 AND EQ JUMPDEST DUP1 PUSH2 0x2FDD JUMPI POP PUSH1 0x1 PUSH1 0x1 PUSH1 0xE0 SHL SUB NOT DUP7 DUP2 AND SWAP1 DUP6 AND EQ JUMPDEST DUP1 PUSH2 0x2FF8 JUMPI POP PUSH1 0x1 PUSH1 0x1 PUSH1 0xE0 SHL SUB NOT DUP7 AND PUSH4 0x2711897 PUSH1 0xE5 SHL EQ JUMPDEST DUP1 PUSH2 0x143F JUMPI POP PUSH4 0x1FFC9A7 PUSH1 0xE0 SHL PUSH1 0x1 PUSH1 0x1 PUSH1 0xE0 SHL SUB NOT DUP8 AND EQ SWAP7 SWAP6 POP POP POP POP POP POP JUMP JUMPDEST PUSH1 0x0 ADDRESS PUSH1 0x1 PUSH1 0x1 PUSH1 0xA0 SHL SUB PUSH32 0x0 AND EQ DUP1 ISZERO PUSH2 0x3075 JUMPI POP PUSH32 0x0 CHAINID EQ JUMPDEST ISZERO PUSH2 0x309F JUMPI POP PUSH32 0x0 SWAP1 JUMP JUMPDEST PUSH2 0xCFB PUSH1 0x40 DUP1 MLOAD PUSH32 0x8B73C3C69BB8FE3D512ECC4CF759CC79239F7B179B0FFACAA9A75D522B39400F PUSH1 0x20 DUP3 ADD MSTORE PUSH32 0x0 SWAP2 DUP2 ADD SWAP2 SWAP1 SWAP2 MSTORE PUSH32 0x0 PUSH1 0x60 DUP3 ADD MSTORE CHAINID PUSH1 0x80 DUP3 ADD MSTORE ADDRESS PUSH1 0xA0 DUP3 ADD MSTORE PUSH1 0x0 SWAP1 PUSH1 0xC0 ADD PUSH1 0x40 MLOAD PUSH1 0x20 DUP2 DUP4 SUB SUB DUP2 MSTORE SWAP1 PUSH1 0x40 MSTORE DUP1 MLOAD SWAP1 PUSH1 0x20 ADD KECCAK256 SWAP1 POP SWAP1 JUMP JUMPDEST PUSH1 0x0 DUP1 PUSH32 0x7FFFFFFFFFFFFFFFFFFFFFFFFFFFFFFF5D576E7357A4501DDFE92F46681B20A0 DUP4 GT ISZERO PUSH2 0x317E JUMPI POP PUSH1 0x0 SWAP1 POP PUSH1 0x3 PUSH2 0x3202 JUMP JUMPDEST PUSH1 0x40 DUP1 MLOAD PUSH1 0x0 DUP1 DUP3 MSTORE PUSH1 0x20 DUP3 ADD DUP1 DUP5 MSTORE DUP10 SWAP1 MSTORE PUSH1 0xFF DUP9 AND SWAP3 DUP3 ADD SWAP3 SWAP1 SWAP3 MSTORE PUSH1 0x60 DUP2 ADD DUP7 SWAP1 MSTORE PUSH1 0x80 DUP2 ADD DUP6 SWAP1 MSTORE PUSH1 0x1 SWAP1 PUSH1 0xA0 ADD PUSH1 0x20 PUSH1 0x40 MLOAD PUSH1 0x20 DUP2 SUB SWAP1 DUP1 DUP5 SUB SWAP1 DUP6 GAS STATICCALL ISZERO DUP1 ISZERO PUSH2 0x31D2 JUMPI RETURNDATASIZE PUSH1 0x0 DUP1 RETURNDATACOPY RETURNDATASIZE PUSH1 0x0 REVERT JUMPDEST POP POP PUSH1 0x40 MLOAD PUSH1 0x1F NOT ADD MLOAD SWAP2 POP POP PUSH1 0x1 PUSH1 0x1 PUSH1 0xA0 SHL SUB DUP2 AND PUSH2 0x31FB JUMPI PUSH1 0x0 PUSH1 0x1 SWAP3 POP SWAP3 POP POP PUSH2 0x3202 JUMP JUMPDEST SWAP2 POP PUSH1 0x0 SWAP1 POP JUMPDEST SWAP5 POP SWAP5 SWAP3 POP POP POP JUMP JUMPDEST PUSH1 0x0 DUP2 PUSH1 0x4 DUP2 GT ISZERO PUSH2 0x321F JUMPI PUSH2 0x321F PUSH2 0x3FE9 JUMP JUMPDEST EQ ISZERO PUSH2 0x3228 JUMPI POP JUMP JUMPDEST PUSH1 0x1 DUP2 PUSH1 0x4 DUP2 GT ISZERO PUSH2 0x323C JUMPI PUSH2 0x323C PUSH2 0x3FE9 JUMP JUMPDEST EQ ISZERO PUSH2 0x328A JUMPI PUSH1 0x40 MLOAD PUSH3 0x461BCD PUSH1 0xE5 SHL DUP2 MSTORE PUSH1 0x20 PUSH1 0x4 DUP3 ADD MSTORE PUSH1 0x18 PUSH1 0x24 DUP3 ADD MSTORE PUSH32 0x45434453413A20696E76616C6964207369676E61747572650000000000000000 PUSH1 0x44 DUP3 ADD MSTORE PUSH1 0x64 ADD PUSH2 0x381 JUMP JUMPDEST PUSH1 0x2 DUP2 PUSH1 0x4 DUP2 GT ISZERO PUSH2 0x329E JUMPI PUSH2 0x329E PUSH2 0x3FE9 JUMP JUMPDEST EQ ISZERO PUSH2 0x32EC JUMPI PUSH1 0x40 MLOAD PUSH3 0x461BCD PUSH1 0xE5 SHL DUP2 MSTORE PUSH1 0x20 PUSH1 0x4 DUP3 ADD MSTORE PUSH1 0x1F PUSH1 0x24 DUP3 ADD MSTORE PUSH32 0x45434453413A20696E76616C6964207369676E6174757265206C656E67746800 PUSH1 0x44 DUP3 ADD MSTORE PUSH1 0x64 ADD PUSH2 0x381 JUMP JUMPDEST PUSH1 0x3 DUP2 PUSH1 0x4 DUP2 GT ISZERO PUSH2 0x3300 JUMPI PUSH2 0x3300 PUSH2 0x3FE9 JUMP JUMPDEST EQ ISZERO PUSH2 0xE3C JUMPI PUSH1 0x40 MLOAD PUSH3 0x461BCD PUSH1 0xE5 SHL DUP2 MSTORE PUSH1 0x20 PUSH1 0x4 DUP3 ADD MSTORE PUSH1 0x22 PUSH1 0x24 DUP3 ADD MSTORE PUSH32 0x45434453413A20696E76616C6964207369676E6174757265202773272076616C PUSH1 0x44 DUP3 ADD MSTORE PUSH2 0x7565 PUSH1 0xF0 SHL PUSH1 0x64 DUP3 ADD MSTORE PUSH1 0x84 ADD PUSH2 0x381 JUMP JUMPDEST PUSH1 0x0 DUP6 DUP2 MSTORE PUSH1 0x9 PUSH1 0x20 SWAP1 DUP2 MSTORE PUSH1 0x40 DUP1 DUP4 KECCAK256 PUSH1 0x1 PUSH1 0x1 PUSH1 0xA0 SHL SUB DUP9 AND DUP5 MSTORE PUSH1 0x3 DUP2 ADD SWAP1 SWAP3 MSTORE SWAP1 SWAP2 KECCAK256 SLOAD PUSH1 0xFF AND ISZERO PUSH2 0x33E1 JUMPI PUSH1 0x40 MLOAD PUSH3 0x461BCD PUSH1 0xE5 SHL DUP2 MSTORE PUSH1 0x20 PUSH1 0x4 DUP3 ADD MSTORE PUSH1 0x27 PUSH1 0x24 DUP3 ADD MSTORE PUSH32 0x476F7665726E6F72566F74696E6753696D706C653A20766F746520616C726561 PUSH1 0x44 DUP3 ADD MSTORE PUSH7 0x191E4818D85CDD PUSH1 0xCA SHL PUSH1 0x64 DUP3 ADD MSTORE PUSH1 0x84 ADD PUSH2 0x381 JUMP JUMPDEST PUSH1 0x1 PUSH1 0x1 PUSH1 0xA0 SHL SUB DUP6 AND PUSH1 0x0 SWAP1 DUP2 MSTORE PUSH1 0x3 DUP3 ADD PUSH1 0x20 MSTORE PUSH1 0x40 DUP2 KECCAK256 DUP1 SLOAD PUSH1 0xFF NOT AND PUSH1 0x1 OR SWAP1 SSTORE PUSH1 0xFF AND DUP5 PUSH1 0xFF AND EQ ISZERO PUSH2 0x3432 JUMPI DUP3 DUP2 PUSH1 0x0 ADD PUSH1 0x0 DUP3 DUP3 SLOAD PUSH2 0x3427 SWAP2 SWAP1 PUSH2 0x4672 JUMP JUMPDEST SWAP1 SWAP2 SSTORE POP PUSH2 0x25C5 SWAP1 POP JUMP JUMPDEST PUSH1 0xFF DUP5 AND PUSH1 0x1 EQ ISZERO PUSH2 0x3452 JUMPI DUP3 DUP2 PUSH1 0x1 ADD PUSH1 0x0 DUP3 DUP3 SLOAD PUSH2 0x3427 SWAP2 SWAP1 PUSH2 0x4672 JUMP JUMPDEST PUSH1 0xFF DUP5 AND PUSH1 0x2 EQ ISZERO PUSH2 0x3472 JUMPI DUP3 DUP2 PUSH1 0x2 ADD PUSH1 0x0 DUP3 DUP3 SLOAD PUSH2 0x3427 SWAP2 SWAP1 PUSH2 0x4672 JUMP JUMPDEST PUSH1 0x40 MLOAD PUSH3 0x461BCD PUSH1 0xE5 SHL DUP2 MSTORE PUSH1 0x20 PUSH1 0x4 DUP3 ADD MSTORE PUSH1 0x35 PUSH1 0x24 DUP3 ADD MSTORE PUSH32 0x476F7665726E6F72566F74696E6753696D706C653A20696E76616C6964207661 PUSH1 0x44 DUP3 ADD MSTORE PUSH21 0x6C756520666F7220656E756D20566F746554797065 PUSH1 0x58 SHL PUSH1 0x64 DUP3 ADD MSTORE PUSH1 0x84 ADD PUSH2 0x381 JUMP JUMPDEST DUP2 SLOAD PUSH1 0x1 PUSH1 0x80 SHL SWAP1 DUP2 SWAP1 DIV PUSH1 0xF SIGNEXTEND PUSH1 0x0 DUP2 DUP2 MSTORE PUSH1 0x1 DUP1 DUP7 ADD PUSH1 0x20 MSTORE PUSH1 0x40 SWAP1 SWAP2 KECCAK256 SWAP4 SWAP1 SWAP4 SSTORE DUP4 SLOAD PUSH1 0x1 PUSH1 0x1 PUSH1 0x80 SHL SUB SWAP1 DUP2 AND SWAP4 SWAP1 SWAP2 ADD AND MUL OR SWAP1 SSTORE JUMP JUMPDEST PUSH2 0x351E DUP3 DUP3 PUSH2 0x1C0E JUMP JUMPDEST PUSH2 0x1176 JUMPI PUSH2 0x352B DUP2 PUSH2 0x3719 JUMP JUMPDEST PUSH2 0x3536 DUP4 PUSH1 0x20 PUSH2 0x372B JUMP JUMPDEST PUSH1 0x40 MLOAD PUSH1 0x20 ADD PUSH2 0x3547 SWAP3 SWAP2 SWAP1 PUSH2 0x499E JUMP JUMPDEST PUSH1 0x40 DUP1 MLOAD PUSH1 0x1F NOT DUP2 DUP5 SUB ADD DUP2 MSTORE SWAP1 DUP3 SWAP1 MSTORE PUSH3 0x461BCD PUSH1 0xE5 SHL DUP3 MSTORE PUSH2 0x381 SWAP2 PUSH1 0x4 ADD PUSH2 0x3CAC JUMP JUMPDEST PUSH1 0x0 DUP2 PUSH2 0x357C JUMPI POP PUSH1 0x0 SWAP2 SWAP1 POP JUMP JUMPDEST PUSH1 0x0 PUSH1 0x1 PUSH2 0x3589 DUP5 PUSH2 0x38C6 JUMP JUMPDEST SWAP1 SHR PUSH1 0x1 SWAP1 SHL SWAP1 POP PUSH1 0x1 DUP2 DUP5 DUP2 PUSH2 0x35A2 JUMPI PUSH2 0x35A2 PUSH2 0x4942 JUMP JUMPDEST DIV DUP3 ADD SWAP1 SHR SWAP1 POP PUSH1 0x1 DUP2 DUP5 DUP2 PUSH2 0x35BA JUMPI PUSH2 0x35BA PUSH2 0x4942 JUMP JUMPDEST DIV DUP3 ADD SWAP1 SHR SWAP1 POP PUSH1 0x1 DUP2 DUP5 DUP2 PUSH2 0x35D2 JUMPI PUSH2 0x35D2 PUSH2 0x4942 JUMP JUMPDEST DIV DUP3 ADD SWAP1 SHR SWAP1 POP PUSH1 0x1 DUP2 DUP5 DUP2 PUSH2 0x35EA JUMPI PUSH2 0x35EA PUSH2 0x4942 JUMP JUMPDEST DIV DUP3 ADD SWAP1 SHR SWAP1 POP PUSH1 0x1 DUP2 DUP5 DUP2 PUSH2 0x3602 JUMPI PUSH2 0x3602 PUSH2 0x4942 JUMP JUMPDEST DIV DUP3 ADD SWAP1 SHR SWAP1 POP PUSH1 0x1 DUP2 DUP5 DUP2 PUSH2 0x361A JUMPI PUSH2 0x361A PUSH2 0x4942 JUMP JUMPDEST DIV DUP3 ADD SWAP1 SHR SWAP1 POP PUSH1 0x1 DUP2 DUP5 DUP2 PUSH2 0x3632 JUMPI PUSH2 0x3632 PUSH2 0x4942 JUMP JUMPDEST DIV DUP3 ADD SWAP1 SHR SWAP1 POP PUSH2 0x1CE1 DUP2 DUP3 DUP6 DUP2 PUSH2 0x364C JUMPI PUSH2 0x364C PUSH2 0x4942 JUMP JUMPDEST DIV PUSH2 0x395A JUMP JUMPDEST PUSH1 0x0 JUMPDEST DUP2 DUP4 LT ISZERO PUSH2 0x36A8 JUMPI PUSH1 0x0 PUSH2 0x3669 DUP5 DUP5 PUSH2 0x3970 JUMP JUMPDEST PUSH1 0x0 DUP8 DUP2 MSTORE PUSH1 0x20 SWAP1 KECCAK256 SWAP1 SWAP2 POP PUSH4 0xFFFFFFFF DUP7 AND SWAP1 DUP3 ADD SLOAD PUSH4 0xFFFFFFFF AND GT ISZERO PUSH2 0x3694 JUMPI DUP1 SWAP3 POP PUSH2 0x36A2 JUMP JUMPDEST PUSH2 0x369F DUP2 PUSH1 0x1 PUSH2 0x4672 JUMP JUMPDEST SWAP4 POP JUMPDEST POP PUSH2 0x3655 JUMP JUMPDEST POP SWAP4 SWAP3 POP POP POP JUMP JUMPDEST PUSH1 0x60 PUSH1 0x0 PUSH2 0x36BD DUP4 PUSH2 0x398B JUMP JUMPDEST PUSH1 0x40 DUP1 MLOAD PUSH1 0x20 DUP1 DUP3 MSTORE DUP2 DUP4 ADD SWAP1 SWAP3 MSTORE SWAP2 SWAP3 POP PUSH1 0x0 SWAP2 SWAP1 PUSH1 0x20 DUP3 ADD DUP2 DUP1 CALLDATASIZE DUP4 CALLDATACOPY POP POP POP SWAP2 DUP3 MSTORE POP PUSH1 0x20 DUP2 ADD SWAP3 SWAP1 SWAP3 MSTORE POP SWAP1 JUMP JUMPDEST DUP2 MLOAD ISZERO PUSH2 0x36FF JUMPI DUP2 MLOAD DUP1 DUP4 PUSH1 0x20 ADD REVERT JUMPDEST DUP1 PUSH1 0x40 MLOAD PUSH3 0x461BCD PUSH1 0xE5 SHL DUP2 MSTORE PUSH1 0x4 ADD PUSH2 0x381 SWAP2 SWAP1 PUSH2 0x3CAC JUMP JUMPDEST PUSH1 0x60 PUSH2 0xCEA PUSH1 0x1 PUSH1 0x1 PUSH1 0xA0 SHL SUB DUP4 AND PUSH1 0x14 JUMPDEST PUSH1 0x60 PUSH1 0x0 PUSH2 0x373A DUP4 PUSH1 0x2 PUSH2 0x4923 JUMP JUMPDEST PUSH2 0x3745 SWAP1 PUSH1 0x2 PUSH2 0x4672 JUMP JUMPDEST PUSH1 0x1 PUSH1 0x1 PUSH1 0x40 SHL SUB DUP2 GT ISZERO PUSH2 0x375C JUMPI PUSH2 0x375C PUSH2 0x3AC6 JUMP JUMPDEST PUSH1 0x40 MLOAD SWAP1 DUP1 DUP3 MSTORE DUP1 PUSH1 0x1F ADD PUSH1 0x1F NOT AND PUSH1 0x20 ADD DUP3 ADD PUSH1 0x40 MSTORE DUP1 ISZERO PUSH2 0x3786 JUMPI PUSH1 0x20 DUP3 ADD DUP2 DUP1 CALLDATASIZE DUP4 CALLDATACOPY ADD SWAP1 POP JUMPDEST POP SWAP1 POP PUSH1 0x3 PUSH1 0xFC SHL DUP2 PUSH1 0x0 DUP2 MLOAD DUP2 LT PUSH2 0x37A1 JUMPI PUSH2 0x37A1 PUSH2 0x461B JUMP JUMPDEST PUSH1 0x20 ADD ADD SWAP1 PUSH1 0x1 PUSH1 0x1 PUSH1 0xF8 SHL SUB NOT AND SWAP1 DUP2 PUSH1 0x0 BYTE SWAP1 MSTORE8 POP PUSH1 0xF PUSH1 0xFB SHL DUP2 PUSH1 0x1 DUP2 MLOAD DUP2 LT PUSH2 0x37D0 JUMPI PUSH2 0x37D0 PUSH2 0x461B JUMP JUMPDEST PUSH1 0x20 ADD ADD SWAP1 PUSH1 0x1 PUSH1 0x1 PUSH1 0xF8 SHL SUB NOT AND SWAP1 DUP2 PUSH1 0x0 BYTE SWAP1 MSTORE8 POP PUSH1 0x0 PUSH2 0x37F4 DUP5 PUSH1 0x2 PUSH2 0x4923 JUMP JUMPDEST PUSH2 0x37FF SWAP1 PUSH1 0x1 PUSH2 0x4672 JUMP JUMPDEST SWAP1 POP JUMPDEST PUSH1 0x1 DUP2 GT ISZERO PUSH2 0x3877 JUMPI PUSH16 0x181899199A1A9B1B9C1CB0B131B232B3 PUSH1 0x81 SHL DUP6 PUSH1 0xF AND PUSH1 0x10 DUP2 LT PUSH2 0x3833 JUMPI PUSH2 0x3833 PUSH2 0x461B JUMP JUMPDEST BYTE PUSH1 0xF8 SHL DUP3 DUP3 DUP2 MLOAD DUP2 LT PUSH2 0x3849 JUMPI PUSH2 0x3849 PUSH2 0x461B JUMP JUMPDEST PUSH1 0x20 ADD ADD SWAP1 PUSH1 0x1 PUSH1 0x1 PUSH1 0xF8 SHL SUB NOT AND SWAP1 DUP2 PUSH1 0x0 BYTE SWAP1 MSTORE8 POP PUSH1 0x4 SWAP5 SWAP1 SWAP5 SHR SWAP4 PUSH2 0x3870 DUP2 PUSH2 0x4A13 JUMP JUMPDEST SWAP1 POP PUSH2 0x3802 JUMP JUMPDEST POP DUP4 ISZERO PUSH2 0x1CE1 JUMPI PUSH1 0x40 MLOAD PUSH3 0x461BCD PUSH1 0xE5 SHL DUP2 MSTORE PUSH1 0x20 PUSH1 0x4 DUP3 ADD DUP2 SWAP1 MSTORE PUSH1 0x24 DUP3 ADD MSTORE PUSH32 0x537472696E67733A20686578206C656E67746820696E73756666696369656E74 PUSH1 0x44 DUP3 ADD MSTORE PUSH1 0x64 ADD PUSH2 0x381 JUMP JUMPDEST PUSH1 0x0 DUP1 PUSH1 0x80 DUP4 SWAP1 SHR ISZERO PUSH2 0x38DB JUMPI PUSH1 0x80 SWAP3 DUP4 SHR SWAP3 ADD JUMPDEST PUSH1 0x40 DUP4 SWAP1 SHR ISZERO PUSH2 0x38ED JUMPI PUSH1 0x40 SWAP3 DUP4 SHR SWAP3 ADD JUMPDEST PUSH1 0x20 DUP4 SWAP1 SHR ISZERO PUSH2 0x38FF JUMPI PUSH1 0x20 SWAP3 DUP4 SHR SWAP3 ADD JUMPDEST PUSH1 0x10 DUP4 SWAP1 SHR ISZERO PUSH2 0x3911 JUMPI PUSH1 0x10 SWAP3 DUP4 SHR SWAP3 ADD JUMPDEST PUSH1 0x8 DUP4 SWAP1 SHR ISZERO PUSH2 0x3923 JUMPI PUSH1 0x8 SWAP3 DUP4 SHR SWAP3 ADD JUMPDEST PUSH1 0x4 DUP4 SWAP1 SHR ISZERO PUSH2 0x3935 JUMPI PUSH1 0x4 SWAP3 DUP4 SHR SWAP3 ADD JUMPDEST PUSH1 0x2 DUP4 SWAP1 SHR ISZERO PUSH2 0x3947 JUMPI PUSH1 0x2 SWAP3 DUP4 SHR SWAP3 ADD JUMPDEST PUSH1 0x1 DUP4 SWAP1 SHR ISZERO PUSH2 0xCEA JUMPI PUSH1 0x1 ADD SWAP3 SWAP2 POP POP JUMP JUMPDEST PUSH1 0x0 DUP2 DUP4 LT PUSH2 0x3969 JUMPI DUP2 PUSH2 0x1CE1 JUMP JUMPDEST POP SWAP1 SWAP2 SWAP1 POP JUMP JUMPDEST PUSH1 0x0 PUSH2 0x397F PUSH1 0x2 DUP5 DUP5 XOR PUSH2 0x4958 JUMP JUMPDEST PUSH2 0x1CE1 SWAP1 DUP5 DUP5 AND PUSH2 0x4672 JUMP JUMPDEST PUSH1 0x0 PUSH1 0xFF DUP3 AND PUSH1 0x1F DUP2 GT ISZERO PUSH2 0xCEA JUMPI PUSH1 0x40 MLOAD PUSH4 0x2CD44AC3 PUSH1 0xE2 SHL DUP2 MSTORE PUSH1 0x4 ADD PUSH1 0x40 MLOAD DUP1 SWAP2 SUB SWAP1 REVERT JUMPDEST DUP3 DUP1 SLOAD PUSH2 0x39BF SWAP1 PUSH2 0x4546 JUMP JUMPDEST SWAP1 PUSH1 0x0 MSTORE PUSH1 0x20 PUSH1 0x0 KECCAK256 SWAP1 PUSH1 0x1F ADD PUSH1 0x20 SWAP1 DIV DUP2 ADD SWAP3 DUP3 PUSH2 0x39E1 JUMPI PUSH1 0x0 DUP6 SSTORE PUSH2 0x3A27 JUMP JUMPDEST DUP3 PUSH1 0x1F LT PUSH2 0x39FA JUMPI DUP1 MLOAD PUSH1 0xFF NOT AND DUP4 DUP1 ADD OR DUP6 SSTORE PUSH2 0x3A27 JUMP JUMPDEST DUP3 DUP1 ADD PUSH1 0x1 ADD DUP6 SSTORE DUP3 ISZERO PUSH2 0x3A27 JUMPI SWAP2 DUP3 ADD JUMPDEST DUP3 DUP2 GT ISZERO PUSH2 0x3A27 JUMPI DUP3 MLOAD DUP3 SSTORE SWAP2 PUSH1 0x20 ADD SWAP2 SWAP1 PUSH1 0x1 ADD SWAP1 PUSH2 0x3A0C JUMP JUMPDEST POP PUSH2 0x205F SWAP3 SWAP2 POP JUMPDEST DUP1 DUP3 GT ISZERO PUSH2 0x205F JUMPI PUSH1 0x0 DUP2 SSTORE PUSH1 0x1 ADD PUSH2 0x3A2F JUMP JUMPDEST PUSH1 0x0 PUSH1 0x20 DUP3 DUP5 SUB SLT ISZERO PUSH2 0x3A55 JUMPI PUSH1 0x0 DUP1 REVERT JUMPDEST DUP2 CALLDATALOAD PUSH1 0x1 PUSH1 0x1 PUSH1 0xE0 SHL SUB NOT DUP2 AND DUP2 EQ PUSH2 0x1CE1 JUMPI PUSH1 0x0 DUP1 REVERT JUMPDEST DUP1 CALLDATALOAD PUSH1 0xFF DUP2 AND DUP2 EQ PUSH2 0x1515 JUMPI PUSH1 0x0 DUP1 REVERT JUMPDEST PUSH1 0x0 DUP1 DUP4 PUSH1 0x1F DUP5 ADD SLT PUSH2 0x3A90 JUMPI PUSH1 0x0 DUP1 REVERT JUMPDEST POP DUP2 CALLDATALOAD PUSH1 0x1 PUSH1 0x1 PUSH1 0x40 SHL SUB DUP2 GT ISZERO PUSH2 0x3AA7 JUMPI PUSH1 0x0 DUP1 REVERT JUMPDEST PUSH1 0x20 DUP4 ADD SWAP2 POP DUP4 PUSH1 0x20 DUP3 DUP6 ADD ADD GT ISZERO PUSH2 0x3ABF JUMPI PUSH1 0x0 DUP1 REVERT JUMPDEST SWAP3 POP SWAP3 SWAP1 POP JUMP JUMPDEST PUSH4 0x4E487B71 PUSH1 0xE0 SHL PUSH1 0x0 MSTORE PUSH1 0x41 PUSH1 0x4 MSTORE PUSH1 0x24 PUSH1 0x0 REVERT JUMPDEST PUSH1 0x40 MLOAD PUSH1 0x1F DUP3 ADD PUSH1 0x1F NOT AND DUP2 ADD PUSH1 0x1 PUSH1 0x1 PUSH1 0x40 SHL SUB DUP2 GT DUP3 DUP3 LT OR ISZERO PUSH2 0x3B04 JUMPI PUSH2 0x3B04 PUSH2 0x3AC6 JUMP JUMPDEST PUSH1 0x40 MSTORE SWAP2 SWAP1 POP JUMP JUMPDEST PUSH1 0x0 PUSH1 0x1 PUSH1 0x1 PUSH1 0x40 SHL SUB DUP3 GT ISZERO PUSH2 0x3B25 JUMPI PUSH2 0x3B25 PUSH2 0x3AC6 JUMP JUMPDEST POP PUSH1 0x1F ADD PUSH1 0x1F NOT AND PUSH1 0x20 ADD SWAP1 JUMP JUMPDEST PUSH1 0x0 PUSH2 0x3B46 PUSH2 0x3B41 DUP5 PUSH2 0x3B0C JUMP JUMPDEST PUSH2 0x3ADC JUMP JUMPDEST SWAP1 POP DUP3 DUP2 MSTORE DUP4 DUP4 DUP4 ADD GT ISZERO PUSH2 0x3B5A JUMPI PUSH1 0x0 DUP1 REVERT JUMPDEST DUP3 DUP3 PUSH1 0x20 DUP4 ADD CALLDATACOPY PUSH1 0x0 PUSH1 0x20 DUP5 DUP4 ADD ADD MSTORE SWAP4 SWAP3 POP POP POP JUMP JUMPDEST PUSH1 0x0 DUP3 PUSH1 0x1F DUP4 ADD SLT PUSH2 0x3B82 JUMPI PUSH1 0x0 DUP1 REVERT JUMPDEST PUSH2 0x1CE1 DUP4 DUP4 CALLDATALOAD PUSH1 0x20 DUP6 ADD PUSH2 0x3B33 JUMP JUMPDEST PUSH1 0x0 DUP1 PUSH1 0x0 DUP1 PUSH1 0x0 DUP1 PUSH1 0x0 DUP1 PUSH1 0xE0 DUP10 DUP12 SUB SLT ISZERO PUSH2 0x3BAD JUMPI PUSH1 0x0 DUP1 REVERT JUMPDEST DUP9 CALLDATALOAD SWAP8 POP PUSH2 0x3BBD PUSH1 0x20 DUP11 ADD PUSH2 0x3A6D JUMP JUMPDEST SWAP7 POP PUSH1 0x40 DUP10 ADD CALLDATALOAD PUSH1 0x1 PUSH1 0x1 PUSH1 0x40 SHL SUB DUP1 DUP3 GT ISZERO PUSH2 0x3BD9 JUMPI PUSH1 0x0 DUP1 REVERT JUMPDEST PUSH2 0x3BE5 DUP13 DUP4 DUP14 ADD PUSH2 0x3A7E JUMP JUMPDEST SWAP1 SWAP9 POP SWAP7 POP PUSH1 0x60 DUP12 ADD CALLDATALOAD SWAP2 POP DUP1 DUP3 GT ISZERO PUSH2 0x3BFE JUMPI PUSH1 0x0 DUP1 REVERT JUMPDEST POP PUSH2 0x3C0B DUP12 DUP3 DUP13 ADD PUSH2 0x3B71 JUMP JUMPDEST SWAP5 POP POP PUSH2 0x3C1A PUSH1 0x80 DUP11 ADD PUSH2 0x3A6D JUMP JUMPDEST SWAP3 POP PUSH1 0xA0 DUP10 ADD CALLDATALOAD SWAP2 POP PUSH1 0xC0 DUP10 ADD CALLDATALOAD SWAP1 POP SWAP3 SWAP6 SWAP9 POP SWAP3 SWAP6 SWAP9 SWAP1 SWAP4 SWAP7 POP JUMP JUMPDEST PUSH1 0x0 PUSH1 0x20 DUP3 DUP5 SUB SLT ISZERO PUSH2 0x3C49 JUMPI PUSH1 0x0 DUP1 REVERT JUMPDEST POP CALLDATALOAD SWAP2 SWAP1 POP JUMP JUMPDEST PUSH1 0x0 JUMPDEST DUP4 DUP2 LT ISZERO PUSH2 0x3C6B JUMPI DUP2 DUP2 ADD MLOAD DUP4 DUP3 ADD MSTORE PUSH1 0x20 ADD PUSH2 0x3C53 JUMP JUMPDEST DUP4 DUP2 GT ISZERO PUSH2 0x3C7A JUMPI PUSH1 0x0 DUP5 DUP5 ADD MSTORE JUMPDEST POP POP POP POP JUMP JUMPDEST PUSH1 0x0 DUP2 MLOAD DUP1 DUP5 MSTORE PUSH2 0x3C98 DUP2 PUSH1 0x20 DUP7 ADD PUSH1 0x20 DUP7 ADD PUSH2 0x3C50 JUMP JUMPDEST PUSH1 0x1F ADD PUSH1 0x1F NOT AND SWAP3 SWAP1 SWAP3 ADD PUSH1 0x20 ADD SWAP3 SWAP2 POP POP JUMP JUMPDEST PUSH1 0x20 DUP2 MSTORE PUSH1 0x0 PUSH2 0x1CE1 PUSH1 0x20 DUP4 ADD DUP5 PUSH2 0x3C80 JUMP JUMPDEST DUP1 CALLDATALOAD PUSH1 0x1 PUSH1 0x1 PUSH1 0xA0 SHL SUB DUP2 AND DUP2 EQ PUSH2 0x1515 JUMPI PUSH1 0x0 DUP1 REVERT JUMPDEST PUSH1 0x0 DUP1 PUSH1 0x0 DUP1 PUSH1 0x80 DUP6 DUP8 SUB SLT ISZERO PUSH2 0x3CEC JUMPI PUSH1 0x0 DUP1 REVERT JUMPDEST PUSH2 0x3CF5 DUP6 PUSH2 0x3CBF JUMP JUMPDEST SWAP4 POP PUSH2 0x3D03 PUSH1 0x20 DUP7 ADD PUSH2 0x3CBF JUMP JUMPDEST SWAP3 POP PUSH1 0x40 DUP6 ADD CALLDATALOAD SWAP2 POP PUSH1 0x60 DUP6 ADD CALLDATALOAD PUSH1 0x1 PUSH1 0x1 PUSH1 0x40 SHL SUB DUP2 GT ISZERO PUSH2 0x3D25 JUMPI PUSH1 0x0 DUP1 REVERT JUMPDEST PUSH2 0x3D31 DUP8 DUP3 DUP9 ADD PUSH2 0x3B71 JUMP JUMPDEST SWAP2 POP POP SWAP3 SWAP6 SWAP2 SWAP5 POP SWAP3 POP JUMP JUMPDEST PUSH1 0x0 PUSH1 0x1 PUSH1 0x1 PUSH1 0x40 SHL SUB DUP3 GT ISZERO PUSH2 0x3D56 JUMPI PUSH2 0x3D56 PUSH2 0x3AC6 JUMP JUMPDEST POP PUSH1 0x5 SHL PUSH1 0x20 ADD SWAP1 JUMP JUMPDEST PUSH1 0x0 DUP3 PUSH1 0x1F DUP4 ADD SLT PUSH2 0x3D71 JUMPI PUSH1 0x0 DUP1 REVERT JUMPDEST DUP2 CALLDATALOAD PUSH1 0x20 PUSH2 0x3D81 PUSH2 0x3B41 DUP4 PUSH2 0x3D3D JUMP JUMPDEST DUP3 DUP2 MSTORE PUSH1 0x5 SWAP3 SWAP1 SWAP3 SHL DUP5 ADD DUP2 ADD SWAP2 DUP2 DUP2 ADD SWAP1 DUP7 DUP5 GT ISZERO PUSH2 0x3DA0 JUMPI PUSH1 0x0 DUP1 REVERT JUMPDEST DUP3 DUP7 ADD JUMPDEST DUP5 DUP2 LT ISZERO PUSH2 0x3DC2 JUMPI PUSH2 0x3DB5 DUP2 PUSH2 0x3CBF JUMP JUMPDEST DUP4 MSTORE SWAP2 DUP4 ADD SWAP2 DUP4 ADD PUSH2 0x3DA4 JUMP JUMPDEST POP SWAP7 SWAP6 POP POP POP POP POP POP JUMP JUMPDEST PUSH1 0x0 DUP3 PUSH1 0x1F DUP4 ADD SLT PUSH2 0x3DDE JUMPI PUSH1 0x0 DUP1 REVERT JUMPDEST DUP2 CALLDATALOAD PUSH1 0x20 PUSH2 0x3DEE PUSH2 0x3B41 DUP4 PUSH2 0x3D3D JUMP JUMPDEST DUP3 DUP2 MSTORE PUSH1 0x5 SWAP3 SWAP1 SWAP3 SHL DUP5 ADD DUP2 ADD SWAP2 DUP2 DUP2 ADD SWAP1 DUP7 DUP5 GT ISZERO PUSH2 0x3E0D JUMPI PUSH1 0x0 DUP1 REVERT JUMPDEST DUP3 DUP7 ADD JUMPDEST DUP5 DUP2 LT ISZERO PUSH2 0x3DC2 JUMPI DUP1 CALLDATALOAD DUP4 MSTORE SWAP2 DUP4 ADD SWAP2 DUP4 ADD PUSH2 0x3E11 JUMP JUMPDEST PUSH1 0x0 DUP3 PUSH1 0x1F DUP4 ADD SLT PUSH2 0x3E39 JUMPI PUSH1 0x0 DUP1 REVERT JUMPDEST DUP2 CALLDATALOAD PUSH1 0x20 PUSH2 0x3E49 PUSH2 0x3B41 DUP4 PUSH2 0x3D3D JUMP JUMPDEST DUP3 DUP2 MSTORE PUSH1 0x5 SWAP3 SWAP1 SWAP3 SHL DUP5 ADD DUP2 ADD SWAP2 DUP2 DUP2 ADD SWAP1 DUP7 DUP5 GT ISZERO PUSH2 0x3E68 JUMPI PUSH1 0x0 DUP1 REVERT JUMPDEST DUP3 DUP7 ADD JUMPDEST DUP5 DUP2 LT ISZERO PUSH2 0x3DC2 JUMPI DUP1 CALLDATALOAD PUSH1 0x1 PUSH1 0x1 PUSH1 0x40 SHL SUB DUP2 GT ISZERO PUSH2 0x3E8B JUMPI PUSH1 0x0 DUP1 DUP2 REVERT JUMPDEST PUSH2 0x3E99 DUP10 DUP7 DUP4 DUP12 ADD ADD PUSH2 0x3B71 JUMP JUMPDEST DUP5 MSTORE POP SWAP2 DUP4 ADD SWAP2 DUP4 ADD PUSH2 0x3E6C JUMP JUMPDEST PUSH1 0x0 DUP1 PUSH1 0x0 DUP1 PUSH1 0x80 DUP6 DUP8 SUB SLT ISZERO PUSH2 0x3EBD JUMPI PUSH1 0x0 DUP1 REVERT JUMPDEST DUP5 CALLDATALOAD PUSH1 0x1 PUSH1 0x1 PUSH1 0x40 SHL SUB DUP1 DUP3 GT ISZERO PUSH2 0x3ED4 JUMPI PUSH1 0x0 DUP1 REVERT JUMPDEST PUSH2 0x3EE0 DUP9 DUP4 DUP10 ADD PUSH2 0x3D60 JUMP JUMPDEST SWAP6 POP PUSH1 0x20 DUP8 ADD CALLDATALOAD SWAP2 POP DUP1 DUP3 GT ISZERO PUSH2 0x3EF6 JUMPI PUSH1 0x0 DUP1 REVERT JUMPDEST PUSH2 0x3F02 DUP9 DUP4 DUP10 ADD PUSH2 0x3DCD JUMP JUMPDEST SWAP5 POP PUSH1 0x40 DUP8 ADD CALLDATALOAD SWAP2 POP DUP1 DUP3 GT ISZERO PUSH2 0x3F18 JUMPI PUSH1 0x0 DUP1 REVERT JUMPDEST POP PUSH2 0x3F25 DUP8 DUP3 DUP9 ADD PUSH2 0x3E28 JUMP JUMPDEST SWAP5 SWAP8 SWAP4 SWAP7 POP SWAP4 SWAP5 PUSH1 0x60 ADD CALLDATALOAD SWAP4 POP POP POP JUMP JUMPDEST PUSH1 0x80 DUP2 MSTORE PUSH1 0x0 PUSH2 0x3F49 PUSH1 0x80 DUP4 ADD DUP8 PUSH2 0x3C80 JUMP JUMPDEST PUSH1 0x20 DUP4 ADD SWAP6 SWAP1 SWAP6 MSTORE POP PUSH1 0x1 PUSH1 0x1 PUSH1 0xA0 SHL SUB SWAP3 DUP4 AND PUSH1 0x40 DUP3 ADD MSTORE SWAP2 AND PUSH1 0x60 SWAP1 SWAP2 ADD MSTORE SWAP2 SWAP1 POP JUMP JUMPDEST PUSH1 0x0 DUP1 PUSH1 0x40 DUP4 DUP6 SUB SLT ISZERO PUSH2 0x3F82 JUMPI PUSH1 0x0 DUP1 REVERT JUMPDEST DUP3 CALLDATALOAD SWAP2 POP PUSH2 0x3F92 PUSH1 0x20 DUP5 ADD PUSH2 0x3CBF JUMP JUMPDEST SWAP1 POP SWAP3 POP SWAP3 SWAP1 POP JUMP JUMPDEST PUSH1 0x0 DUP1 PUSH1 0x0 DUP1 PUSH1 0x0 PUSH1 0xA0 DUP7 DUP9 SUB SLT ISZERO PUSH2 0x3FB3 JUMPI PUSH1 0x0 DUP1 REVERT JUMPDEST DUP6 CALLDATALOAD SWAP5 POP PUSH2 0x3FC3 PUSH1 0x20 DUP8 ADD PUSH2 0x3A6D JUMP JUMPDEST SWAP4 POP PUSH2 0x3FD1 PUSH1 0x40 DUP8 ADD PUSH2 0x3A6D JUMP JUMPDEST SWAP5 SWAP8 SWAP4 SWAP7 POP SWAP4 SWAP5 PUSH1 0x60 DUP2 ADD CALLDATALOAD SWAP5 POP PUSH1 0x80 ADD CALLDATALOAD SWAP3 SWAP2 POP POP JUMP JUMPDEST PUSH4 0x4E487B71 PUSH1 0xE0 SHL PUSH1 0x0 MSTORE PUSH1 0x21 PUSH1 0x4 MSTORE PUSH1 0x24 PUSH1 0x0 REVERT JUMPDEST PUSH1 0x20 DUP2 ADD PUSH1 0x8 DUP4 LT PUSH2 0x4013 JUMPI PUSH2 0x4013 PUSH2 0x3FE9 JUMP JUMPDEST SWAP2 SWAP1 MSTORE SWAP1 JUMP JUMPDEST PUSH1 0x0 DUP1 PUSH1 0x40 DUP4 DUP6 SUB SLT ISZERO PUSH2 0x402C JUMPI PUSH1 0x0 DUP1 REVERT JUMPDEST POP POP DUP1 CALLDATALOAD SWAP3 PUSH1 0x20 SWAP1 SWAP2 ADD CALLDATALOAD SWAP2 POP JUMP JUMPDEST PUSH1 0x4 DUP2 LT PUSH2 0xE3C JUMPI PUSH2 0xE3C PUSH2 0x3FE9 JUMP JUMPDEST PUSH1 0x40 DUP2 ADD PUSH2 0x4058 DUP5 PUSH2 0x403B JUMP JUMPDEST SWAP3 DUP2 MSTORE PUSH1 0x1 PUSH1 0x1 PUSH1 0xA0 SHL SUB SWAP2 SWAP1 SWAP2 AND PUSH1 0x20 SWAP1 SWAP2 ADD MSTORE SWAP1 JUMP JUMPDEST PUSH1 0x0 DUP1 PUSH1 0x40 DUP4 DUP6 SUB SLT ISZERO PUSH2 0x4083 JUMPI PUSH1 0x0 DUP1 REVERT JUMPDEST DUP3 CALLDATALOAD SWAP2 POP PUSH2 0x3F92 PUSH1 0x20 DUP5 ADD PUSH2 0x3A6D JUMP JUMPDEST PUSH1 0x0 DUP1 PUSH1 0x0 DUP1 PUSH1 0x0 PUSH1 0x80 DUP7 DUP9 SUB SLT ISZERO PUSH2 0x40AB JUMPI PUSH1 0x0 DUP1 REVERT JUMPDEST DUP6 CALLDATALOAD SWAP5 POP PUSH2 0x40BB PUSH1 0x20 DUP8 ADD PUSH2 0x3A6D JUMP JUMPDEST SWAP4 POP PUSH1 0x40 DUP7 ADD CALLDATALOAD PUSH1 0x1 PUSH1 0x1 PUSH1 0x40 SHL SUB DUP1 DUP3 GT ISZERO PUSH2 0x40D7 JUMPI PUSH1 0x0 DUP1 REVERT JUMPDEST PUSH2 0x40E3 DUP10 DUP4 DUP11 ADD PUSH2 0x3A7E JUMP JUMPDEST SWAP1 SWAP6 POP SWAP4 POP PUSH1 0x60 DUP9 ADD CALLDATALOAD SWAP2 POP DUP1 DUP3 GT ISZERO PUSH2 0x40FC JUMPI PUSH1 0x0 DUP1 REVERT JUMPDEST POP PUSH2 0x4109 DUP9 DUP3 DUP10 ADD PUSH2 0x3B71 JUMP JUMPDEST SWAP2 POP POP SWAP3 SWAP6 POP SWAP3 SWAP6 SWAP1 SWAP4 POP JUMP JUMPDEST PUSH1 0x80 DUP2 MSTORE PUSH1 0x0 PUSH2 0x4129 PUSH1 0x80 DUP4 ADD DUP8 PUSH2 0x3C80 JUMP JUMPDEST DUP3 DUP2 SUB PUSH1 0x20 DUP5 ADD MSTORE PUSH2 0x413B DUP2 DUP8 PUSH2 0x3C80 JUMP JUMPDEST SWAP2 POP POP DUP4 PUSH1 0x40 DUP4 ADD MSTORE PUSH2 0x414D DUP4 PUSH2 0x403B JUMP JUMPDEST DUP3 PUSH1 0x60 DUP4 ADD MSTORE SWAP6 SWAP5 POP POP POP POP POP JUMP JUMPDEST PUSH1 0x0 DUP1 PUSH1 0x0 DUP1 PUSH1 0x60 DUP6 DUP8 SUB SLT ISZERO PUSH2 0x4172 JUMPI PUSH1 0x0 DUP1 REVERT JUMPDEST DUP5 CALLDATALOAD SWAP4 POP PUSH2 0x4182 PUSH1 0x20 DUP7 ADD PUSH2 0x3A6D JUMP JUMPDEST SWAP3 POP PUSH1 0x40 DUP6 ADD CALLDATALOAD PUSH1 0x1 PUSH1 0x1 PUSH1 0x40 SHL SUB DUP2 GT ISZERO PUSH2 0x419D JUMPI PUSH1 0x0 DUP1 REVERT JUMPDEST PUSH2 0x41A9 DUP8 DUP3 DUP9 ADD PUSH2 0x3A7E JUMP JUMPDEST SWAP6 SWAP9 SWAP5 SWAP8 POP SWAP6 POP POP POP POP JUMP JUMPDEST PUSH1 0x0 DUP1 PUSH1 0x0 DUP1 PUSH1 0x80 DUP6 DUP8 SUB SLT ISZERO PUSH2 0x41CB JUMPI PUSH1 0x0 DUP1 REVERT JUMPDEST DUP5 CALLDATALOAD PUSH1 0x1 PUSH1 0x1 PUSH1 0x40 SHL SUB DUP1 DUP3 GT ISZERO PUSH2 0x41E2 JUMPI PUSH1 0x0 DUP1 REVERT JUMPDEST PUSH2 0x41EE DUP9 DUP4 DUP10 ADD PUSH2 0x3D60 JUMP JUMPDEST SWAP6 POP PUSH1 0x20 DUP8 ADD CALLDATALOAD SWAP2 POP DUP1 DUP3 GT ISZERO PUSH2 0x4204 JUMPI PUSH1 0x0 DUP1 REVERT JUMPDEST PUSH2 0x4210 DUP9 DUP4 DUP10 ADD PUSH2 0x3DCD JUMP JUMPDEST SWAP5 POP PUSH1 0x40 DUP8 ADD CALLDATALOAD SWAP2 POP DUP1 DUP3 GT ISZERO PUSH2 0x4226 JUMPI PUSH1 0x0 DUP1 REVERT JUMPDEST PUSH2 0x4232 DUP9 DUP4 DUP10 ADD PUSH2 0x3E28 JUMP JUMPDEST SWAP4 POP PUSH1 0x60 DUP8 ADD CALLDATALOAD SWAP2 POP DUP1 DUP3 GT ISZERO PUSH2 0x4248 JUMPI PUSH1 0x0 DUP1 REVERT JUMPDEST POP DUP6 ADD PUSH1 0x1F DUP2 ADD DUP8 SGT PUSH2 0x425A JUMPI PUSH1 0x0 DUP1 REVERT JUMPDEST PUSH2 0x3D31 DUP8 DUP3 CALLDATALOAD PUSH1 0x20 DUP5 ADD PUSH2 0x3B33 JUMP JUMPDEST PUSH1 0x0 DUP2 MLOAD DUP1 DUP5 MSTORE PUSH1 0x20 DUP1 DUP6 ADD SWAP5 POP DUP1 DUP5 ADD PUSH1 0x0 JUMPDEST DUP4 DUP2 LT ISZERO PUSH2 0x4299 JUMPI DUP2 MLOAD DUP8 MSTORE SWAP6 DUP3 ADD SWAP6 SWAP1 DUP3 ADD SWAP1 PUSH1 0x1 ADD PUSH2 0x427D JUMP JUMPDEST POP SWAP5 SWAP6 SWAP5 POP POP POP POP POP JUMP JUMPDEST PUSH1 0xFF PUSH1 0xF8 SHL DUP9 AND DUP2 MSTORE PUSH1 0xE0 PUSH1 0x20 DUP3 ADD MSTORE PUSH1 0x0 PUSH2 0x42C3 PUSH1 0xE0 DUP4 ADD DUP10 PUSH2 0x3C80 JUMP JUMPDEST DUP3 DUP2 SUB PUSH1 0x40 DUP5 ADD MSTORE PUSH2 0x42D5 DUP2 DUP10 PUSH2 0x3C80 JUMP JUMPDEST PUSH1 0x60 DUP5 ADD DUP9 SWAP1 MSTORE PUSH1 0x1 PUSH1 0x1 PUSH1 0xA0 SHL SUB DUP8 AND PUSH1 0x80 DUP6 ADD MSTORE PUSH1 0xA0 DUP5 ADD DUP7 SWAP1 MSTORE DUP4 DUP2 SUB PUSH1 0xC0 DUP6 ADD MSTORE SWAP1 POP PUSH2 0xDEA DUP2 DUP6 PUSH2 0x4269 JUMP JUMPDEST PUSH1 0x0 DUP1 PUSH1 0x0 PUSH1 0x60 DUP5 DUP7 SUB SLT ISZERO PUSH2 0x431B JUMPI PUSH1 0x0 DUP1 REVERT JUMPDEST PUSH2 0x4324 DUP5 PUSH2 0x3CBF JUMP JUMPDEST SWAP3 POP PUSH1 0x20 DUP5 ADD CALLDATALOAD SWAP2 POP PUSH1 0x40 DUP5 ADD CALLDATALOAD PUSH1 0x1 PUSH1 0x1 PUSH1 0x40 SHL SUB DUP2 GT ISZERO PUSH2 0x4346 JUMPI PUSH1 0x0 DUP1 REVERT JUMPDEST PUSH2 0x4352 DUP7 DUP3 DUP8 ADD PUSH2 0x3B71 JUMP JUMPDEST SWAP2 POP POP SWAP3 POP SWAP3 POP SWAP3 JUMP JUMPDEST PUSH1 0x0 PUSH1 0x20 DUP3 DUP5 SUB SLT ISZERO PUSH2 0x436E JUMPI PUSH1 0x0 DUP1 REVERT JUMPDEST PUSH2 0x1CE1 DUP3 PUSH2 0x3CBF JUMP JUMPDEST PUSH1 0x60 DUP2 MSTORE PUSH1 0x0 PUSH2 0x438A PUSH1 0x60 DUP4 ADD DUP7 PUSH2 0x3C80 JUMP JUMPDEST SWAP4 ISZERO ISZERO PUSH1 0x20 DUP4 ADD MSTORE POP SWAP1 ISZERO ISZERO PUSH1 0x40 SWAP1 SWAP2 ADD MSTORE SWAP2 SWAP1 POP JUMP JUMPDEST PUSH1 0x0 DUP1 PUSH1 0x0 DUP1 PUSH1 0x0 PUSH1 0xA0 DUP7 DUP9 SUB SLT ISZERO PUSH2 0x43B9 JUMPI PUSH1 0x0 DUP1 REVERT JUMPDEST PUSH2 0x43C2 DUP7 PUSH2 0x3CBF JUMP JUMPDEST SWAP5 POP PUSH2 0x43D0 PUSH1 0x20 DUP8 ADD PUSH2 0x3CBF JUMP JUMPDEST SWAP4 POP PUSH1 0x40 DUP7 ADD CALLDATALOAD PUSH1 0x1 PUSH1 0x1 PUSH1 0x40 SHL SUB DUP1 DUP3 GT ISZERO PUSH2 0x43EC JUMPI PUSH1 0x0 DUP1 REVERT JUMPDEST PUSH2 0x43F8 DUP10 DUP4 DUP11 ADD PUSH2 0x3DCD JUMP JUMPDEST SWAP5 POP PUSH1 0x60 DUP9 ADD CALLDATALOAD SWAP2 POP DUP1 DUP3 GT ISZERO PUSH2 0x440E JUMPI PUSH1 0x0 DUP1 REVERT JUMPDEST PUSH2 0x441A DUP10 DUP4 DUP11 ADD PUSH2 0x3DCD JUMP JUMPDEST SWAP4 POP PUSH1 0x80 DUP9 ADD CALLDATALOAD SWAP2 POP DUP1 DUP3 GT ISZERO PUSH2 0x40FC JUMPI PUSH1 0x0 DUP1 REVERT JUMPDEST PUSH1 0x0 DUP1 PUSH1 0x0 DUP1 PUSH1 0x60 DUP6 DUP8 SUB SLT ISZERO PUSH2 0x4446 JUMPI PUSH1 0x0 DUP1 REVERT JUMPDEST PUSH2 0x444F DUP6 PUSH2 0x3CBF JUMP JUMPDEST SWAP4 POP PUSH1 0x20 DUP6 ADD CALLDATALOAD SWAP3 POP PUSH1 0x40 DUP6 ADD CALLDATALOAD PUSH1 0x1 PUSH1 0x1 PUSH1 0x40 SHL SUB DUP2 GT ISZERO PUSH2 0x419D JUMPI PUSH1 0x0 DUP1 REVERT JUMPDEST PUSH1 0x0 DUP1 PUSH1 0x40 DUP4 DUP6 SUB SLT ISZERO PUSH2 0x4484 JUMPI PUSH1 0x0 DUP1 REVERT JUMPDEST PUSH2 0x448D DUP4 PUSH2 0x3CBF JUMP JUMPDEST SWAP5 PUSH1 0x20 SWAP4 SWAP1 SWAP4 ADD CALLDATALOAD SWAP4 POP POP POP JUMP JUMPDEST PUSH1 0x0 DUP1 PUSH1 0x0 DUP1 PUSH1 0x0 PUSH1 0xA0 DUP7 DUP9 SUB SLT ISZERO PUSH2 0x44B3 JUMPI PUSH1 0x0 DUP1 REVERT JUMPDEST PUSH2 0x44BC DUP7 PUSH2 0x3CBF JUMP JUMPDEST SWAP5 POP PUSH2 0x44CA PUSH1 0x20 DUP8 ADD PUSH2 0x3CBF JUMP JUMPDEST SWAP4 POP PUSH1 0x40 DUP7 ADD CALLDATALOAD SWAP3 POP PUSH1 0x60 DUP7 ADD CALLDATALOAD SWAP2 POP PUSH1 0x80 DUP7 ADD CALLDATALOAD PUSH1 0x1 PUSH1 0x1 PUSH1 0x40 SHL SUB DUP2 GT ISZERO PUSH2 0x44F3 JUMPI PUSH1 0x0 DUP1 REVERT JUMPDEST PUSH2 0x4109 DUP9 DUP3 DUP10 ADD PUSH2 0x3B71 JUMP JUMPDEST DUP2 DUP4 DUP3 CALLDATACOPY PUSH1 0x0 SWAP2 ADD SWAP1 DUP2 MSTORE SWAP2 SWAP1 POP JUMP JUMPDEST PUSH1 0x20 DUP1 DUP3 MSTORE PUSH1 0x18 SWAP1 DUP3 ADD MSTORE PUSH32 0x476F7665726E6F723A206F6E6C79476F7665726E616E63650000000000000000 PUSH1 0x40 DUP3 ADD MSTORE PUSH1 0x60 ADD SWAP1 JUMP JUMPDEST PUSH1 0x1 DUP2 DUP2 SHR SWAP1 DUP3 AND DUP1 PUSH2 0x455A JUMPI PUSH1 0x7F DUP3 AND SWAP2 POP JUMPDEST PUSH1 0x20 DUP3 LT DUP2 EQ ISZERO PUSH2 0x457B JUMPI PUSH4 0x4E487B71 PUSH1 0xE0 SHL PUSH1 0x0 MSTORE PUSH1 0x22 PUSH1 0x4 MSTORE PUSH1 0x24 PUSH1 0x0 REVERT JUMPDEST POP SWAP2 SWAP1 POP JUMP JUMPDEST PUSH1 0x0 PUSH1 0x20 DUP3 DUP5 SUB SLT ISZERO PUSH2 0x4593 JUMPI PUSH1 0x0 DUP1 REVERT JUMPDEST DUP2 MLOAD PUSH1 0x1 PUSH1 0x1 PUSH1 0x40 SHL SUB DUP2 GT ISZERO PUSH2 0x45A9 JUMPI PUSH1 0x0 DUP1 REVERT JUMPDEST DUP3 ADD PUSH1 0x1F DUP2 ADD DUP5 SGT PUSH2 0x45BA JUMPI PUSH1 0x0 DUP1 REVERT JUMPDEST DUP1 MLOAD PUSH2 0x45C8 PUSH2 0x3B41 DUP3 PUSH2 0x3B0C JUMP JUMPDEST DUP2 DUP2 MSTORE DUP6 PUSH1 0x20 DUP4 DUP6 ADD ADD GT ISZERO PUSH2 0x45DD JUMPI PUSH1 0x0 DUP1 REVERT JUMPDEST PUSH2 0x27DE DUP3 PUSH1 0x20 DUP4 ADD PUSH1 0x20 DUP7 ADD PUSH2 0x3C50 JUMP JUMPDEST PUSH4 0x4E487B71 PUSH1 0xE0 SHL PUSH1 0x0 MSTORE PUSH1 0x11 PUSH1 0x4 MSTORE PUSH1 0x24 PUSH1 0x0 REVERT JUMPDEST PUSH1 0x0 DUP3 DUP3 LT ISZERO PUSH2 0x4616 JUMPI PUSH2 0x4616 PUSH2 0x45EE JUMP JUMPDEST POP SUB SWAP1 JUMP JUMPDEST PUSH4 0x4E487B71 PUSH1 0xE0 SHL PUSH1 0x0 MSTORE PUSH1 0x32 PUSH1 0x4 MSTORE PUSH1 0x24 PUSH1 0x0 REVERT JUMPDEST PUSH1 0x20 DUP1 DUP3 MSTORE PUSH1 0x21 SWAP1 DUP3 ADD MSTORE PUSH32 0x476F7665726E6F723A20696E76616C69642070726F706F73616C206C656E6774 PUSH1 0x40 DUP3 ADD MSTORE PUSH1 0xD PUSH1 0xFB SHL PUSH1 0x60 DUP3 ADD MSTORE PUSH1 0x80 ADD SWAP1 JUMP JUMPDEST PUSH1 0x0 DUP3 NOT DUP3 GT ISZERO PUSH2 0x4685 JUMPI PUSH2 0x4685 PUSH2 0x45EE JUMP JUMPDEST POP ADD SWAP1 JUMP JUMPDEST PUSH1 0x0 DUP2 MLOAD DUP1 DUP5 MSTORE PUSH1 0x20 DUP1 DUP6 ADD SWAP5 POP DUP1 DUP5 ADD PUSH1 0x0 JUMPDEST DUP4 DUP2 LT ISZERO PUSH2 0x4299 JUMPI DUP2 MLOAD PUSH1 0x1 PUSH1 0x1 PUSH1 0xA0 SHL SUB AND DUP8 MSTORE SWAP6 DUP3 ADD SWAP6 SWAP1 DUP3 ADD SWAP1 PUSH1 0x1 ADD PUSH2 0x469E JUMP JUMPDEST PUSH1 0x0 DUP3 DUP3 MLOAD DUP1 DUP6 MSTORE PUSH1 0x20 DUP1 DUP7 ADD SWAP6 POP DUP1 DUP3 PUSH1 0x5 SHL DUP5 ADD ADD DUP2 DUP7 ADD PUSH1 0x0 JUMPDEST DUP5 DUP2 LT ISZERO PUSH2 0x470E JUMPI PUSH1 0x1F NOT DUP7 DUP5 SUB ADD DUP10 MSTORE PUSH2 0x46FC DUP4 DUP4 MLOAD PUSH2 0x3C80 JUMP JUMPDEST SWAP9 DUP5 ADD SWAP9 SWAP3 POP SWAP1 DUP4 ADD SWAP1 PUSH1 0x1 ADD PUSH2 0x46E0 JUMP JUMPDEST POP SWAP1 SWAP8 SWAP7 POP POP POP POP POP POP POP JUMP JUMPDEST PUSH1 0x0 PUSH2 0x120 DUP12 DUP4 MSTORE PUSH1 0x20 PUSH1 0x1 DUP1 PUSH1 0xA0 SHL SUB DUP13 AND DUP2 DUP6 ADD MSTORE DUP2 PUSH1 0x40 DUP6 ADD MSTORE PUSH2 0x4744 DUP3 DUP6 ADD DUP13 PUSH2 0x468A JUMP JUMPDEST SWAP2 POP DUP4 DUP3 SUB PUSH1 0x60 DUP6 ADD MSTORE PUSH2 0x4758 DUP3 DUP12 PUSH2 0x4269 JUMP JUMPDEST SWAP2 POP DUP4 DUP3 SUB PUSH1 0x80 DUP6 ADD MSTORE DUP2 DUP10 MLOAD DUP1 DUP5 MSTORE DUP3 DUP5 ADD SWAP2 POP DUP3 DUP2 PUSH1 0x5 SHL DUP6 ADD ADD DUP4 DUP13 ADD PUSH1 0x0 JUMPDEST DUP4 DUP2 LT ISZERO PUSH2 0x47A9 JUMPI PUSH1 0x1F NOT DUP8 DUP5 SUB ADD DUP6 MSTORE PUSH2 0x4797 DUP4 DUP4 MLOAD PUSH2 0x3C80 JUMP JUMPDEST SWAP5 DUP7 ADD SWAP5 SWAP3 POP SWAP1 DUP6 ADD SWAP1 PUSH1 0x1 ADD PUSH2 0x477B JUMP JUMPDEST POP POP DUP7 DUP2 SUB PUSH1 0xA0 DUP9 ADD MSTORE PUSH2 0x47BD DUP2 DUP13 PUSH2 0x46C3 JUMP JUMPDEST SWAP5 POP POP POP POP POP DUP6 PUSH1 0xC0 DUP5 ADD MSTORE DUP5 PUSH1 0xE0 DUP5 ADD MSTORE DUP3 DUP2 SUB PUSH2 0x100 DUP5 ADD MSTORE PUSH2 0x47E2 DUP2 DUP6 PUSH2 0x3C80 JUMP JUMPDEST SWAP13 SWAP12 POP POP POP POP POP POP POP POP POP POP POP POP JUMP JUMPDEST PUSH1 0x0 PUSH1 0x20 DUP3 DUP5 SUB SLT ISZERO PUSH2 0x4804 JUMPI PUSH1 0x0 DUP1 REVERT JUMPDEST DUP2 MLOAD PUSH6 0xFFFFFFFFFFFF DUP2 AND DUP2 EQ PUSH2 0x1CE1 JUMPI PUSH1 0x0 DUP1 REVERT JUMPDEST PUSH1 0x80 DUP2 MSTORE PUSH1 0x0 PUSH2 0x482D PUSH1 0x80 DUP4 ADD DUP8 PUSH2 0x468A JUMP JUMPDEST DUP3 DUP2 SUB PUSH1 0x20 DUP5 ADD MSTORE PUSH2 0x483F DUP2 DUP8 PUSH2 0x4269 JUMP JUMPDEST SWAP1 POP DUP3 DUP2 SUB PUSH1 0x40 DUP5 ADD MSTORE PUSH2 0x4853 DUP2 DUP7 PUSH2 0x46C3 JUMP JUMPDEST SWAP2 POP POP DUP3 PUSH1 0x60 DUP4 ADD MSTORE SWAP6 SWAP5 POP POP POP POP POP JUMP JUMPDEST DUP5 DUP2 MSTORE PUSH1 0xFF DUP5 AND PUSH1 0x20 DUP3 ADD MSTORE DUP3 PUSH1 0x40 DUP3 ADD MSTORE PUSH1 0x80 PUSH1 0x60 DUP3 ADD MSTORE PUSH1 0x0 PUSH2 0x143F PUSH1 0x80 DUP4 ADD DUP5 PUSH2 0x3C80 JUMP JUMPDEST DUP6 DUP2 MSTORE PUSH1 0xFF DUP6 AND PUSH1 0x20 DUP3 ADD MSTORE DUP4 PUSH1 0x40 DUP3 ADD MSTORE PUSH1 0xA0 PUSH1 0x60 DUP3 ADD MSTORE PUSH1 0x0 PUSH2 0x48B5 PUSH1 0xA0 DUP4 ADD DUP6 PUSH2 0x3C80 JUMP JUMPDEST DUP3 DUP2 SUB PUSH1 0x80 DUP5 ADD MSTORE PUSH2 0x48C7 DUP2 DUP6 PUSH2 0x3C80 JUMP JUMPDEST SWAP9 SWAP8 POP POP POP POP POP POP POP POP JUMP JUMPDEST PUSH1 0x0 PUSH1 0x0 NOT DUP3 EQ ISZERO PUSH2 0x48E7 JUMPI PUSH2 0x48E7 PUSH2 0x45EE JUMP JUMPDEST POP PUSH1 0x1 ADD SWAP1 JUMP JUMPDEST PUSH1 0x0 DUP3 MLOAD PUSH2 0x4900 DUP2 DUP5 PUSH1 0x20 DUP8 ADD PUSH2 0x3C50 JUMP JUMPDEST SWAP2 SWAP1 SWAP2 ADD SWAP3 SWAP2 POP POP JUMP JUMPDEST PUSH1 0x0 PUSH1 0x20 DUP3 DUP5 SUB SLT ISZERO PUSH2 0x491C JUMPI PUSH1 0x0 DUP1 REVERT JUMPDEST POP MLOAD SWAP2 SWAP1 POP JUMP JUMPDEST PUSH1 0x0 DUP2 PUSH1 0x0 NOT DIV DUP4 GT DUP3 ISZERO ISZERO AND ISZERO PUSH2 0x493D JUMPI PUSH2 0x493D PUSH2 0x45EE JUMP JUMPDEST POP MUL SWAP1 JUMP JUMPDEST PUSH4 0x4E487B71 PUSH1 0xE0 SHL PUSH1 0x0 MSTORE PUSH1 0x12 PUSH1 0x4 MSTORE PUSH1 0x24 PUSH1 0x0 REVERT JUMPDEST PUSH1 0x0 DUP3 PUSH2 0x4975 JUMPI PUSH4 0x4E487B71 PUSH1 0xE0 SHL PUSH1 0x0 MSTORE PUSH1 0x12 PUSH1 0x4 MSTORE PUSH1 0x24 PUSH1 0x0 REVERT JUMPDEST POP DIV SWAP1 JUMP JUMPDEST DUP1 MLOAD PUSH1 0x20 DUP1 DUP4 ADD MLOAD SWAP2 SWAP1 DUP2 LT ISZERO PUSH2 0x457B JUMPI PUSH1 0x0 NOT PUSH1 0x20 SWAP2 SWAP1 SWAP2 SUB PUSH1 0x3 SHL SHL AND SWAP2 SWAP1 POP JUMP JUMPDEST PUSH32 0x416363657373436F6E74726F6C3A206163636F756E7420000000000000000000 DUP2 MSTORE PUSH1 0x0 DUP4 MLOAD PUSH2 0x49D6 DUP2 PUSH1 0x17 DUP6 ADD PUSH1 0x20 DUP9 ADD PUSH2 0x3C50 JUMP JUMPDEST PUSH17 0x1034B99036B4B9B9B4B733903937B6329 PUSH1 0x7D SHL PUSH1 0x17 SWAP2 DUP5 ADD SWAP2 DUP3 ADD MSTORE DUP4 MLOAD PUSH2 0x4A07 DUP2 PUSH1 0x28 DUP5 ADD PUSH1 0x20 DUP9 ADD PUSH2 0x3C50 JUMP JUMPDEST ADD PUSH1 0x28 ADD SWAP5 SWAP4 POP POP POP POP JUMP JUMPDEST PUSH1 0x0 DUP2 PUSH2 0x4A22 JUMPI PUSH2 0x4A22 PUSH2 0x45EE JUMP JUMPDEST POP PUSH1 0x0 NOT ADD SWAP1 JUMP INVALID SELFBALANCE PUSH16 0x7665726E6F723A2072656C6179207265 PUSH23 0x657274656420776974686F7574206D657373616765476F PUSH23 0x65726E6F723A2063616C6C207265766572746564207769 PUSH21 0x686F7574206D657373616765A26469706673582212 KECCAK256 DUP3 PUSH27 0xC346B24897929DFA34FF2416BA523B19422583D3243EBE8B2FDD35 LOG0 DUP14 0xCD PUSH5 0x736F6C6343 STOP ADDMOD MULMOD STOP CALLER "},"methodIdentifiers":{"BALLOT_TYPEHASH()":"deaaa7cc","CARETAKER_ROLE()":"033e6f4d","CLOCK_MODE()":"4bf5d7e9","COUNTING_MODE()":"dd4e2ba5","DEFAULT_ADMIN_ROLE()":"a217fddf","EXTENDED_BALLOT_TYPEHASH()":"2fe3e261","MODERATOR_ROLE()":"797669c9","USER_ROLE()":"13119161","apartamentToDateToMonthlyPayments(uint256,uint256)":"3ef4cc8b","archivedBills(uint256)":"a71e9a9c","bills(uint256)":"28bdcde8","cancel(address[],uint256[],bytes[],bytes32)":"452115d6","castVote(uint256,uint8)":"56781388","castVoteBySig(uint256,uint8,uint8,bytes32,bytes32)":"3bccf4fd","castVoteWithReason(uint256,uint8,string)":"7b3c71d3","castVoteWithReasonAndParams(uint256,uint8,string,bytes)":"5f398a14","castVoteWithReasonAndParamsBySig(uint256,uint8,string,bytes,uint8,bytes32,bytes32)":"03420181","clock()":"91ddadf4","dateToApartamentToMonthlyPayments(uint256,uint256)":"40dd07b9","eip712Domain()":"84b0196e","execute(address[],uint256[],bytes[],bytes32)":"2656227d","getRoleAdmin(bytes32)":"248a9ca3","getVotes(address,uint256)":"eb9019d4","getVotesWithParams(address,uint256,bytes)":"9a802a6d","grantRole(bytes32,address)":"2f2ff15d","hasRole(bytes32,address)":"91d14854","hasVoted(uint256,address)":"43859632","hashProposal(address[],uint256[],bytes[],bytes32)":"c59057e4","name()":"06fdde03","onERC1155BatchReceived(address,address,uint256[],uint256[],bytes)":"bc197c81","onERC1155Received(address,address,uint256,uint256,bytes)":"f23a6e61","onERC721Received(address,address,uint256,bytes)":"150b7a02","proposalDeadline(uint256)":"c01f9e37","proposalProposer(uint256)":"143489d0","proposalSnapshot(uint256)":"2d63f693","proposalThreshold()":"b58131b0","proposalVotes(uint256)":"544ffc9c","propose(address[],uint256[],bytes[],string)":"7d5e81e2","quorum(uint256)":"f8ce560a","quorumDenominator()":"97c3d334","quorumNumerator()":"a7713a70","quorumNumerator(uint256)":"60c4247f","relay(address,uint256,bytes)":"c28bc2fa","renounceRole(bytes32,address)":"36568abe","revokeRole(bytes32,address)":"d547741f","setProposalThreshold(uint256)":"ece40cc1","setVotingDelay(uint256)":"70b0f660","setVotingPeriod(uint256)":"ea0217cf","spaces(uint256)":"7586353b","state(uint256)":"3e4f49e6","supportsInterface(bytes4)":"01ffc9a7","token()":"fc0c546a","updateQuorumNumerator(uint256)":"06f3f9e6","users(address)":"a87430ba","version()":"54fd4d50","votingDelay()":"3932abb1","votingPeriod()":"02a251a3"}}}}}