{
  "_format": "hh-sol-artifact-1",
  "contractName": "SinDAO",
  "sourceName": "contracts/SinDAO.sol",
  "abi": [
    {
      "inputs": [
        {
          "internalType": "contract IVotes",
          "name": "_token",
          "type": "address"
        }
      ],
      "stateMutability": "nonpayable",
      "type": "constructor"
    },
    {
      "inputs": [],
      "name": "Empty",
      "type": "error"
    },
    {
      "inputs": [],
      "name": "InvalidShortString",
      "type": "error"
    },
    {
      "inputs": [
        {
          "internalType": "string",
          "name": "str",
          "type": "string"
        }
      ],
      "name": "StringTooLong",
      "type": "error"
    },
    {
      "anonymous": false,
      "inputs": [],
      "name": "EIP712DomainChanged",
      "type": "event"
    },
    {
      "anonymous": false,
      "inputs": [
        {
          "indexed": false,
          "internalType": "uint256",
          "name": "proposalId",
          "type": "uint256"
        }
      ],
      "name": "ProposalCanceled",
      "type": "event"
    },
    {
      "anonymous": false,
      "inputs": [
        {
          "indexed": false,
          "internalType": "uint256",
          "name": "proposalId",
          "type": "uint256"
        },
        {
          "indexed": false,
          "internalType": "address",
          "name": "proposer",
          "type": "address"
        },
        {
          "indexed": false,
          "internalType": "address[]",
          "name": "targets",
          "type": "address[]"
        },
        {
          "indexed": false,
          "internalType": "uint256[]",
          "name": "values",
          "type": "uint256[]"
        },
        {
          "indexed": false,
          "internalType": "string[]",
          "name": "signatures",
          "type": "string[]"
        },
        {
          "indexed": false,
          "internalType": "bytes[]",
          "name": "calldatas",
          "type": "bytes[]"
        },
        {
          "indexed": false,
          "internalType": "uint256",
          "name": "voteStart",
          "type": "uint256"
        },
        {
          "indexed": false,
          "internalType": "uint256",
          "name": "voteEnd",
          "type": "uint256"
        },
        {
          "indexed": false,
          "internalType": "string",
          "name": "description",
          "type": "string"
        }
      ],
      "name": "ProposalCreated",
      "type": "event"
    },
    {
      "anonymous": false,
      "inputs": [
        {
          "indexed": false,
          "internalType": "uint256",
          "name": "proposalId",
          "type": "uint256"
        }
      ],
      "name": "ProposalExecuted",
      "type": "event"
    },
    {
      "anonymous": false,
      "inputs": [
        {
          "indexed": false,
          "internalType": "uint256",
          "name": "oldProposalThreshold",
          "type": "uint256"
        },
        {
          "indexed": false,
          "internalType": "uint256",
          "name": "newProposalThreshold",
          "type": "uint256"
        }
      ],
      "name": "ProposalThresholdSet",
      "type": "event"
    },
    {
      "anonymous": false,
      "inputs": [
        {
          "indexed": false,
          "internalType": "uint256",
          "name": "oldQuorumNumerator",
          "type": "uint256"
        },
        {
          "indexed": false,
          "internalType": "uint256",
          "name": "newQuorumNumerator",
          "type": "uint256"
        }
      ],
      "name": "QuorumNumeratorUpdated",
      "type": "event"
    },
    {
      "anonymous": false,
      "inputs": [
        {
          "indexed": true,
          "internalType": "bytes32",
          "name": "role",
          "type": "bytes32"
        },
        {
          "indexed": true,
          "internalType": "bytes32",
          "name": "previousAdminRole",
          "type": "bytes32"
        },
        {
          "indexed": true,
          "internalType": "bytes32",
          "name": "newAdminRole",
          "type": "bytes32"
        }
      ],
      "name": "RoleAdminChanged",
      "type": "event"
    },
    {
      "anonymous": false,
      "inputs": [
        {
          "indexed": true,
          "internalType": "bytes32",
          "name": "role",
          "type": "bytes32"
        },
        {
          "indexed": true,
          "internalType": "address",
          "name": "account",
          "type": "address"
        },
        {
          "indexed": true,
          "internalType": "address",
          "name": "sender",
          "type": "address"
        }
      ],
      "name": "RoleGranted",
      "type": "event"
    },
    {
      "anonymous": false,
      "inputs": [
        {
          "indexed": true,
          "internalType": "bytes32",
          "name": "role",
          "type": "bytes32"
        },
        {
          "indexed": true,
          "internalType": "address",
          "name": "account",
          "type": "address"
        },
        {
          "indexed": true,
          "internalType": "address",
          "name": "sender",
          "type": "address"
        }
      ],
      "name": "RoleRevoked",
      "type": "event"
    },
    {
      "anonymous": false,
      "inputs": [
        {
          "indexed": true,
          "internalType": "address",
          "name": "voter",
          "type": "address"
        },
        {
          "indexed": false,
          "internalType": "uint256",
          "name": "proposalId",
          "type": "uint256"
        },
        {
          "indexed": false,
          "internalType": "uint8",
          "name": "support",
          "type": "uint8"
        },
        {
          "indexed": false,
          "internalType": "uint256",
          "name": "weight",
          "type": "uint256"
        },
        {
          "indexed": false,
          "internalType": "string",
          "name": "reason",
          "type": "string"
        }
      ],
      "name": "VoteCast",
      "type": "event"
    },
    {
      "anonymous": false,
      "inputs": [
        {
          "indexed": true,
          "internalType": "address",
          "name": "voter",
          "type": "address"
        },
        {
          "indexed": false,
          "internalType": "uint256",
          "name": "proposalId",
          "type": "uint256"
        },
        {
          "indexed": false,
          "internalType": "uint8",
          "name": "support",
          "type": "uint8"
        },
        {
          "indexed": false,
          "internalType": "uint256",
          "name": "weight",
          "type": "uint256"
        },
        {
          "indexed": false,
          "internalType": "string",
          "name": "reason",
          "type": "string"
        },
        {
          "indexed": false,
          "internalType": "bytes",
          "name": "params",
          "type": "bytes"
        }
      ],
      "name": "VoteCastWithParams",
      "type": "event"
    },
    {
      "anonymous": false,
      "inputs": [
        {
          "indexed": false,
          "internalType": "uint256",
          "name": "oldVotingDelay",
          "type": "uint256"
        },
        {
          "indexed": false,
          "internalType": "uint256",
          "name": "newVotingDelay",
          "type": "uint256"
        }
      ],
      "name": "VotingDelaySet",
      "type": "event"
    },
    {
      "anonymous": false,
      "inputs": [
        {
          "indexed": false,
          "internalType": "uint256",
          "name": "oldVotingPeriod",
          "type": "uint256"
        },
        {
          "indexed": false,
          "internalType": "uint256",
          "name": "newVotingPeriod",
          "type": "uint256"
        }
      ],
      "name": "VotingPeriodSet",
      "type": "event"
    },
    {
      "inputs": [],
      "name": "BALLOT_TYPEHASH",
      "outputs": [
        {
          "internalType": "bytes32",
          "name": "",
          "type": "bytes32"
        }
      ],
      "stateMutability": "view",
      "type": "function"
    },
    {
      "inputs": [],
      "name": "CARETAKER_ROLE",
      "outputs": [
        {
          "internalType": "bytes32",
          "name": "",
          "type": "bytes32"
        }
      ],
      "stateMutability": "view",
      "type": "function"
    },
    {
      "inputs": [],
      "name": "CLOCK_MODE",
      "outputs": [
        {
          "internalType": "string",
          "name": "",
          "type": "string"
        }
      ],
      "stateMutability": "view",
      "type": "function"
    },
    {
      "inputs": [],
      "name": "COUNTING_MODE",
      "outputs": [
        {
          "internalType": "string",
          "name": "",
          "type": "string"
        }
      ],
      "stateMutability": "pure",
      "type": "function"
    },
    {
      "inputs": [],
      "name": "DEFAULT_ADMIN_ROLE",
      "outputs": [
        {
          "internalType": "bytes32",
          "name": "",
          "type": "bytes32"
        }
      ],
      "stateMutability": "view",
      "type": "function"
    },
    {
      "inputs": [],
      "name": "EXTENDED_BALLOT_TYPEHASH",
      "outputs": [
        {
          "internalType": "bytes32",
          "name": "",
          "type": "bytes32"
        }
      ],
      "stateMutability": "view",
      "type": "function"
    },
    {
      "inputs": [],
      "name": "MODERATOR_ROLE",
      "outputs": [
        {
          "internalType": "bytes32",
          "name": "",
          "type": "bytes32"
        }
      ],
      "stateMutability": "view",
      "type": "function"
    },
    {
      "inputs": [],
      "name": "USER_ROLE",
      "outputs": [
        {
          "internalType": "bytes32",
          "name": "",
          "type": "bytes32"
        }
      ],
      "stateMutability": "view",
      "type": "function"
    },
    {
      "inputs": [
        {
          "internalType": "uint256",
          "name": "",
          "type": "uint256"
        },
        {
          "internalType": "uint256",
          "name": "",
          "type": "uint256"
        }
      ],
      "name": "apartamentToDateToMonthlyPayments",
      "outputs": [
        {
          "internalType": "enum SinDAO.MonthlyPaymentStatusEnum",
          "name": "status",
          "type": "uint8"
        },
        {
          "internalType": "address",
          "name": "payee",
          "type": "address"
        }
      ],
      "stateMutability": "view",
      "type": "function"
    },
    {
      "inputs": [
        {
          "internalType": "uint256",
          "name": "",
          "type": "uint256"
        }
      ],
      "name": "archivedBills",
      "outputs": [
        {
          "internalType": "string",
          "name": "description",
          "type": "string"
        },
        {
          "internalType": "uint256",
          "name": "value",
          "type": "uint256"
        },
        {
          "internalType": "address",
          "name": "payee",
          "type": "address"
        },
        {
          "internalType": "address",
          "name": "receiver",
          "type": "address"
        }
      ],
      "stateMutability": "view",
      "type": "function"
    },
    {
      "inputs": [
        {
          "internalType": "uint256",
          "name": "",
          "type": "uint256"
        }
      ],
      "name": "bills",
      "outputs": [
        {
          "internalType": "string",
          "name": "description",
          "type": "string"
        },
        {
          "internalType": "uint256",
          "name": "value",
          "type": "uint256"
        },
        {
          "internalType": "address",
          "name": "payee",
          "type": "address"
        },
        {
          "internalType": "address",
          "name": "receiver",
          "type": "address"
        }
      ],
      "stateMutability": "view",
      "type": "function"
    },
    {
      "inputs": [
        {
          "internalType": "address[]",
          "name": "targets",
          "type": "address[]"
        },
        {
          "internalType": "uint256[]",
          "name": "values",
          "type": "uint256[]"
        },
        {
          "internalType": "bytes[]",
          "name": "calldatas",
          "type": "bytes[]"
        },
        {
          "internalType": "bytes32",
          "name": "descriptionHash",
          "type": "bytes32"
        }
      ],
      "name": "cancel",
      "outputs": [
        {
          "internalType": "uint256",
          "name": "",
          "type": "uint256"
        }
      ],
      "stateMutability": "nonpayable",
      "type": "function"
    },
    {
      "inputs": [
        {
          "internalType": "uint256",
          "name": "proposalId",
          "type": "uint256"
        },
        {
          "internalType": "uint8",
          "name": "support",
          "type": "uint8"
        }
      ],
      "name": "castVote",
      "outputs": [
        {
          "internalType": "uint256",
          "name": "",
          "type": "uint256"
        }
      ],
      "stateMutability": "nonpayable",
      "type": "function"
    },
    {
      "inputs": [
        {
          "internalType": "uint256",
          "name": "proposalId",
          "type": "uint256"
        },
        {
          "internalType": "uint8",
          "name": "support",
          "type": "uint8"
        },
        {
          "internalType": "uint8",
          "name": "v",
          "type": "uint8"
        },
        {
          "internalType": "bytes32",
          "name": "r",
          "type": "bytes32"
        },
        {
          "internalType": "bytes32",
          "name": "s",
          "type": "bytes32"
        }
      ],
      "name": "castVoteBySig",
      "outputs": [
        {
          "internalType": "uint256",
          "name": "",
          "type": "uint256"
        }
      ],
      "stateMutability": "nonpayable",
      "type": "function"
    },
    {
      "inputs": [
        {
          "internalType": "uint256",
          "name": "proposalId",
          "type": "uint256"
        },
        {
          "internalType": "uint8",
          "name": "support",
          "type": "uint8"
        },
        {
          "internalType": "string",
          "name": "reason",
          "type": "string"
        }
      ],
      "name": "castVoteWithReason",
      "outputs": [
        {
          "internalType": "uint256",
          "name": "",
          "type": "uint256"
        }
      ],
      "stateMutability": "nonpayable",
      "type": "function"
    },
    {
      "inputs": [
        {
          "internalType": "uint256",
          "name": "proposalId",
          "type": "uint256"
        },
        {
          "internalType": "uint8",
          "name": "support",
          "type": "uint8"
        },
        {
          "internalType": "string",
          "name": "reason",
          "type": "string"
        },
        {
          "internalType": "bytes",
          "name": "params",
          "type": "bytes"
        }
      ],
      "name": "castVoteWithReasonAndParams",
      "outputs": [
        {
          "internalType": "uint256",
          "name": "",
          "type": "uint256"
        }
      ],
      "stateMutability": "nonpayable",
      "type": "function"
    },
    {
      "inputs": [
        {
          "internalType": "uint256",
          "name": "proposalId",
          "type": "uint256"
        },
        {
          "internalType": "uint8",
          "name": "support",
          "type": "uint8"
        },
        {
          "internalType": "string",
          "name": "reason",
          "type": "string"
        },
        {
          "internalType": "bytes",
          "name": "params",
          "type": "bytes"
        },
        {
          "internalType": "uint8",
          "name": "v",
          "type": "uint8"
        },
        {
          "internalType": "bytes32",
          "name": "r",
          "type": "bytes32"
        },
        {
          "internalType": "bytes32",
          "name": "s",
          "type": "bytes32"
        }
      ],
      "name": "castVoteWithReasonAndParamsBySig",
      "outputs": [
        {
          "internalType": "uint256",
          "name": "",
          "type": "uint256"
        }
      ],
      "stateMutability": "nonpayable",
      "type": "function"
    },
    {
      "inputs": [],
      "name": "clock",
      "outputs": [
        {
          "internalType": "uint48",
          "name": "",
          "type": "uint48"
        }
      ],
      "stateMutability": "view",
      "type": "function"
    },
    {
      "inputs": [
        {
          "internalType": "uint256",
          "name": "",
          "type": "uint256"
        },
        {
          "internalType": "uint256",
          "name": "",
          "type": "uint256"
        }
      ],
      "name": "dateToApartamentToMonthlyPayments",
      "outputs": [
        {
          "internalType": "enum SinDAO.MonthlyPaymentStatusEnum",
          "name": "status",
          "type": "uint8"
        },
        {
          "internalType": "address",
          "name": "payee",
          "type": "address"
        }
      ],
      "stateMutability": "view",
      "type": "function"
    },
    {
      "inputs": [],
      "name": "eip712Domain",
      "outputs": [
        {
          "internalType": "bytes1",
          "name": "fields",
          "type": "bytes1"
        },
        {
          "internalType": "string",
          "name": "name",
          "type": "string"
        },
        {
          "internalType": "string",
          "name": "version",
          "type": "string"
        },
        {
          "internalType": "uint256",
          "name": "chainId",
          "type": "uint256"
        },
        {
          "internalType": "address",
          "name": "verifyingContract",
          "type": "address"
        },
        {
          "internalType": "bytes32",
          "name": "salt",
          "type": "bytes32"
        },
        {
          "internalType": "uint256[]",
          "name": "extensions",
          "type": "uint256[]"
        }
      ],
      "stateMutability": "view",
      "type": "function"
    },
    {
      "inputs": [
        {
          "internalType": "address[]",
          "name": "targets",
          "type": "address[]"
        },
        {
          "internalType": "uint256[]",
          "name": "values",
          "type": "uint256[]"
        },
        {
          "internalType": "bytes[]",
          "name": "calldatas",
          "type": "bytes[]"
        },
        {
          "internalType": "bytes32",
          "name": "descriptionHash",
          "type": "bytes32"
        }
      ],
      "name": "execute",
      "outputs": [
        {
          "internalType": "uint256",
          "name": "",
          "type": "uint256"
        }
      ],
      "stateMutability": "payable",
      "type": "function"
    },
    {
      "inputs": [
        {
          "internalType": "bytes32",
          "name": "role",
          "type": "bytes32"
        }
      ],
      "name": "getRoleAdmin",
      "outputs": [
        {
          "internalType": "bytes32",
          "name": "",
          "type": "bytes32"
        }
      ],
      "stateMutability": "view",
      "type": "function"
    },
    {
      "inputs": [
        {
          "internalType": "address",
          "name": "account",
          "type": "address"
        },
        {
          "internalType": "uint256",
          "name": "timepoint",
          "type": "uint256"
        }
      ],
      "name": "getVotes",
      "outputs": [
        {
          "internalType": "uint256",
          "name": "",
          "type": "uint256"
        }
      ],
      "stateMutability": "view",
      "type": "function"
    },
    {
      "inputs": [
        {
          "internalType": "address",
          "name": "account",
          "type": "address"
        },
        {
          "internalType": "uint256",
          "name": "timepoint",
          "type": "uint256"
        },
        {
          "internalType": "bytes",
          "name": "params",
          "type": "bytes"
        }
      ],
      "name": "getVotesWithParams",
      "outputs": [
        {
          "internalType": "uint256",
          "name": "",
          "type": "uint256"
        }
      ],
      "stateMutability": "view",
      "type": "function"
    },
    {
      "inputs": [
        {
          "internalType": "bytes32",
          "name": "role",
          "type": "bytes32"
        },
        {
          "internalType": "address",
          "name": "account",
          "type": "address"
        }
      ],
      "name": "grantRole",
      "outputs": [],
      "stateMutability": "nonpayable",
      "type": "function"
    },
    {
      "inputs": [
        {
          "internalType": "bytes32",
          "name": "role",
          "type": "bytes32"
        },
        {
          "internalType": "address",
          "name": "account",
          "type": "address"
        }
      ],
      "name": "hasRole",
      "outputs": [
        {
          "internalType": "bool",
          "name": "",
          "type": "bool"
        }
      ],
      "stateMutability": "view",
      "type": "function"
    },
    {
      "inputs": [
        {
          "internalType": "uint256",
          "name": "proposalId",
          "type": "uint256"
        },
        {
          "internalType": "address",
          "name": "account",
          "type": "address"
        }
      ],
      "name": "hasVoted",
      "outputs": [
        {
          "internalType": "bool",
          "name": "",
          "type": "bool"
        }
      ],
      "stateMutability": "view",
      "type": "function"
    },
    {
      "inputs": [
        {
          "internalType": "address[]",
          "name": "targets",
          "type": "address[]"
        },
        {
          "internalType": "uint256[]",
          "name": "values",
          "type": "uint256[]"
        },
        {
          "internalType": "bytes[]",
          "name": "calldatas",
          "type": "bytes[]"
        },
        {
          "internalType": "bytes32",
          "name": "descriptionHash",
          "type": "bytes32"
        }
      ],
      "name": "hashProposal",
      "outputs": [
        {
          "internalType": "uint256",
          "name": "",
          "type": "uint256"
        }
      ],
      "stateMutability": "pure",
      "type": "function"
    },
    {
      "inputs": [],
      "name": "name",
      "outputs": [
        {
          "internalType": "string",
          "name": "",
          "type": "string"
        }
      ],
      "stateMutability": "view",
      "type": "function"
    },
    {
      "inputs": [
        {
          "internalType": "address",
          "name": "",
          "type": "address"
        },
        {
          "internalType": "address",
          "name": "",
          "type": "address"
        },
        {
          "internalType": "uint256[]",
          "name": "",
          "type": "uint256[]"
        },
        {
          "internalType": "uint256[]",
          "name": "",
          "type": "uint256[]"
        },
        {
          "internalType": "bytes",
          "name": "",
          "type": "bytes"
        }
      ],
      "name": "onERC1155BatchReceived",
      "outputs": [
        {
          "internalType": "bytes4",
          "name": "",
          "type": "bytes4"
        }
      ],
      "stateMutability": "nonpayable",
      "type": "function"
    },
    {
      "inputs": [
        {
          "internalType": "address",
          "name": "",
          "type": "address"
        },
        {
          "internalType": "address",
          "name": "",
          "type": "address"
        },
        {
          "internalType": "uint256",
          "name": "",
          "type": "uint256"
        },
        {
          "internalType": "uint256",
          "name": "",
          "type": "uint256"
        },
        {
          "internalType": "bytes",
          "name": "",
          "type": "bytes"
        }
      ],
      "name": "onERC1155Received",
      "outputs": [
        {
          "internalType": "bytes4",
          "name": "",
          "type": "bytes4"
        }
      ],
      "stateMutability": "nonpayable",
      "type": "function"
    },
    {
      "inputs": [
        {
          "internalType": "address",
          "name": "",
          "type": "address"
        },
        {
          "internalType": "address",
          "name": "",
          "type": "address"
        },
        {
          "internalType": "uint256",
          "name": "",
          "type": "uint256"
        },
        {
          "internalType": "bytes",
          "name": "",
          "type": "bytes"
        }
      ],
      "name": "onERC721Received",
      "outputs": [
        {
          "internalType": "bytes4",
          "name": "",
          "type": "bytes4"
        }
      ],
      "stateMutability": "nonpayable",
      "type": "function"
    },
    {
      "inputs": [
        {
          "internalType": "uint256",
          "name": "proposalId",
          "type": "uint256"
        }
      ],
      "name": "proposalDeadline",
      "outputs": [
        {
          "internalType": "uint256",
          "name": "",
          "type": "uint256"
        }
      ],
      "stateMutability": "view",
      "type": "function"
    },
    {
      "inputs": [
        {
          "internalType": "uint256",
          "name": "proposalId",
          "type": "uint256"
        }
      ],
      "name": "proposalProposer",
      "outputs": [
        {
          "internalType": "address",
          "name": "",
          "type": "address"
        }
      ],
      "stateMutability": "view",
      "type": "function"
    },
    {
      "inputs": [
        {
          "internalType": "uint256",
          "name": "proposalId",
          "type": "uint256"
        }
      ],
      "name": "proposalSnapshot",
      "outputs": [
        {
          "internalType": "uint256",
          "name": "",
          "type": "uint256"
        }
      ],
      "stateMutability": "view",
      "type": "function"
    },
    {
      "inputs": [],
      "name": "proposalThreshold",
      "outputs": [
        {
          "internalType": "uint256",
          "name": "",
          "type": "uint256"
        }
      ],
      "stateMutability": "view",
      "type": "function"
    },
    {
      "inputs": [
        {
          "internalType": "uint256",
          "name": "proposalId",
          "type": "uint256"
        }
      ],
      "name": "proposalVotes",
      "outputs": [
        {
          "internalType": "uint256",
          "name": "againstVotes",
          "type": "uint256"
        },
        {
          "internalType": "uint256",
          "name": "forVotes",
          "type": "uint256"
        },
        {
          "internalType": "uint256",
          "name": "abstainVotes",
          "type": "uint256"
        }
      ],
      "stateMutability": "view",
      "type": "function"
    },
    {
      "inputs": [
        {
          "internalType": "address[]",
          "name": "targets",
          "type": "address[]"
        },
        {
          "internalType": "uint256[]",
          "name": "values",
          "type": "uint256[]"
        },
        {
          "internalType": "bytes[]",
          "name": "calldatas",
          "type": "bytes[]"
        },
        {
          "internalType": "string",
          "name": "description",
          "type": "string"
        }
      ],
      "name": "propose",
      "outputs": [
        {
          "internalType": "uint256",
          "name": "",
          "type": "uint256"
        }
      ],
      "stateMutability": "nonpayable",
      "type": "function"
    },
    {
      "inputs": [
        {
          "internalType": "uint256",
          "name": "blockNumber",
          "type": "uint256"
        }
      ],
      "name": "quorum",
      "outputs": [
        {
          "internalType": "uint256",
          "name": "",
          "type": "uint256"
        }
      ],
      "stateMutability": "view",
      "type": "function"
    },
    {
      "inputs": [],
      "name": "quorumDenominator",
      "outputs": [
        {
          "internalType": "uint256",
          "name": "",
          "type": "uint256"
        }
      ],
      "stateMutability": "view",
      "type": "function"
    },
    {
      "inputs": [
        {
          "internalType": "uint256",
          "name": "timepoint",
          "type": "uint256"
        }
      ],
      "name": "quorumNumerator",
      "outputs": [
        {
          "internalType": "uint256",
          "name": "",
          "type": "uint256"
        }
      ],
      "stateMutability": "view",
      "type": "function"
    },
    {
      "inputs": [],
      "name": "quorumNumerator",
      "outputs": [
        {
          "internalType": "uint256",
          "name": "",
          "type": "uint256"
        }
      ],
      "stateMutability": "view",
      "type": "function"
    },
    {
      "inputs": [
        {
          "internalType": "address",
          "name": "target",
          "type": "address"
        },
        {
          "internalType": "uint256",
          "name": "value",
          "type": "uint256"
        },
        {
          "internalType": "bytes",
          "name": "data",
          "type": "bytes"
        }
      ],
      "name": "relay",
      "outputs": [],
      "stateMutability": "payable",
      "type": "function"
    },
    {
      "inputs": [
        {
          "internalType": "bytes32",
          "name": "role",
          "type": "bytes32"
        },
        {
          "internalType": "address",
          "name": "account",
          "type": "address"
        }
      ],
      "name": "renounceRole",
      "outputs": [],
      "stateMutability": "nonpayable",
      "type": "function"
    },
    {
      "inputs": [
        {
          "internalType": "bytes32",
          "name": "role",
          "type": "bytes32"
        },
        {
          "internalType": "address",
          "name": "account",
          "type": "address"
        }
      ],
      "name": "revokeRole",
      "outputs": [],
      "stateMutability": "nonpayable",
      "type": "function"
    },
    {
      "inputs": [
        {
          "internalType": "uint256",
          "name": "newProposalThreshold",
          "type": "uint256"
        }
      ],
      "name": "setProposalThreshold",
      "outputs": [],
      "stateMutability": "nonpayable",
      "type": "function"
    },
    {
      "inputs": [
        {
          "internalType": "uint256",
          "name": "newVotingDelay",
          "type": "uint256"
        }
      ],
      "name": "setVotingDelay",
      "outputs": [],
      "stateMutability": "nonpayable",
      "type": "function"
    },
    {
      "inputs": [
        {
          "internalType": "uint256",
          "name": "newVotingPeriod",
          "type": "uint256"
        }
      ],
      "name": "setVotingPeriod",
      "outputs": [],
      "stateMutability": "nonpayable",
      "type": "function"
    },
    {
      "inputs": [
        {
          "internalType": "uint256",
          "name": "",
          "type": "uint256"
        }
      ],
      "name": "spaces",
      "outputs": [
        {
          "internalType": "string",
          "name": "name",
          "type": "string"
        },
        {
          "internalType": "string",
          "name": "description",
          "type": "string"
        },
        {
          "internalType": "uint256",
          "name": "reservationValue",
          "type": "uint256"
        },
        {
          "internalType": "enum SinDAO.SpaceStatusEnum",
          "name": "status",
          "type": "uint8"
        }
      ],
      "stateMutability": "view",
      "type": "function"
    },
    {
      "inputs": [
        {
          "internalType": "uint256",
          "name": "proposalId",
          "type": "uint256"
        }
      ],
      "name": "state",
      "outputs": [
        {
          "internalType": "enum IGovernor.ProposalState",
          "name": "",
          "type": "uint8"
        }
      ],
      "stateMutability": "view",
      "type": "function"
    },
    {
      "inputs": [
        {
          "internalType": "bytes4",
          "name": "interfaceId",
          "type": "bytes4"
        }
      ],
      "name": "supportsInterface",
      "outputs": [
        {
          "internalType": "bool",
          "name": "",
          "type": "bool"
        }
      ],
      "stateMutability": "view",
      "type": "function"
    },
    {
      "inputs": [],
      "name": "token",
      "outputs": [
        {
          "internalType": "contract IERC5805",
          "name": "",
          "type": "address"
        }
      ],
      "stateMutability": "view",
      "type": "function"
    },
    {
      "inputs": [
        {
          "internalType": "uint256",
          "name": "newQuorumNumerator",
          "type": "uint256"
        }
      ],
      "name": "updateQuorumNumerator",
      "outputs": [],
      "stateMutability": "nonpayable",
      "type": "function"
    },
    {
      "inputs": [
        {
          "internalType": "address",
          "name": "",
          "type": "address"
        }
      ],
      "name": "users",
      "outputs": [
        {
          "internalType": "string",
          "name": "name",
          "type": "string"
        },
        {
          "internalType": "bool",
          "name": "active",
          "type": "bool"
        },
        {
          "internalType": "bool",
          "name": "canInteract",
          "type": "bool"
        }
      ],
      "stateMutability": "view",
      "type": "function"
    },
    {
      "inputs": [],
      "name": "version",
      "outputs": [
        {
          "internalType": "string",
          "name": "",
          "type": "string"
        }
      ],
      "stateMutability": "view",
      "type": "function"
    },
    {
      "inputs": [],
      "name": "votingDelay",
      "outputs": [
        {
          "internalType": "uint256",
          "name": "",
          "type": "uint256"
        }
      ],
      "stateMutability": "view",
      "type": "function"
    },
    {
      "inputs": [],
      "name": "votingPeriod",
      "outputs": [
        {
          "internalType": "uint256",
          "name": "",
          "type": "uint256"
        }
      ],
      "stateMutability": "view",
      "type": "function"
    },
    {
      "stateMutability": "payable",
      "type": "receive"
    }
  ],
  "bytecode": "0x6101806040523480156200001257600080fd5b506040516200570c3803806200570c833981016040819052620000359162000aa9565b600481611c2061c4e060006040518060400160405280600681526020016553696e44414f60d01b8152508062000070620001a860201b60201c565b6200008b600083620001c360201b62001fbc1790919060201c565b61012052620000a8816001620001c3602090811b62001fbc17901c565b61014052815160208084019190912060e052815190820120610100524660a0526200013660e05161010051604080517f8b73c3c69bb8fe3d512ecc4cf759cc79239f7b179b0ffacaa9a75d522b39400f60208201529081019290925260608201524660808201523060a082015260009060c00160405160208183030381529060405280519060200120905090565b60805250503060c05280516200015490600290602084019062000a0d565b506200016290508362000217565b6200016d8262000258565b6200017881620002ff565b5050506001600160a01b031661016052620001938162000340565b50620001a1600033620004f5565b5062000bdb565b6040805180820190915260018152603160f81b602082015290565b6000602083511015620001e357620001db836200059a565b905062000211565b82620001fa83620005dd60201b62001ff31760201c565b81516200020b926020019062000a0d565b5060ff90505b92915050565b60065460408051918252602082018390527fc565b045403dc03c2eea82b81a0465edad9e2e7fc4d97e11421c209da93d7a93910160405180910390a1600655565b60008111620002be5760405162461bcd60e51b815260206004820152602760248201527f476f7665726e6f7253657474696e67733a20766f74696e6720706572696f6420604482015266746f6f206c6f7760c81b60648201526084015b60405180910390fd5b60075460408051918252602082018390527f7e3f7f0708a84de9203036abaa450dccc85ad5ff52f78c170f3edb55cf5e8828910160405180910390a1600755565b60085460408051918252602082018390527fccb45da8d5717e6c4544694297c4ba5cf151d455c9bb0ed4fc7a38411bc05461910160405180910390a1600855565b6064811115620003c55760405162461bcd60e51b815260206004820152604360248201527f476f7665726e6f72566f74657351756f72756d4672616374696f6e3a2071756f60448201527f72756d4e756d657261746f72206f7665722071756f72756d44656e6f6d696e616064820152623a37b960e91b608482015260a401620002b5565b6000620003d1620005e0565b90508015801590620003e35750600b54155b156200045e57600b6000016040518060400160405280600063ffffffff1681526020016200041c846200061a60201b62001ff61760201c565b6001600160e01b0390811690915282546001810184556000938452602093849020835194909301519091166401000000000263ffffffff909316929092179101555b620004b6620004896200047062000689565b65ffffffffffff166200071b60201b620020631760201c565b6200049f846200061a60201b62001ff61760201c565b600b6200078260201b620020c8179092919060201c565b505060408051828152602081018490527f0553476bf02ef2726e8ce5ced78d63e26e602e4a2257b1f559418e24b4633997910160405180910390a15050565b6000828152600c602090815260408083206001600160a01b038516845290915290205460ff1662000596576000828152600c602090815260408083206001600160a01b03851684529091529020805460ff19166001179055620005553390565b6001600160a01b0316816001600160a01b0316837f2f8788117e7eff1d82e926ec794901d17c78024a50270940304540a733656f0d60405160405180910390a45b5050565b600080829050601f81511115620005c8578260405163305a27a960e01b8152600401620002b5919062000ad4565b8051620005d58262000b2c565b179392505050565b90565b600b5460009015620006115762000603600b6200079f60201b620020e31760201c565b6001600160e01b0316905090565b600a545b905090565b60006001600160e01b03821115620006855760405162461bcd60e51b815260206004820152602760248201527f53616665436173743a2076616c756520646f65736e27742066697420696e20326044820152663234206269747360c81b6064820152608401620002b5565b5090565b6000610160516001600160a01b03166391ddadf46040518163ffffffff1660e01b815260040160206040518083038186803b158015620006c857600080fd5b505afa925050508015620006fb575060408051601f3d908101601f19168201909252620006f89181019062000b54565b60015b62000716576200061543620007ed60201b6200212a1760201c565b919050565b600063ffffffff821115620006855760405162461bcd60e51b815260206004820152602660248201527f53616665436173743a2076616c756520646f65736e27742066697420696e203360448201526532206269747360d01b6064820152608401620002b5565b6000806200079285858562000856565b915091505b935093915050565b80546000908015620007e357620007cb83620007bd60018462000b7e565b600091825260209091200190565b5464010000000090046001600160e01b0316620007e6565b60005b9392505050565b600065ffffffffffff821115620006855760405162461bcd60e51b815260206004820152602660248201527f53616665436173743a2076616c756520646f65736e27742066697420696e203460448201526538206269747360d01b6064820152608401620002b5565b825460009081908015620009b25760006200087887620007bd60018562000b7e565b60408051808201909152905463ffffffff8082168084526401000000009092046001600160e01b031660208401529192509087161015620008fc5760405162461bcd60e51b815260206004820152601b60248201527f436865636b706f696e743a2064656372656173696e67206b65797300000000006044820152606401620002b5565b8563ffffffff16816000015163ffffffff1614156200095157846200092888620007bd60018662000b7e565b80546001600160e01b03929092166401000000000263ffffffff909216919091179055620009a1565b6040805180820190915263ffffffff80881682526001600160e01b0380881660208085019182528b54600181018d5560008d81529190912094519151909216640100000000029216919091179101555b602001519250839150620007979050565b50506040805180820190915263ffffffff80851682526001600160e01b0380851660208085019182528854600181018a5560008a81529182209551925190931664010000000002919093161792019190915590508162000797565b82805462000a1b9062000ba4565b90600052602060002090601f01602090048101928262000a3f576000855562000a8a565b82601f1062000a5a57805160ff191683800117855562000a8a565b8280016001018555821562000a8a579182015b8281111562000a8a57825182559160200191906001019062000a6d565b50620006859291505b8082111562000685576000815560010162000a93565b60006020828403121562000abc57600080fd5b81516001600160a01b0381168114620007e657600080fd5b600060208083528351808285015260005b8181101562000b035785810183015185820160400152820162000ae5565b8181111562000b16576000604083870101525b50601f01601f1916929092016040019392505050565b8051602080830151919081101562000b4e576000198160200360031b1b821691505b50919050565b60006020828403121562000b6757600080fd5b815165ffffffffffff81168114620007e657600080fd5b60008282101562000b9f57634e487b7160e01b600052601160045260246000fd5b500390565b600181811c9082168062000bb957607f821691505b6020821081141562000b4e57634e487b7160e01b600052602260045260246000fd5b60805160a05160c05160e05161010051610120516101405161016051614aaf62000c5d60003960008181610cbd0152818161144d01528181611c3d01528181612b6c0152612d0601526000611bbe01526000611b94015260006130f6015260006130ce01526000613029015260006130530152600061307d0152614aaf6000f3fe60806040526004361061037a5760003560e01c806360c4247f116101d1578063a87430ba11610102578063dd4e2ba5116100a0578063ece40cc11161006f578063ece40cc114610c3f578063f23a6e6114610c5f578063f8ce560a14610c8b578063fc0c546a14610cab57600080fd5b8063dd4e2ba514610b85578063deaaa7cc14610bcb578063ea0217cf14610bff578063eb9019d414610c1f57600080fd5b8063c01f9e37116100dc578063c01f9e3714610af9578063c28bc2fa14610b32578063c59057e414610b45578063d547741f14610b6557600080fd5b8063a87430ba14610a89578063b58131b014610ab8578063bc197c8114610acd57600080fd5b806391d148541161016f5780639a802a6d116101495780639a802a6d14610a1f578063a217fddf14610a3f578063a71e9a9c14610a54578063a7713a7014610a7457600080fd5b806391d14854146109bf57806391ddadf4146109df57806397c3d33414610a0b57600080fd5b8063797669c9116101ab578063797669c9146109235780637b3c71d3146109575780637d5e81e21461097757806384b0196e1461099757600080fd5b806360c4247f146108b357806370b0f660146108d35780637586353b146108f357600080fd5b80632fe3e261116102ab5780634385963211610249578063544ffc9c11610223578063544ffc9c146107f457806354fd4d501461084957806356781388146108735780635f398a141461089357600080fd5b80634385963214610775578063452115d6146107bf5780634bf5d7e9146107df57600080fd5b80633bccf4fd116102855780633bccf4fd1461067e5780633e4f49e61461069e5780633ef4cc8b146106cb57806340dd07b91461072757600080fd5b80632fe3e2611461061557806336568abe146106495780633932abb11461066957600080fd5b8063143489d0116103185780632656227d116102f25780632656227d1461057c57806328bdcde81461058f5780632d63f693146105bf5780632f2ff15d146105f557600080fd5b8063143489d0146104b3578063150b7a0214610508578063248a9ca31461054c57600080fd5b80630342018111610354578063034201811461041d57806306f3f9e61461043d57806306fdde031461045d578063131191611461047f57600080fd5b806301ffc9a71461039157806302a251a3146103c6578063033e6f4d146103e957600080fd5b3661038c57005b60405180910390fd5b005b600080fd5b34801561039d57600080fd5b506103b16103ac366004613a43565b610cdf565b60405190151581526020015b60405180910390f35b3480156103d257600080fd5b506103db610cf0565b6040519081526020016103bd565b3480156103f557600080fd5b506103db7f53b89ac75efe2c37162cd6795f5bf8b9c749f1d0387576893c1d2d0c23a326f381565b34801561042957600080fd5b506103db610438366004613b91565b610d00565b34801561044957600080fd5b5061038a610458366004613c37565b610df8565b34801561046957600080fd5b50610472610e3f565b6040516103bd9190613cac565b34801561048b57600080fd5b506103db7f14823911f2da1b49f045a0929a60b8c1f2a7fc8c06c7284ca3e8ab4e193a08c881565b3480156104bf57600080fd5b506104f06104ce366004613c37565b600090815260036020526040902054600160401b90046001600160a01b031690565b6040516001600160a01b0390911681526020016103bd565b34801561051457600080fd5b50610533610523366004613cd6565b630a85bd0160e11b949350505050565b6040516001600160e01b031990911681526020016103bd565b34801561055857600080fd5b506103db610567366004613c37565b6000908152600c602052604090206001015490565b6103db61058a366004613ea7565b610ed1565b34801561059b57600080fd5b506105af6105aa366004613c37565b610ffd565b6040516103bd9493929190613f36565b3480156105cb57600080fd5b506103db6105da366004613c37565b6000908152600360205260409020546001600160401b031690565b34801561060157600080fd5b5061038a610610366004613f6f565b6110d2565b34801561062157600080fd5b506103db7fb3b3f3b703cd84ce352197dcff232b1b5d3cfb2025ce47cf04742d0651f1af8881565b34801561065557600080fd5b5061038a610664366004613f6f565b6110fc565b34801561067557600080fd5b506103db61117a565b34801561068a57600080fd5b506103db610699366004613f9b565b611185565b3480156106aa57600080fd5b506106be6106b9366004613c37565b6111fb565b6040516103bd9190613fff565b3480156106d757600080fd5b506107196106e6366004614019565b601260209081526000928352604080842090915290825290206001015460ff81169061010090046001600160a01b031682565b6040516103bd92919061404b565b34801561073357600080fd5b50610719610742366004614019565b601360209081526000928352604080842090915290825290206001015460ff81169061010090046001600160a01b031682565b34801561078157600080fd5b506103b1610790366004613f6f565b60008281526009602090815260408083206001600160a01b038516845260030190915290205460ff1692915050565b3480156107cb57600080fd5b506103db6107da366004613ea7565b611338565b3480156107eb57600080fd5b50610472611449565b34801561080057600080fd5b5061082e61080f366004613c37565b6000908152600960205260409020805460018201546002909201549092565b604080519384526020840192909252908201526060016103bd565b34801561085557600080fd5b506040805180820190915260018152603160f81b6020820152610472565b34801561087f57600080fd5b506103db61088e366004614070565b61151a565b34801561089f57600080fd5b506103db6108ae366004614093565b611543565b3480156108bf57600080fd5b506103db6108ce366004613c37565b61158d565b3480156108df57600080fd5b5061038a6108ee366004613c37565b61163c565b3480156108ff57600080fd5b5061091361090e366004613c37565b611680565b6040516103bd9493929190614116565b34801561092f57600080fd5b506103db7f71f3d55856e4058ed06ee057d79ada615f65cdf5f9ee88181b914225088f834f81565b34801561096357600080fd5b506103db61097236600461415c565b6117bc565b34801561098357600080fd5b506103db6109923660046141b5565b611804565b3480156109a357600080fd5b506109ac611b86565b6040516103bd97969594939291906142a4565b3480156109cb57600080fd5b506103b16109da366004613f6f565b611c0e565b3480156109eb57600080fd5b506109f4611c39565b60405165ffffffffffff90911681526020016103bd565b348015610a1757600080fd5b5060646103db565b348015610a2b57600080fd5b506103db610a3a366004614306565b611cd1565b348015610a4b57600080fd5b506103db600081565b348015610a6057600080fd5b506105af610a6f366004613c37565b611ce8565b348015610a8057600080fd5b506103db611cf8565b348015610a9557600080fd5b50610aa9610aa436600461435c565b611d22565b6040516103bd93929190614377565b348015610ac457600080fd5b506103db611dd2565b348015610ad957600080fd5b50610533610ae83660046143a1565b63bc197c8160e01b95945050505050565b348015610b0557600080fd5b506103db610b14366004613c37565b6000908152600360205260409020600101546001600160401b031690565b61038a610b40366004614430565b611ddd565b348015610b5157600080fd5b506103db610b60366004613ea7565b611ea9565b348015610b7157600080fd5b5061038a610b80366004613f6f565b611ee3565b348015610b9157600080fd5b506040805180820190915260208082527f737570706f72743d627261766f2671756f72756d3d666f722c6162737461696e90820152610472565b348015610bd757600080fd5b506103db7f150214d74d59b7d1e90c73fc22ef3d991dd0a76b046543d4d80ab92d2a50328f81565b348015610c0b57600080fd5b5061038a610c1a366004613c37565b611f08565b348015610c2b57600080fd5b506103db610c3a366004614471565b611f4c565b348015610c4b57600080fd5b5061038a610c5a366004613c37565b611f6d565b348015610c6b57600080fd5b50610533610c7a36600461449b565b63f23a6e6160e01b95945050505050565b348015610c9757600080fd5b506103db610ca6366004613c37565b611fb1565b348015610cb757600080fd5b506104f07f000000000000000000000000000000000000000000000000000000000000000081565b6000610cea82612191565b92915050565b6000610cfb60075490565b905090565b600080610da4610d9c7fb3b3f3b703cd84ce352197dcff232b1b5d3cfb2025ce47cf04742d0651f1af888c8c8c8c604051610d3c9291906144ff565b60405180910390208b80519060200120604051602001610d81959493929190948552602085019390935260ff9190911660408401526060830152608082015260a00190565b604051602081830303815290604052805190602001206121b6565b8686866121e3565b9050610dea8a828b8b8b8080601f0160208091040260200160405190810160405280939291908181526020018383808284376000920191909152508d9250612201915050565b9a9950505050505050505050565b333014610e175760405162461bcd60e51b81526004016103819061450f565b610e33565b80610e276004612353565b14610e3157610e1c565b505b610e3c816123d2565b50565b606060028054610e4e90614546565b80601f0160208091040260200160405190810160405280929190818152602001828054610e7a90614546565b8015610ec75780601f10610e9c57610100808354040283529160200191610ec7565b820191906000526020600020905b815481529060010190602001808311610eaa57829003601f168201915b5050505050905090565b600080610ee086868686611ea9565b90506000610eed826111fb565b90506004816007811115610f0357610f03613fe9565b1480610f2057506005816007811115610f1e57610f1e613fe9565b145b610f765760405162461bcd60e51b815260206004820152602160248201527f476f7665726e6f723a2070726f706f73616c206e6f74207375636365737366756044820152601b60fa1b6064820152608401610381565b60008281526003602052604090819020600201805460ff19166001179055517f712ae1383f79ac853f8d882153778e0260ef8f03b504e2866e0593e04d2b291f90610fc49084815260200190565b60405180910390a1610fd98288888888612540565b610fe682888888886125ce565b610ff38288888888612540565b5095945050505050565b600d818154811061100d57600080fd5b906000526020600020906004020160009150905080600001805461103090614546565b80601f016020809104026020016040519081016040528092919081815260200182805461105c90614546565b80156110a95780601f1061107e576101008083540402835291602001916110a9565b820191906000526020600020905b81548152906001019060200180831161108c57829003601f168201915b5050505060018301546002840154600390940154929390926001600160a01b0391821692501684565b6000828152600c60205260409020600101546110ed816126c4565b6110f783836126ce565b505050565b6001600160a01b038116331461116c5760405162461bcd60e51b815260206004820152602f60248201527f416363657373436f6e74726f6c3a2063616e206f6e6c792072656e6f756e636560448201526e103937b632b9903337b91039b2b63360891b6064820152608401610381565b6111768282612754565b5050565b6000610cfb60065490565b604080517f150214d74d59b7d1e90c73fc22ef3d991dd0a76b046543d4d80ab92d2a50328f602082015290810186905260ff8516606082015260009081906111d390610d9c90608001610d81565b90506111f0878288604051806020016040528060008152506127bb565b979650505050505050565b6000818152600360205260408120600281015460ff161561121f5750600792915050565b6002810154610100900460ff161561123a5750600292915050565b6000838152600360205260409020546001600160401b03168061129f5760405162461bcd60e51b815260206004820152601d60248201527f476f7665726e6f723a20756e6b6e6f776e2070726f706f73616c2069640000006044820152606401610381565b60006112a9611c39565b65ffffffffffff1690508082106112c557506000949350505050565b6000858152600360205260409020600101546001600160401b03168181106112f35750600195945050505050565b6112fc866127e7565b801561131b575060008681526009602052604090208054600190910154115b1561132c5750600495945050505050565b50600395945050505050565b60008061134786868686611ea9565b90506000611354826111fb565b600781111561136557611365613fe9565b146113b25760405162461bcd60e51b815260206004820152601c60248201527f476f7665726e6f723a20746f6f206c61746520746f2063616e63656c000000006044820152606401610381565b600081815260036020526040902054600160401b90046001600160a01b0316336001600160a01b0316146114335760405162461bcd60e51b815260206004820152602260248201527f476f7665726e6f723a206f6e6c792070726f706f7365722063616e2063616e63604482015261195b60f21b6064820152608401610381565b61143f86868686612833565b9695505050505050565b60607f00000000000000000000000000000000000000000000000000000000000000006001600160a01b0316634bf5d7e96040518163ffffffff1660e01b815260040160006040518083038186803b1580156114a457600080fd5b505afa9250505080156114d957506040513d6000823e601f3d908101601f191682016040526114d69190810190614581565b60015b611515575060408051808201909152601d81527f6d6f64653d626c6f636b6e756d6265722666726f6d3d64656661756c74000000602082015290565b919050565b60008033905061153b848285604051806020016040528060008152506127bb565b949350505050565b6000803390506111f087828888888080601f0160208091040260200160405190810160405280939291908181526020018383808284376000920191909152508a9250612201915050565b600b54600090806115a2575050600a54919050565b6000600b6115b1600184614604565b815481106115c1576115c161461b565b60009182526020918290206040805180820190915291015463ffffffff8116808352600160201b9091046001600160e01b0316928201929092529150841061161757602001516001600160e01b03169392505050565b61162b61162385612063565b600b90612951565b6001600160e01b0316949350505050565b33301461165b5760405162461bcd60e51b81526004016103819061450f565b611677565b8061166b6004612353565b1461167557611660565b505b610e3c816129f6565b60116020526000908152604090208054819061169b90614546565b80601f01602080910402602001604051908101604052809291908181526020018280546116c790614546565b80156117145780601f106116e957610100808354040283529160200191611714565b820191906000526020600020905b8154815290600101906020018083116116f757829003601f168201915b50505050509080600101805461172990614546565b80601f016020809104026020016040519081016040528092919081815260200182805461175590614546565b80156117a25780601f10611777576101008083540402835291602001916117a2565b820191906000526020600020905b81548152906001019060200180831161178557829003601f168201915b50505050600383015460049093015491929160ff16905084565b60008033905061143f86828787878080601f0160208091040260200160405190810160405280939291908181526020018383808284376000920191909152506127bb92505050565b60003381611810611c39565b65ffffffffffff169050611822611dd2565b61183183610c3a600185614604565b10156118995760405162461bcd60e51b815260206004820152603160248201527f476f7665726e6f723a2070726f706f73657220766f7465732062656c6f7720706044820152701c9bdc1bdcd85b081d1a1c995cda1bdb19607a1b6064820152608401610381565b60006118ae8888888880519060200120611ea9565b905086518851146118d15760405162461bcd60e51b815260040161038190614631565b85518851146118f25760405162461bcd60e51b815260040161038190614631565b60008851116119435760405162461bcd60e51b815260206004820152601860248201527f476f7665726e6f723a20656d7074792070726f706f73616c00000000000000006044820152606401610381565b6000818152600360205260409020546001600160401b0316156119b25760405162461bcd60e51b815260206004820152602160248201527f476f7665726e6f723a2070726f706f73616c20616c72656164792065786973746044820152607360f81b6064820152608401610381565b60006119bc61117a565b6119c69084614672565b905060006119d2610cf0565b6119dc9083614672565b90506040518060e001604052806119f284612a37565b6001600160401b031681526001600160a01b038716602082015260006040820152606001611a1f83612a37565b6001600160401b039081168252600060208084018290526040808501839052606094850183905288835260038252918290208551815492870151878501519186166001600160e01b031990941693909317600160401b6001600160a01b039094168402176001600160e01b0316600160e01b60e09290921c91909102178155938501516080860151908416921c0217600183015560a08301516002909201805460c09094015161ffff1990941692151561ff00191692909217610100931515939093029290921790558a517f7d84a6263ae0d98d3329bd7b46bb4e8d6f98cd35a7adb45c274c8b7fd5ebd5e091859188918e918e91811115611b2357611b23613ac6565b604051908082528060200260200182016040528015611b5657816020015b6060815260200190600190039081611b415790505b508d88888f604051611b709998979695949392919061471b565b60405180910390a1509098975050505050505050565b600060608082808083611bb97f000000000000000000000000000000000000000000000000000000000000000083612a9f565b611be47f00000000000000000000000000000000000000000000000000000000000000006001612a9f565b60408051600080825260208201909252600f60f81b9b939a50919850469750309650945092509050565b6000918252600c602090815260408084206001600160a01b0393909316845291905290205460ff1690565b60007f00000000000000000000000000000000000000000000000000000000000000006001600160a01b03166391ddadf46040518163ffffffff1660e01b815260040160206040518083038186803b158015611c9457600080fd5b505afa925050508015611cc4575060408051601f3d908101601f19168201909252611cc1918101906147f2565b60015b61151557610cfb4361212a565b6000611cde848484612b43565b90505b9392505050565b600e818154811061100d57600080fd5b600b5460009015611d1b57611d0d600b6120e3565b6001600160e01b0316905090565b50600a5490565b600f60205260009081526040902080548190611d3d90614546565b80601f0160208091040260200160405190810160405280929190818152602001828054611d6990614546565b8015611db65780601f10611d8b57610100808354040283529160200191611db6565b820191906000526020600020905b815481529060010190602001808311611d9957829003601f168201915b5050506001909301549192505060ff8082169161010090041683565b6000610cfb60085490565b333014611dfc5760405162461bcd60e51b81526004016103819061450f565b611e18565b80611e0c6004612353565b14611e1657611e01565b505b600080856001600160a01b0316858585604051611e369291906144ff565b60006040518083038185875af1925050503d8060008114611e73576040519150601f19603f3d011682016040523d82523d6000602084013e611e78565b606091505b5091509150611ea08282604051806060016040528060288152602001614a2b60289139612be8565b50505050505050565b600084848484604051602001611ec2949392919061481a565b60408051601f19818403018152919052805160209091012095945050505050565b6000828152600c6020526040902060010154611efe816126c4565b6110f78383612754565b333014611f275760405162461bcd60e51b81526004016103819061450f565b611f43565b80611f376004612353565b14611f4157611f2c565b505b610e3c81612c01565b6000611ce18383611f6860408051602081019091526000815290565b612b43565b333014611f8c5760405162461bcd60e51b81526004016103819061450f565b611fa8565b80611f9c6004612353565b14611fa657611f91565b505b610e3c81612ca2565b6000610cea82612ce3565b6000602083511015611fd857611fd183612d9c565b9050610cea565b82828151611fe992602001906139b3565b5060ff9050610cea565b90565b60006001600160e01b0382111561205f5760405162461bcd60e51b815260206004820152602760248201527f53616665436173743a2076616c756520646f65736e27742066697420696e20326044820152663234206269747360c81b6064820152608401610381565b5090565b600063ffffffff82111561205f5760405162461bcd60e51b815260206004820152602660248201527f53616665436173743a2076616c756520646f65736e27742066697420696e203360448201526532206269747360d01b6064820152608401610381565b6000806120d6858585612dda565b915091505b935093915050565b805460009080156121215761210b836120fd600184614604565b600091825260209091200190565b54600160201b90046001600160e01b0316611ce1565b60009392505050565b600065ffffffffffff82111561205f5760405162461bcd60e51b815260206004820152602660248201527f53616665436173743a2076616c756520646f65736e27742066697420696e203460448201526538206269747360d01b6064820152608401610381565b60006001600160e01b03198216637965db0b60e01b1480610cea5750610cea82612f80565b6000610cea6121c361301c565b8360405161190160f01b8152600281019290925260228201526042902090565b60008060006121f487878787613147565b91509150610ff38161320b565b6000858152600360205260408120600161221a886111fb565b600781111561222b5761222b613fe9565b146122845760405162461bcd60e51b815260206004820152602360248201527f476f7665726e6f723a20766f7465206e6f742063757272656e746c792061637460448201526269766560e81b6064820152608401610381565b805460009061229e9088906001600160401b031686612b43565b90506122ad8888888488613359565b83516122ff57866001600160a01b03167fb8e138887d0aa13bab447e82de9d5c1777041ecd21ca36ba824ff1e6c07ddda4898884896040516122f29493929190614865565b60405180910390a26111f0565b866001600160a01b03167fe2babfbac5889a709b63bb7f598b324e08bc5a4fb9ec647fb3cbc9ec07eb8712898884898960405161234095949392919061488d565b60405180910390a2979650505050505050565b600061236e8254600f81810b600160801b909204900b131590565b1561238c57604051631ed9509560e11b815260040160405180910390fd5b508054600f0b6000818152600180840160205260408220805492905583546fffffffffffffffffffffffffffffffff191692016001600160801b03169190911790915590565b60648111156124555760405162461bcd60e51b815260206004820152604360248201527f476f7665726e6f72566f74657351756f72756d4672616374696f6e3a2071756f60448201527f72756d4e756d657261746f72206f7665722071756f72756d44656e6f6d696e616064820152623a37b960e91b608482015260a401610381565b600061245f611cf8565b905080158015906124705750600b54155b156124d4576040805180820190915260008152600b906020810161249384611ff6565b6001600160e01b039081169091528254600181018455600093845260209384902083519490930151909116600160201b0263ffffffff909316929092179101555b6125016124ef6124e2611c39565b65ffffffffffff16612063565b6124f884611ff6565b600b91906120c8565b505060408051828152602081018490527f0553476bf02ef2726e8ce5ced78d63e26e602e4a2257b1f559418e24b4633997910160405180910390a15050565b6125c7565b84518110156125c557306001600160a01b031685828151811061256a5761256a61461b565b60200260200101516001600160a01b031614156125b5576125b58382815181106125965761259661461b565b60200260200101518051906020012060046134d890919063ffffffff16565b6125be816148d3565b9050612545565b505b5050505050565b6000604051806060016040528060278152602001614a5360279139905060005b8551811015611ea05760008087838151811061260c5761260c61461b565b60200260200101516001600160a01b031687848151811061262f5761262f61461b565b60200260200101518785815181106126495761264961461b565b602002602001015160405161265e91906148ee565b60006040518083038185875af1925050503d806000811461269b576040519150601f19603f3d011682016040523d82523d6000602084013e6126a0565b606091505b50915091506126b0828286612be8565b505050806126bd906148d3565b90506125ee565b610e3c8133613514565b6126d88282611c0e565b611176576000828152600c602090815260408083206001600160a01b03851684529091529020805460ff191660011790556127103390565b6001600160a01b0316816001600160a01b0316837f2f8788117e7eff1d82e926ec794901d17c78024a50270940304540a733656f0d60405160405180910390a45050565b61275e8282611c0e565b15611176576000828152600c602090815260408083206001600160a01b0385168085529252808320805460ff1916905551339285917ff6391f5c32d9c69d2a47ea670b442974b53935d1edc7fd64eb21e047a839171b9190a45050565b60006127de858585856127d960408051602081019091526000815290565b612201565b95945050505050565b6000818152600960205260408120600281015460018201546128099190614672565b60008481526003602052604090205461282a906001600160401b0316611fb1565b11159392505050565b60008061284286868686611ea9565b9050600061284f826111fb565b9050600281600781111561286557612865613fe9565b141580156128855750600681600781111561288257612882613fe9565b14155b80156128a3575060078160078111156128a0576128a0613fe9565b14155b6128ef5760405162461bcd60e51b815260206004820152601d60248201527f476f7665726e6f723a2070726f706f73616c206e6f74206163746976650000006044820152606401610381565b60008281526003602052604090819020600201805461ff001916610100179055517f789cf55be980739dad1d0699b93b58e806b51c9d96619bfa8fe0a28abaa7b30c9061293f9084815260200190565b60405180910390a15095945050505050565b8154600090818160058111156129ae57600061296c8461356d565b6129769085614604565b60008881526020902090915081015463ffffffff908116908716101561299e578091506129ac565b6129a9816001614672565b92505b505b60006129bc87878585613652565b905080156129e9576129d3876120fd600184614604565b54600160201b90046001600160e01b03166111f0565b6000979650505050505050565b60065460408051918252602082018390527fc565b045403dc03c2eea82b81a0465edad9e2e7fc4d97e11421c209da93d7a93910160405180910390a1600655565b60006001600160401b0382111561205f5760405162461bcd60e51b815260206004820152602660248201527f53616665436173743a2076616c756520646f65736e27742066697420696e203660448201526534206269747360d01b6064820152608401610381565b606060ff8314612ab257611fd1836136b0565b818054612abe90614546565b80601f0160208091040260200160405190810160405280929190818152602001828054612aea90614546565b8015612b375780601f10612b0c57610100808354040283529160200191612b37565b820191906000526020600020905b815481529060010190602001808311612b1a57829003601f168201915b50505050509050610cea565b604051630748d63560e31b81526001600160a01b038481166004830152602482018490526000917f000000000000000000000000000000000000000000000000000000000000000090911690633a46b1a89060440160206040518083038186803b158015612bb057600080fd5b505afa158015612bc4573d6000803e3d6000fd5b505050506040513d601f19601f82011682018060405250810190611cde919061490a565b60608315612bf7575081611ce1565b611ce183836136ef565b60008111612c615760405162461bcd60e51b815260206004820152602760248201527f476f7665726e6f7253657474696e67733a20766f74696e6720706572696f6420604482015266746f6f206c6f7760c81b6064820152608401610381565b60075460408051918252602082018390527f7e3f7f0708a84de9203036abaa450dccc85ad5ff52f78c170f3edb55cf5e8828910160405180910390a1600755565b60085460408051918252602082018390527fccb45da8d5717e6c4544694297c4ba5cf151d455c9bb0ed4fc7a38411bc05461910160405180910390a1600855565b60006064612cf08361158d565b604051632394e7a360e21b8152600481018590527f00000000000000000000000000000000000000000000000000000000000000006001600160a01b031690638e539e8c9060240160206040518083038186803b158015612d5057600080fd5b505afa158015612d64573d6000803e3d6000fd5b505050506040513d601f19601f82011682018060405250810190612d88919061490a565b612d929190614923565b610cea9190614958565b600080829050601f81511115612dc7578260405163305a27a960e01b81526004016103819190613cac565b8051612dd28261497a565b179392505050565b825460009081908015612f27576000612df8876120fd600185614604565b60408051808201909152905463ffffffff808216808452600160201b9092046001600160e01b031660208401529192509087161015612e795760405162461bcd60e51b815260206004820152601b60248201527f436865636b706f696e743a2064656372656173696e67206b65797300000000006044820152606401610381565b8563ffffffff16816000015163ffffffff161415612ec85784612ea1886120fd600186614604565b80546001600160e01b0392909216600160201b0263ffffffff909216919091179055612f17565b6040805180820190915263ffffffff80881682526001600160e01b0380881660208085019182528b54600181018d5560008d81529190912094519151909216600160201b029216919091179101555b6020015192508391506120db9050565b50506040805180820190915263ffffffff80851682526001600160e01b0380851660208085019182528854600181018a5560008a815291822095519251909316600160201b0291909316179201919091559050816120db565b600063288ace0360e11b6318df743f60e31b63bf26d89760e01b6379dd796f60e01b6001600160e01b03198616821480612fc657506001600160e01b0319868116908216145b80612fdd57506001600160e01b0319868116908516145b80612ff857506001600160e01b03198616630271189760e51b145b8061143f57506301ffc9a760e01b6001600160e01b03198716149695505050505050565b6000306001600160a01b037f00000000000000000000000000000000000000000000000000000000000000001614801561307557507f000000000000000000000000000000000000000000000000000000000000000046145b1561309f57507f000000000000000000000000000000000000000000000000000000000000000090565b610cfb604080517f8b73c3c69bb8fe3d512ecc4cf759cc79239f7b179b0ffacaa9a75d522b39400f60208201527f0000000000000000000000000000000000000000000000000000000000000000918101919091527f000000000000000000000000000000000000000000000000000000000000000060608201524660808201523060a082015260009060c00160405160208183030381529060405280519060200120905090565b6000807f7fffffffffffffffffffffffffffffff5d576e7357a4501ddfe92f46681b20a083111561317e5750600090506003613202565b6040805160008082526020820180845289905260ff881692820192909252606081018690526080810185905260019060a0016020604051602081039080840390855afa1580156131d2573d6000803e3d6000fd5b5050604051601f1901519150506001600160a01b0381166131fb57600060019250925050613202565b9150600090505b94509492505050565b600081600481111561321f5761321f613fe9565b14156132285750565b600181600481111561323c5761323c613fe9565b141561328a5760405162461bcd60e51b815260206004820152601860248201527f45434453413a20696e76616c6964207369676e617475726500000000000000006044820152606401610381565b600281600481111561329e5761329e613fe9565b14156132ec5760405162461bcd60e51b815260206004820152601f60248201527f45434453413a20696e76616c6964207369676e6174757265206c656e677468006044820152606401610381565b600381600481111561330057613300613fe9565b1415610e3c5760405162461bcd60e51b815260206004820152602260248201527f45434453413a20696e76616c6964207369676e6174757265202773272076616c604482015261756560f01b6064820152608401610381565b60008581526009602090815260408083206001600160a01b0388168452600381019092529091205460ff16156133e15760405162461bcd60e51b815260206004820152602760248201527f476f7665726e6f72566f74696e6753696d706c653a20766f746520616c726561604482015266191e4818d85cdd60ca1b6064820152608401610381565b6001600160a01b03851660009081526003820160205260408120805460ff1916600117905560ff168460ff16141561343257828160000160008282546134279190614672565b909155506125c59050565b60ff84166001141561345257828160010160008282546134279190614672565b60ff84166002141561347257828160020160008282546134279190614672565b60405162461bcd60e51b815260206004820152603560248201527f476f7665726e6f72566f74696e6753696d706c653a20696e76616c69642076616044820152746c756520666f7220656e756d20566f74655479706560581b6064820152608401610381565b8154600160801b90819004600f0b6000818152600180860160205260409091209390935583546001600160801b03908116939091011602179055565b61351e8282611c0e565b6111765761352b81613719565b61353683602061372b565b60405160200161354792919061499e565b60408051601f198184030181529082905262461bcd60e51b825261038191600401613cac565b60008161357c57506000919050565b60006001613589846138c6565b901c6001901b905060018184816135a2576135a2614942565b048201901c905060018184816135ba576135ba614942565b048201901c905060018184816135d2576135d2614942565b048201901c905060018184816135ea576135ea614942565b048201901c9050600181848161360257613602614942565b048201901c9050600181848161361a5761361a614942565b048201901c9050600181848161363257613632614942565b048201901c9050611ce18182858161364c5761364c614942565b0461395a565b60005b818310156136a85760006136698484613970565b60008781526020902090915063ffffffff86169082015463ffffffff161115613694578092506136a2565b61369f816001614672565b93505b50613655565b509392505050565b606060006136bd8361398b565b604080516020808252818301909252919250600091906020820181803683375050509182525060208101929092525090565b8151156136ff5781518083602001fd5b8060405162461bcd60e51b81526004016103819190613cac565b6060610cea6001600160a01b03831660145b6060600061373a836002614923565b613745906002614672565b6001600160401b0381111561375c5761375c613ac6565b6040519080825280601f01601f191660200182016040528015613786576020820181803683370190505b509050600360fc1b816000815181106137a1576137a161461b565b60200101906001600160f81b031916908160001a905350600f60fb1b816001815181106137d0576137d061461b565b60200101906001600160f81b031916908160001a90535060006137f4846002614923565b6137ff906001614672565b90505b6001811115613877576f181899199a1a9b1b9c1cb0b131b232b360811b85600f16601081106138335761383361461b565b1a60f81b8282815181106138495761384961461b565b60200101906001600160f81b031916908160001a90535060049490941c9361387081614a13565b9050613802565b508315611ce15760405162461bcd60e51b815260206004820181905260248201527f537472696e67733a20686578206c656e67746820696e73756666696369656e746044820152606401610381565b600080608083901c156138db57608092831c92015b604083901c156138ed57604092831c92015b602083901c156138ff57602092831c92015b601083901c1561391157601092831c92015b600883901c1561392357600892831c92015b600483901c1561393557600492831c92015b600283901c1561394757600292831c92015b600183901c15610cea5760010192915050565b60008183106139695781611ce1565b5090919050565b600061397f6002848418614958565b611ce190848416614672565b600060ff8216601f811115610cea57604051632cd44ac360e21b815260040160405180910390fd5b8280546139bf90614546565b90600052602060002090601f0160209004810192826139e15760008555613a27565b82601f106139fa57805160ff1916838001178555613a27565b82800160010185558215613a27579182015b82811115613a27578251825591602001919060010190613a0c565b5061205f9291505b8082111561205f5760008155600101613a2f565b600060208284031215613a5557600080fd5b81356001600160e01b031981168114611ce157600080fd5b803560ff8116811461151557600080fd5b60008083601f840112613a9057600080fd5b5081356001600160401b03811115613aa757600080fd5b602083019150836020828501011115613abf57600080fd5b9250929050565b634e487b7160e01b600052604160045260246000fd5b604051601f8201601f191681016001600160401b0381118282101715613b0457613b04613ac6565b604052919050565b60006001600160401b03821115613b2557613b25613ac6565b50601f01601f191660200190565b6000613b46613b4184613b0c565b613adc565b9050828152838383011115613b5a57600080fd5b828260208301376000602084830101529392505050565b600082601f830112613b8257600080fd5b611ce183833560208501613b33565b60008060008060008060008060e0898b031215613bad57600080fd5b88359750613bbd60208a01613a6d565b965060408901356001600160401b0380821115613bd957600080fd5b613be58c838d01613a7e565b909850965060608b0135915080821115613bfe57600080fd5b50613c0b8b828c01613b71565b945050613c1a60808a01613a6d565b925060a0890135915060c089013590509295985092959890939650565b600060208284031215613c4957600080fd5b5035919050565b60005b83811015613c6b578181015183820152602001613c53565b83811115613c7a576000848401525b50505050565b60008151808452613c98816020860160208601613c50565b601f01601f19169290920160200192915050565b602081526000611ce16020830184613c80565b80356001600160a01b038116811461151557600080fd5b60008060008060808587031215613cec57600080fd5b613cf585613cbf565b9350613d0360208601613cbf565b92506040850135915060608501356001600160401b03811115613d2557600080fd5b613d3187828801613b71565b91505092959194509250565b60006001600160401b03821115613d5657613d56613ac6565b5060051b60200190565b600082601f830112613d7157600080fd5b81356020613d81613b4183613d3d565b82815260059290921b84018101918181019086841115613da057600080fd5b8286015b84811015613dc257613db581613cbf565b8352918301918301613da4565b509695505050505050565b600082601f830112613dde57600080fd5b81356020613dee613b4183613d3d565b82815260059290921b84018101918181019086841115613e0d57600080fd5b8286015b84811015613dc25780358352918301918301613e11565b600082601f830112613e3957600080fd5b81356020613e49613b4183613d3d565b82815260059290921b84018101918181019086841115613e6857600080fd5b8286015b84811015613dc25780356001600160401b03811115613e8b5760008081fd5b613e998986838b0101613b71565b845250918301918301613e6c565b60008060008060808587031215613ebd57600080fd5b84356001600160401b0380821115613ed457600080fd5b613ee088838901613d60565b95506020870135915080821115613ef657600080fd5b613f0288838901613dcd565b94506040870135915080821115613f1857600080fd5b50613f2587828801613e28565b949793965093946060013593505050565b608081526000613f496080830187613c80565b6020830195909552506001600160a01b0392831660408201529116606090910152919050565b60008060408385031215613f8257600080fd5b82359150613f9260208401613cbf565b90509250929050565b600080600080600060a08688031215613fb357600080fd5b85359450613fc360208701613a6d565b9350613fd160408701613a6d565b94979396509394606081013594506080013592915050565b634e487b7160e01b600052602160045260246000fd5b602081016008831061401357614013613fe9565b91905290565b6000806040838503121561402c57600080fd5b50508035926020909101359150565b60048110610e3c57610e3c613fe9565b604081016140588461403b565b9281526001600160a01b039190911660209091015290565b6000806040838503121561408357600080fd5b82359150613f9260208401613a6d565b6000806000806000608086880312156140ab57600080fd5b853594506140bb60208701613a6d565b935060408601356001600160401b03808211156140d757600080fd5b6140e389838a01613a7e565b909550935060608801359150808211156140fc57600080fd5b5061410988828901613b71565b9150509295509295909350565b6080815260006141296080830187613c80565b828103602084015261413b8187613c80565b91505083604083015261414d8361403b565b82606083015295945050505050565b6000806000806060858703121561417257600080fd5b8435935061418260208601613a6d565b925060408501356001600160401b0381111561419d57600080fd5b6141a987828801613a7e565b95989497509550505050565b600080600080608085870312156141cb57600080fd5b84356001600160401b03808211156141e257600080fd5b6141ee88838901613d60565b9550602087013591508082111561420457600080fd5b61421088838901613dcd565b9450604087013591508082111561422657600080fd5b61423288838901613e28565b9350606087013591508082111561424857600080fd5b508501601f8101871361425a57600080fd5b613d3187823560208401613b33565b600081518084526020808501945080840160005b838110156142995781518752958201959082019060010161427d565b509495945050505050565b60ff60f81b8816815260e0602082015260006142c360e0830189613c80565b82810360408401526142d58189613c80565b606084018890526001600160a01b038716608085015260a0840186905283810360c08501529050610dea8185614269565b60008060006060848603121561431b57600080fd5b61432484613cbf565b92506020840135915060408401356001600160401b0381111561434657600080fd5b61435286828701613b71565b9150509250925092565b60006020828403121561436e57600080fd5b611ce182613cbf565b60608152600061438a6060830186613c80565b931515602083015250901515604090910152919050565b600080600080600060a086880312156143b957600080fd5b6143c286613cbf565b94506143d060208701613cbf565b935060408601356001600160401b03808211156143ec57600080fd5b6143f889838a01613dcd565b9450606088013591508082111561440e57600080fd5b61441a89838a01613dcd565b935060808801359150808211156140fc57600080fd5b6000806000806060858703121561444657600080fd5b61444f85613cbf565b93506020850135925060408501356001600160401b0381111561419d57600080fd5b6000806040838503121561448457600080fd5b61448d83613cbf565b946020939093013593505050565b600080600080600060a086880312156144b357600080fd5b6144bc86613cbf565b94506144ca60208701613cbf565b9350604086013592506060860135915060808601356001600160401b038111156144f357600080fd5b61410988828901613b71565b8183823760009101908152919050565b60208082526018908201527f476f7665726e6f723a206f6e6c79476f7665726e616e63650000000000000000604082015260600190565b600181811c9082168061455a57607f821691505b6020821081141561457b57634e487b7160e01b600052602260045260246000fd5b50919050565b60006020828403121561459357600080fd5b81516001600160401b038111156145a957600080fd5b8201601f810184136145ba57600080fd5b80516145c8613b4182613b0c565b8181528560208385010111156145dd57600080fd5b6127de826020830160208601613c50565b634e487b7160e01b600052601160045260246000fd5b600082821015614616576146166145ee565b500390565b634e487b7160e01b600052603260045260246000fd5b60208082526021908201527f476f7665726e6f723a20696e76616c69642070726f706f73616c206c656e67746040820152600d60fb1b606082015260800190565b60008219821115614685576146856145ee565b500190565b600081518084526020808501945080840160005b838110156142995781516001600160a01b03168752958201959082019060010161469e565b600082825180855260208086019550808260051b84010181860160005b8481101561470e57601f198684030189526146fc838351613c80565b988401989250908301906001016146e0565b5090979650505050505050565b60006101208b8352602060018060a01b038c16818501528160408501526147448285018c61468a565b91508382036060850152614758828b614269565b915083820360808501528189518084528284019150828160051b850101838c0160005b838110156147a957601f19878403018552614797838351613c80565b9486019492509085019060010161477b565b505086810360a08801526147bd818c6146c3565b9450505050508560c08401528460e08401528281036101008401526147e28185613c80565b9c9b505050505050505050505050565b60006020828403121561480457600080fd5b815165ffffffffffff81168114611ce157600080fd5b60808152600061482d608083018761468a565b828103602084015261483f8187614269565b9050828103604084015261485381866146c3565b91505082606083015295945050505050565b84815260ff8416602082015282604082015260806060820152600061143f6080830184613c80565b85815260ff8516602082015283604082015260a0606082015260006148b560a0830185613c80565b82810360808401526148c78185613c80565b98975050505050505050565b60006000198214156148e7576148e76145ee565b5060010190565b60008251614900818460208701613c50565b9190910192915050565b60006020828403121561491c57600080fd5b5051919050565b600081600019048311821515161561493d5761493d6145ee565b500290565b634e487b7160e01b600052601260045260246000fd5b60008261497557634e487b7160e01b600052601260045260246000fd5b500490565b8051602080830151919081101561457b5760001960209190910360031b1b16919050565b7f416363657373436f6e74726f6c3a206163636f756e74200000000000000000008152600083516149d6816017850160208801613c50565b7001034b99036b4b9b9b4b733903937b6329607d1b6017918401918201528351614a07816028840160208801613c50565b01602801949350505050565b600081614a2257614a226145ee565b50600019019056fe476f7665726e6f723a2072656c617920726576657274656420776974686f7574206d657373616765476f7665726e6f723a2063616c6c20726576657274656420776974686f7574206d657373616765a2646970667358221220827ac346b24897929dfa34ff2416ba523b19422583d3243ebe8b2fdd35a08dcd64736f6c63430008090033",
  "linkReferences": {},
  "deployedLinkReferences": {}
}